{
  "_format": "hh-sol-artifact-1",
  "contractName": "ReputationNFT",
  "sourceName": "contracts/ReputationNft.sol",
  "abi": [
    {
      "inputs": [],
      "stateMutability": "nonpayable",
      "type": "constructor"
    },
    {
      "inputs": [
        {
          "internalType": "address",
          "name": "sender",
          "type": "address"
        },
        {
          "internalType": "uint256",
          "name": "tokenId",
          "type": "uint256"
        },
        {
          "internalType": "address",
          "name": "owner",
          "type": "address"
        }
      ],
      "name": "ERC721IncorrectOwner",
      "type": "error"
    },
    {
      "inputs": [
        {
          "internalType": "address",
          "name": "operator",
          "type": "address"
        },
        {
          "internalType": "uint256",
          "name": "tokenId",
          "type": "uint256"
        }
      ],
      "name": "ERC721InsufficientApproval",
      "type": "error"
    },
    {
      "inputs": [
        {
          "internalType": "address",
          "name": "approver",
          "type": "address"
        }
      ],
      "name": "ERC721InvalidApprover",
      "type": "error"
    },
    {
      "inputs": [
        {
          "internalType": "address",
          "name": "operator",
          "type": "address"
        }
      ],
      "name": "ERC721InvalidOperator",
      "type": "error"
    },
    {
      "inputs": [
        {
          "internalType": "address",
          "name": "owner",
          "type": "address"
        }
      ],
      "name": "ERC721InvalidOwner",
      "type": "error"
    },
    {
      "inputs": [
        {
          "internalType": "address",
          "name": "receiver",
          "type": "address"
        }
      ],
      "name": "ERC721InvalidReceiver",
      "type": "error"
    },
    {
      "inputs": [
        {
          "internalType": "address",
          "name": "sender",
          "type": "address"
        }
      ],
      "name": "ERC721InvalidSender",
      "type": "error"
    },
    {
      "inputs": [
        {
          "internalType": "uint256",
          "name": "tokenId",
          "type": "uint256"
        }
      ],
      "name": "ERC721NonexistentToken",
      "type": "error"
    },
    {
      "inputs": [
        {
          "internalType": "address",
          "name": "owner",
          "type": "address"
        }
      ],
      "name": "OwnableInvalidOwner",
      "type": "error"
    },
    {
      "inputs": [
        {
          "internalType": "address",
          "name": "account",
          "type": "address"
        }
      ],
      "name": "OwnableUnauthorizedAccount",
      "type": "error"
    },
    {
      "inputs": [],
      "name": "ReentrancyGuardReentrantCall",
      "type": "error"
    },
    {
      "anonymous": false,
      "inputs": [
        {
          "indexed": true,
          "internalType": "address",
          "name": "owner",
          "type": "address"
        },
        {
          "indexed": true,
          "internalType": "address",
          "name": "approved",
          "type": "address"
        },
        {
          "indexed": true,
          "internalType": "uint256",
          "name": "tokenId",
          "type": "uint256"
        }
      ],
      "name": "Approval",
      "type": "event"
    },
    {
      "anonymous": false,
      "inputs": [
        {
          "indexed": true,
          "internalType": "address",
          "name": "owner",
          "type": "address"
        },
        {
          "indexed": true,
          "internalType": "address",
          "name": "operator",
          "type": "address"
        },
        {
          "indexed": false,
          "internalType": "bool",
          "name": "approved",
          "type": "bool"
        }
      ],
      "name": "ApprovalForAll",
      "type": "event"
    },
    {
      "anonymous": false,
      "inputs": [
        {
          "indexed": true,
          "internalType": "address",
          "name": "driver",
          "type": "address"
        },
        {
          "indexed": true,
          "internalType": "uint256",
          "name": "tokenId",
          "type": "uint256"
        },
        {
          "indexed": false,
          "internalType": "uint256",
          "name": "milestone",
          "type": "uint256"
        }
      ],
      "name": "BadgeMinted",
      "type": "event"
    },
    {
      "anonymous": false,
      "inputs": [
        {
          "indexed": false,
          "internalType": "uint256",
          "name": "_fromTokenId",
          "type": "uint256"
        },
        {
          "indexed": false,
          "internalType": "uint256",
          "name": "_toTokenId",
          "type": "uint256"
        }
      ],
      "name": "BatchMetadataUpdate",
      "type": "event"
    },
    {
      "anonymous": false,
      "inputs": [
        {
          "indexed": true,
          "internalType": "address",
          "name": "driver",
          "type": "address"
        },
        {
          "indexed": false,
          "internalType": "uint256",
          "name": "totalDeliveries",
          "type": "uint256"
        }
      ],
      "name": "DeliveryRecorded",
      "type": "event"
    },
    {
      "anonymous": false,
      "inputs": [
        {
          "indexed": false,
          "internalType": "uint256",
          "name": "_tokenId",
          "type": "uint256"
        }
      ],
      "name": "MetadataUpdate",
      "type": "event"
    },
    {
      "anonymous": false,
      "inputs": [
        {
          "indexed": true,
          "internalType": "address",
          "name": "previousOwner",
          "type": "address"
        },
        {
          "indexed": true,
          "internalType": "address",
          "name": "newOwner",
          "type": "address"
        }
      ],
      "name": "OwnershipTransferred",
      "type": "event"
    },
    {
      "anonymous": false,
      "inputs": [
        {
          "indexed": true,
          "internalType": "address",
          "name": "from",
          "type": "address"
        },
        {
          "indexed": true,
          "internalType": "address",
          "name": "to",
          "type": "address"
        },
        {
          "indexed": true,
          "internalType": "uint256",
          "name": "tokenId",
          "type": "uint256"
        }
      ],
      "name": "Transfer",
      "type": "event"
    },
    {
      "inputs": [],
      "name": "MAX_BADGES_PER_DRIVER",
      "outputs": [
        {
          "internalType": "uint256",
          "name": "",
          "type": "uint256"
        }
      ],
      "stateMutability": "view",
      "type": "function"
    },
    {
      "inputs": [
        {
          "internalType": "address",
          "name": "to",
          "type": "address"
        },
        {
          "internalType": "uint256",
          "name": "tokenId",
          "type": "uint256"
        }
      ],
      "name": "approve",
      "outputs": [],
      "stateMutability": "nonpayable",
      "type": "function"
    },
    {
      "inputs": [
        {
          "internalType": "address",
          "name": "owner",
          "type": "address"
        }
      ],
      "name": "balanceOf",
      "outputs": [
        {
          "internalType": "uint256",
          "name": "",
          "type": "uint256"
        }
      ],
      "stateMutability": "view",
      "type": "function"
    },
    {
      "inputs": [
        {
          "internalType": "uint256",
          "name": "",
          "type": "uint256"
        }
      ],
      "name": "deliveryMilestones",
      "outputs": [
        {
          "internalType": "uint256",
          "name": "",
          "type": "uint256"
        }
      ],
      "stateMutability": "view",
      "type": "function"
    },
    {
      "inputs": [
        {
          "internalType": "address",
          "name": "",
          "type": "address"
        }
      ],
      "name": "driverBadgeLevel",
      "outputs": [
        {
          "internalType": "uint256",
          "name": "",
          "type": "uint256"
        }
      ],
      "stateMutability": "view",
      "type": "function"
    },
    {
      "inputs": [
        {
          "internalType": "address",
          "name": "",
          "type": "address"
        }
      ],
      "name": "driverDeliveries",
      "outputs": [
        {
          "internalType": "uint256",
          "name": "",
          "type": "uint256"
        }
      ],
      "stateMutability": "view",
      "type": "function"
    },
    {
      "inputs": [
        {
          "internalType": "uint256",
          "name": "tokenId",
          "type": "uint256"
        }
      ],
      "name": "getApproved",
      "outputs": [
        {
          "internalType": "address",
          "name": "",
          "type": "address"
        }
      ],
      "stateMutability": "view",
      "type": "function"
    },
    {
      "inputs": [
        {
          "internalType": "address",
          "name": "driver",
          "type": "address"
        }
      ],
      "name": "getDriverBadgeLevel",
      "outputs": [
        {
          "internalType": "uint256",
          "name": "",
          "type": "uint256"
        }
      ],
      "stateMutability": "view",
      "type": "function"
    },
    {
      "inputs": [
        {
          "internalType": "address",
          "name": "driver",
          "type": "address"
        }
      ],
      "name": "getDriverDeliveries",
      "outputs": [
        {
          "internalType": "uint256",
          "name": "",
          "type": "uint256"
        }
      ],
      "stateMutability": "view",
      "type": "function"
    },
    {
      "inputs": [
        {
          "internalType": "address",
          "name": "owner",
          "type": "address"
        },
        {
          "internalType": "address",
          "name": "operator",
          "type": "address"
        }
      ],
      "name": "isApprovedForAll",
      "outputs": [
        {
          "internalType": "bool",
          "name": "",
          "type": "bool"
        }
      ],
      "stateMutability": "view",
      "type": "function"
    },
    {
      "inputs": [
        {
          "internalType": "address",
          "name": "driver",
          "type": "address"
        },
        {
          "internalType": "uint256",
          "name": "milestone",
          "type": "uint256"
        }
      ],
      "name": "mintBadge",
      "outputs": [],
      "stateMutability": "nonpayable",
      "type": "function"
    },
    {
      "inputs": [],
      "name": "name",
      "outputs": [
        {
          "internalType": "string",
          "name": "",
          "type": "string"
        }
      ],
      "stateMutability": "view",
      "type": "function"
    },
    {
      "inputs": [],
      "name": "owner",
      "outputs": [
        {
          "internalType": "address",
          "name": "",
          "type": "address"
        }
      ],
      "stateMutability": "view",
      "type": "function"
    },
    {
      "inputs": [
        {
          "internalType": "uint256",
          "name": "tokenId",
          "type": "uint256"
        }
      ],
      "name": "ownerOf",
      "outputs": [
        {
          "internalType": "address",
          "name": "",
          "type": "address"
        }
      ],
      "stateMutability": "view",
      "type": "function"
    },
    {
      "inputs": [
        {
          "internalType": "address",
          "name": "driver",
          "type": "address"
        }
      ],
      "name": "recordDeliveryAndMaybeMint",
      "outputs": [],
      "stateMutability": "nonpayable",
      "type": "function"
    },
    {
      "inputs": [],
      "name": "renounceOwnership",
      "outputs": [],
      "stateMutability": "nonpayable",
      "type": "function"
    },
    {
      "inputs": [
        {
          "internalType": "address",
          "name": "from",
          "type": "address"
        },
        {
          "internalType": "address",
          "name": "to",
          "type": "address"
        },
        {
          "internalType": "uint256",
          "name": "tokenId",
          "type": "uint256"
        }
      ],
      "name": "safeTransferFrom",
      "outputs": [],
      "stateMutability": "nonpayable",
      "type": "function"
    },
    {
      "inputs": [
        {
          "internalType": "address",
          "name": "from",
          "type": "address"
        },
        {
          "internalType": "address",
          "name": "to",
          "type": "address"
        },
        {
          "internalType": "uint256",
          "name": "tokenId",
          "type": "uint256"
        },
        {
          "internalType": "bytes",
          "name": "data",
          "type": "bytes"
        }
      ],
      "name": "safeTransferFrom",
      "outputs": [],
      "stateMutability": "nonpayable",
      "type": "function"
    },
    {
      "inputs": [
        {
          "internalType": "address",
          "name": "operator",
          "type": "address"
        },
        {
          "internalType": "bool",
          "name": "approved",
          "type": "bool"
        }
      ],
      "name": "setApprovalForAll",
      "outputs": [],
      "stateMutability": "nonpayable",
      "type": "function"
    },
    {
      "inputs": [
        {
          "internalType": "bytes4",
          "name": "interfaceId",
          "type": "bytes4"
        }
      ],
      "name": "supportsInterface",
      "outputs": [
        {
          "internalType": "bool",
          "name": "",
          "type": "bool"
        }
      ],
      "stateMutability": "view",
      "type": "function"
    },
    {
      "inputs": [],
      "name": "symbol",
      "outputs": [
        {
          "internalType": "string",
          "name": "",
          "type": "string"
        }
      ],
      "stateMutability": "view",
      "type": "function"
    },
    {
      "inputs": [],
      "name": "tokenIdCounter",
      "outputs": [
        {
          "internalType": "uint256",
          "name": "",
          "type": "uint256"
        }
      ],
      "stateMutability": "view",
      "type": "function"
    },
    {
      "inputs": [
        {
          "internalType": "uint256",
          "name": "tokenId",
          "type": "uint256"
        }
      ],
      "name": "tokenURI",
      "outputs": [
        {
          "internalType": "string",
          "name": "",
          "type": "string"
        }
      ],
      "stateMutability": "view",
      "type": "function"
    },
    {
      "inputs": [
        {
          "internalType": "address",
          "name": "from",
          "type": "address"
        },
        {
          "internalType": "address",
          "name": "to",
          "type": "address"
        },
        {
          "internalType": "uint256",
          "name": "tokenId",
          "type": "uint256"
        }
      ],
      "name": "transferFrom",
      "outputs": [],
      "stateMutability": "nonpayable",
      "type": "function"
    },
    {
      "inputs": [
        {
          "internalType": "address",
          "name": "newOwner",
          "type": "address"
        }
      ],
      "name": "transferOwnership",
      "outputs": [],
      "stateMutability": "nonpayable",
      "type": "function"
    }
  ],
  "bytecode": "0x60806040523461043757610013604061043c565b601081526f223934bb32b92932b83aba30ba34b7b760811b602082015261003a604061043c565b6005815264111493919560da1b602082015281516001600160401b03811161025b57600054600181811c9116801561042d575b602082101461035057601f81116103df575b50602092601f821160011461037b5792819293600092610370575b50508160011b916000199060031b1c1916176000555b80516001600160401b03811161025b57600154600181811c91168015610366575b602082101461035057601f81116102f6575b50602091601f821160011461029257918192600092610287575b50508160011b916000199060031b1c1916176001555b33156102715760078054336001600160a01b0319821681179092556001600160a01b03167f8be0079c531659141344cd1fd0a4f28419497f9722a3daafe3b4186f6b6457e0600080a3600160085560405161010081016001600160401b0381118282101761025b5760405260058152600a602082015260196040820152603260608201526064608082015260fa60a08201526101f460c08201526103e860e0820152600c546008600c5580600810610204575b50600c60005260206000209060005b600881106101ec5760405161175590816104798239f35b600190602061ffff84511693019281850155016101d5565b600c600052610255907fdf6966c971051c3d54ec59162606531493a51404a002842f56009d7e5cf4a8c7017fdf6966c971051c3d54ec59162606531493a51404a002842f56009d7e5cf4a8cf610461565b386101c6565b634e487b7160e01b600052604160045260246000fd5b631e4fbdf760e01b600052600060045260246000fd5b0151905038806100fd565b601f198216926001600052806000209160005b8581106102de575083600195106102c5575b505050811b01600155610113565b015160001960f88460031b161c191690553880806102b7565b919260206001819286850151815501940192016102a5565b6001600052610340907fb10e2d527612073b26eecdfd717e6a320cf44b4afac2b0732d9fcbe2b7fa0cf6601f840160051c81019160208510610346575b601f0160051c0190610461565b386100e3565b9091508190610333565b634e487b7160e01b600052602260045260246000fd5b90607f16906100d1565b01519050388061009a565b601f1982169360008052806000209160005b8681106103c757508360019596106103ae575b505050811b016000556100b0565b015160001960f88460031b161c191690553880806103a0565b9192602060018192868501518155019401920161038d565b60008052610427907f290decd9548b62a8d60345a988386fc84ba6bc95484008f6362f93160ef3e563601f840160051c8101916020851061034657601f0160051c0190610461565b3861007f565b90607f169061006d565b600080fd5b6040519190601f01601f191682016001600160401b0381118382101761025b57604052565b81811061046c575050565b6000815560010161046156fe608080604052600436101561001357600080fd5b60003560e01c90816301ffc9a714610e075750806306fdde0314610d62578063081812fc14610d24578063095ea7b314610c3557806323b872dd14610c1e57806342842e0e14610bee5780634c39b4e3146101325780636352211e14610bbe57806364794520146108ff57806370a08231146108a9578063715018a61461084c578063747323cb1461065c5780638da5cb5b1461082357806395d89b411461075557806398bdf6f514610737578063a22cb46514610696578063b1d657fe1461065c578063b88d4fde146105c5578063c87b56dd1461058e578063e42bff66146102aa578063e985e9c51461024f578063ed4a2c2014610217578063f164de4c146101fb578063f2fde38b146101715763fa2f8b7e1461013257600080fd5b3461016c57602036600319011261016c576001600160a01b03610153610ecb565b16600052600a6020526020604060002054604051908152f35b600080fd5b3461016c57602036600319011261016c5761018a610ecb565b6101926112f4565b6001600160a01b031680156101e557600780546001600160a01b0319811683179091556001600160a01b03167f8be0079c531659141344cd1fd0a4f28419497f9722a3daafe3b4186f6b6457e0600080a3005b631e4fbdf760e01b600052600060045260246000fd5b3461016c57600036600319011261016c57602060405160148152f35b3461016c57602036600319011261016c57600435600c5481101561016c57610240602091610f6f565b90549060031b1c604051908152f35b3461016c57604036600319011261016c57610268610ecb565b610270610ee1565b9060018060a01b0316600052600560205260406000209060018060a01b0316600052602052602060ff604060002054166040519015158152f35b3461016c57604036600319011261016c576102c3610ecb565b6024356102ce6112f4565b60026008541461057d5760026008556001600160a01b038216908115906102f58215611170565b82600052600b6020526014604060002054101561052e5760095493610319856111ca565b60095583600052600b602052604060002061033481546111ca565b90556040516020936103468583610f31565b60008252610518576001600160a01b036103608784611226565b166105025785610370923361131d565b61037981611614565b846000526006835260406000209080519067ffffffffffffffff82116104ec576103a38354610fa0565b601f81116104a6575b508490601f831160011461042e57600080516020611700833981519152959493929160009183610423575b50508160011b916000199060031b1c19161790555b7ff8e1a15aba9398e019f0b49df1a4fde98ee17ae345cb5f6b5e2c27f5033e8ce782604051878152a1604051908152a36001600855005b0151905088806103d7565b90601f1983169184600052866000209260005b81811061048f5750916001939185600080516020611700833981519152999897969410610476575b505050811b0190556103ec565b015160001960f88460031b161c19169055888080610469565b929388600181928786015181550195019301610441565b8360005285600020601f840160051c8101918785106104e2575b601f0160051c01905b8181106104d657506103ac565b600081556001016104c9565b90915081906104c0565b634e487b7160e01b600052604160045260246000fd5b6339e3563760e11b600052600060045260246000fd5b633250574960e11b600052600060045260246000fd5b60405162461bcd60e51b815260206004820152602160248201527f52657075746174696f6e4e46543a206d617820626164676573207265616368656044820152601960fa1b6064820152608490fd5b633ee5aeb560e01b60005260046000fd5b3461016c57602036600319011261016c576105c16105ad600435611548565b604051918291602083526020830190610e8c565b0390f35b3461016c57608036600319011261016c576105de610ecb565b6105e6610ee1565b906044356064359267ffffffffffffffff841161016c573660238501121561016c5783600401359261061784610f53565b936106256040519586610f31565b808552366024828801011161016c57602081600092602461065a99018389013786010152610654838383610fda565b33611461565b005b3461016c57602036600319011261016c576001600160a01b0361067d610ecb565b16600052600b6020526020604060002054604051908152f35b3461016c57604036600319011261016c576106af610ecb565b6024359081151580920361016c576001600160a01b031690811561072257336000526005602052604060002082600052602052604060002060ff1981541660ff83161790556040519081527f17307eab39ab6107e8899845ad3d59bd9653f200f220920489ca2b5937696c3160203392a3005b50630b61174360e31b60005260045260246000fd5b3461016c57600036600319011261016c576020600954604051908152f35b3461016c57600036600319011261016c57604051600060015461077781610fa0565b80845290600181169081156107ff575060011461079f575b6105c1836105ad81850382610f31565b91905060016000527fb10e2d527612073b26eecdfd717e6a320cf44b4afac2b0732d9fcbe2b7fa0cf6916000905b8082106107e5575090915081016020016105ad61078f565b9192600181602092548385880101520191019092916107cd565b60ff191660208086019190915291151560051b840190910191506105ad905061078f565b3461016c57600036600319011261016c576007546040516001600160a01b039091168152602090f35b3461016c57600036600319011261016c576108656112f4565b600780546001600160a01b031981169091556000906001600160a01b03167f8be0079c531659141344cd1fd0a4f28419497f9722a3daafe3b4186f6b6457e08280a3005b3461016c57602036600319011261016c576001600160a01b036108ca610ecb565b1680156108e95760005260036020526020604060002054604051908152f35b6322718ad960e21b600052600060045260246000fd5b3461016c57602036600319011261016c57610918610ecb565b6109206112f4565b6001600160a01b03811680158015919061093983611170565b81600052600a602052604060002061095181546111ca565b905581600052600a60205260406000205492827f767b220cf793e8c16a1d2b6463700ec45492056903b06c952f3124046f1e9e396020604051878152a260005b600c5481101561065a576109a481610f6f565b90549060031b1c85146109b957600101610991565b6109c69192939450610f6f565b90549060031b1c906109d66112f4565b60026008541461057d576109ee906002600855611170565b82600052600b6020526014604060002054101561052e5760095493610a12856111ca565b60095583600052600b6020526040600020610a2d81546111ca565b9055604051602093610a3f8583610f31565b60008252610518576001600160a01b03610a598784611226565b166105025785610a69923361131d565b610a7281611614565b846000526006835260406000209080519067ffffffffffffffff82116104ec57610a9c8354610fa0565b601f8111610b78575b508490601f8311600114610b1a576000805160206117008339815191529594939291600091836104235750508160011b916000199060031b1c19161790557ff8e1a15aba9398e019f0b49df1a4fde98ee17ae345cb5f6b5e2c27f5033e8ce782604051878152a1604051908152a36001600855005b90601f1983169184600052866000209260005b818110610b61575091600193918560008051602061170083398151915299989796941061047657505050811b0190556103ec565b929388600181928786015181550195019301610b2d565b8360005285600020601f840160051c810191878510610bb4575b601f0160051c01905b818110610ba85750610aa5565b60008155600101610b9b565b9091508190610b92565b3461016c57602036600319011261016c576020610bdc6004356111ef565b6040516001600160a01b039091168152f35b3461016c5761065a610bff36610ef7565b9060405192610c0f602085610f31565b60008452610654838383610fda565b3461016c5761065a610c2f36610ef7565b91610fda565b3461016c57604036600319011261016c57610c4e610ecb565b602435610c5a816111ef565b33151580610d11575b80610ce3575b610cce5781906001600160a01b0384811691167f8c5be1e5ebec7d5bd14f71427d1e84f3dd0314c0f7b2291e5b200ac8c7c3b925600080a4600090815260046020526040902080546001600160a01b0319166001600160a01b03909216919091179055005b63a9fbf51f60e01b6000523360045260246000fd5b506001600160a01b038116600090815260056020908152604080832033845290915290205460ff1615610c69565b506001600160a01b038116331415610c63565b3461016c57602036600319011261016c57600435610d41816111ef565b506000526004602052602060018060a01b0360406000205416604051908152f35b3461016c57600036600319011261016c5760405160008054610d8381610fa0565b80845290600181169081156107ff5750600114610daa576105c1836105ad81850382610f31565b60008080527f290decd9548b62a8d60345a988386fc84ba6bc95484008f6362f93160ef3e563939250905b808210610ded575090915081016020016105ad61078f565b919260018160209254838588010152019101909291610dd5565b3461016c57602036600319011261016c576004359063ffffffff60e01b821680920361016c57602091632483248360e11b8114908115610e49575b5015158152f35b6380ac58cd60e01b811491508115610e7b575b8115610e6a575b5083610e42565b6301ffc9a760e01b14905083610e63565b635b5e139f60e01b81149150610e5c565b919082518082526020808301940160005b828110610ebb575050600081602094950152601f8019910116010190565b8181015186820152602001610e9d565b600435906001600160a01b038216820361016c57565b602435906001600160a01b038216820361016c57565b606090600319011261016c576004356001600160a01b038116810361016c57906024356001600160a01b038116810361016c579060443590565b90601f8019910116810190811067ffffffffffffffff8211176104ec57604052565b67ffffffffffffffff81116104ec57601f01601f191660200190565b600c54811015610f8a57600c60005260206000200190600090565b634e487b7160e01b600052603260045260246000fd5b90600182811c92168015610fd0575b6020831014610fba57565b634e487b7160e01b600052602260045260246000fd5b91607f1691610faf565b6001600160a01b0390911691908215610518576000828152600260205260408120546001600160a01b03169383918590331515806110d8575b507fddf252ad1be2c89b69c2b068fc378daa952ba7f163c4a11628f55a4df523b3ef90826110a3575b83815260036020526040812060018154019055848152600260205260408120846bffffffffffffffffffffffff60a01b82541617905580a46001600160a01b031680830361108957505050565b6364283d7b60e01b60005260045260245260445260646000fd5b600085815260046020526040902080546001600160a01b0319169055828152600360205260408120805460001901905561103c565b915091925080611121575b156110f2579084849238611013565b83908561110b57602491637e27328960e01b8252600452fd5b60449163177e802f60e01b825233600452602452fd5b50338514801561114f575b806110e35750838152600460205260408120546001600160a01b031633146110e3565b5084815260056020908152604080832033845290915281205460ff1661112c565b1561117757565b60405162461bcd60e51b815260206004820152602560248201527f52657075746174696f6e4e46543a20696e76616c696420647269766572206164604482015264647265737360d81b6064820152608490fd5b60001981146111d95760010190565b634e487b7160e01b600052601160045260246000fd5b6000818152600260205260409020546001600160a01b0316908115611212575090565b637e27328960e01b60005260045260246000fd5b6000828152600260205260409020546001600160a01b03169190826112bd575b6001600160a01b0316806112a3575b8160005260026020526040600020816bffffffffffffffffffffffff60a01b825416179055827fddf252ad1be2c89b69c2b068fc378daa952ba7f163c4a11628f55a4df523b3ef600080a490565b806000526003602052604060002060018154019055611255565b600082815260046020526040902080546001600160a01b031916905582600052600360205260406000206000198154019055611246565b6007546001600160a01b0316330361130857565b63118cdaa760e01b6000523360045260246000fd5b9291813b61132c575b50505050565b604051630a85bd0160e11b81526001600160a01b039485166004820152600060248201526044810191909152608060648201529216919060209082908190611378906084830190610e8c565b03816000865af18091600091611417575b50906113e257503d156113db573d6113a081610f53565b906113ae6040519283610f31565b81523d6000602083013e5b805190816113d65782633250574960e11b60005260045260246000fd5b602001fd5b60606113b9565b6001600160e01b03191663757a42ff60e11b01611403575038808080611326565b633250574960e11b60005260045260246000fd5b6020813d602011611459575b8161143060209383610f31565b810103126114555751906001600160e01b031982168203611452575038611389565b80fd5b5080fd5b3d9150611423565b823b61146f575b5050505050565b604051630a85bd0160e11b81526001600160a01b0391821660048201529181166024830152604482019390935260806064820152911691602090829081906114bb906084830190610e8c565b03816000865af18091600091611505575b50906114e357503d156113db573d6113a081610f53565b6001600160e01b03191663757a42ff60e11b0161140357503880808080611468565b6020813d602011611540575b8161151e60209383610f31565b810103126114555751906001600160e01b0319821682036114525750386114cc565b3d9150611511565b611551816111ef565b50600052600660205260406000206040519081600082549261157284610fa0565b80845293600181169081156115f257506001146115ab575b5061159792500382610f31565b60006040516115a7602082610f31565b5290565b90506000929192526020600020906000915b8183106115d6575050906020611597928201013861158a565b60209193508060019154838588010152019101909183926115bd565b90506020925061159794915060ff191682840152151560051b8201013861158a565b6103e88110156116ca576101f481101561169657606411156116635760405161163e604082610f31565b6015815274697066733a2f2f516d53746172746572426164676560581b602082015290565b604051611671604082610f31565b6015815274697066733a2f2f516d4c6f7754696572426164676560581b602082015290565b506040516116a5604082610f31565b6015815274697066733a2f2f516d4d696454696572426164676560581b602082015290565b506040516116d9604082610f31565b6016815275697066733a2f2f516d4869676854696572426164676560501b60208201529056fe7e6f783c7d2fd31e9979cbb09639e191e20de085caf64b2875d53ff862aa3baaa2646970667358221220d943a14b47712fc6be34fc8ecfca76c187d044b994f6afb472489a3a2ff072ad64736f6c634300081c0033",
  "linkReferences": {},
  "deployedLinkReferences": {}
}