{
  "_format": "hh-sol-artifact-1",
  "contractName": "Faucet",
  "sourceName": "contracts/Faucet.sol",
  "abi": [
    {
      "inputs": [
        {
          "internalType": "contract IERC20",
          "name": "_stablecoin",
          "type": "address"
        }
      ],
      "stateMutability": "nonpayable",
      "type": "constructor"
    },
    {
      "inputs": [],
      "name": "FaucetCapExceeded",
      "type": "error"
    },
    {
      "inputs": [],
      "name": "FaucetCooldownActive",
      "type": "error"
    },
    {
      "inputs": [],
      "name": "InsufficientContractBalance",
      "type": "error"
    },
    {
      "inputs": [],
      "name": "ReentrancyGuardReentrantCall",
      "type": "error"
    },
    {
      "inputs": [
        {
          "internalType": "address",
          "name": "token",
          "type": "address"
        }
      ],
      "name": "SafeERC20FailedOperation",
      "type": "error"
    },
    {
      "anonymous": false,
      "inputs": [
        {
          "indexed": true,
          "internalType": "address",
          "name": "user",
          "type": "address"
        },
        {
          "indexed": false,
          "internalType": "uint256",
          "name": "amount",
          "type": "uint256"
        }
      ],
      "name": "FaucetClaimed",
      "type": "event"
    },
    {
      "inputs": [],
      "name": "FAUCET_AMOUNT",
      "outputs": [
        {
          "internalType": "uint256",
          "name": "",
          "type": "uint256"
        }
      ],
      "stateMutability": "view",
      "type": "function"
    },
    {
      "inputs": [],
      "name": "FAUCET_COOLDOWN",
      "outputs": [
        {
          "internalType": "uint256",
          "name": "",
          "type": "uint256"
        }
      ],
      "stateMutability": "view",
      "type": "function"
    },
    {
      "inputs": [],
      "name": "FAUCET_TOTAL_CAP",
      "outputs": [
        {
          "internalType": "uint256",
          "name": "",
          "type": "uint256"
        }
      ],
      "stateMutability": "view",
      "type": "function"
    },
    {
      "inputs": [],
      "name": "claimFaucet",
      "outputs": [],
      "stateMutability": "nonpayable",
      "type": "function"
    },
    {
      "inputs": [],
      "name": "getContractBalance",
      "outputs": [
        {
          "internalType": "uint256",
          "name": "",
          "type": "uint256"
        }
      ],
      "stateMutability": "view",
      "type": "function"
    },
    {
      "inputs": [
        {
          "internalType": "address",
          "name": "_user",
          "type": "address"
        }
      ],
      "name": "getFaucetInfo",
      "outputs": [
        {
          "internalType": "uint256",
          "name": "lastClaim",
          "type": "uint256"
        },
        {
          "internalType": "bool",
          "name": "canClaim",
          "type": "bool"
        },
        {
          "internalType": "uint256",
          "name": "nextClaimTime",
          "type": "uint256"
        }
      ],
      "stateMutability": "view",
      "type": "function"
    },
    {
      "inputs": [],
      "name": "getRemainingTokens",
      "outputs": [
        {
          "internalType": "uint256",
          "name": "",
          "type": "uint256"
        }
      ],
      "stateMutability": "view",
      "type": "function"
    },
    {
      "inputs": [],
      "name": "isCapReached",
      "outputs": [
        {
          "internalType": "bool",
          "name": "",
          "type": "bool"
        }
      ],
      "stateMutability": "view",
      "type": "function"
    },
    {
      "inputs": [
        {
          "internalType": "address",
          "name": "",
          "type": "address"
        }
      ],
      "name": "lastFaucetClaim",
      "outputs": [
        {
          "internalType": "uint256",
          "name": "",
          "type": "uint256"
        }
      ],
      "stateMutability": "view",
      "type": "function"
    },
    {
      "inputs": [],
      "name": "stablecoin",
      "outputs": [
        {
          "internalType": "contract IERC20",
          "name": "",
          "type": "address"
        }
      ],
      "stateMutability": "view",
      "type": "function"
    },
    {
      "inputs": [],
      "name": "totalFaucetClaimed",
      "outputs": [
        {
          "internalType": "uint256",
          "name": "",
          "type": "uint256"
        }
      ],
      "stateMutability": "view",
      "type": "function"
    }
  ],
  "bytecode": "0x60a03461008357601f61072d38819003918201601f19168301916001600160401b038311848410176100885780849260209460405283398101031261008357516001600160a01b038116810361008357600160005560805260405161068e908161009f823960805181818160d101528181610178015281816102f801526104770152f35b600080fd5b634e487b7160e01b600052604160045260246000fdfe608080604052600436101561001357600080fd5b60003560e01c9081634fe15335146103fd5750806359c303ab1461036e5780636f9fb98a146102cc57806371539596146102a757806376697640146102835780637d1d5d19146102655780638a87720514610227578063af35ae271461012b578063d7e25c3614610100578063e9cbd822146100bb5763ef68f47b1461009857600080fd5b346100b65760003660031901126100b6576020600154604051908152f35b600080fd5b346100b65760003660031901126100b6576040517f00000000000000000000000000000000000000000000000000000000000000006001600160a01b03168152602090f35b346100b65760003660031901126100b657602069d3c21bcecceda10000006001541015604051908152f35b346100b65760003660031901126100b65760015469d3c21bcecceda10000000369d3c21bcecceda10000008111610211576040516370a0823160e01b8152306004820152906020826024817f00000000000000000000000000000000000000000000000000000000000000006001600160a01b03165afa918215610205576000926101ce575b50602091808210156101c757505b604051908152f35b90506101bf565b6020813d6020116101fd575b816101e760209383610620565b810103126101f95751915060206101b1565b8280fd5b3d91506101da565b6040513d6000823e3d90fd5b634e487b7160e01b600052601160045260246000fd5b346100b65760203660031901126100b6576004356001600160a01b038116908190036100b65760005260026020526020604060002054604051908152f35b346100b65760003660031901126100b6576020604051620151808152f35b346100b65760003660031901126100b657602060405168056bc75e2d631000008152f35b346100b65760003660031901126100b657602060405169d3c21bcecceda10000008152f35b346100b65760003660031901126100b6576040516370a0823160e01b81523060048201526020816024817f00000000000000000000000000000000000000000000000000000000000000006001600160a01b03165afa80156102055760009061033b575b602090604051908152f35b506020813d602011610366575b8161035560209383610620565b810103126100b65760209051610330565b3d9150610348565b346100b65760203660031901126100b6576004356001600160a01b038116908190036100b6576000526002602052604060002054620151808101908181116102115781421015806103d2575b91606092604051928352151560208301526040820152f35b506001549168056bc75e2d631000008301809311610211579169d3c21bcecceda100000010156103ba565b346100b65760003660031901126100b65760026000541461060f5760026000553360005260026020526040600020546201518081018091116102115742106105fe5760015468056bc75e2d6310000081018091116102115769d3c21bcecceda1000000106105ed576370a0823160e01b81523060048201527f00000000000000000000000000000000000000000000000000000000000000006001600160a01b03811691602081602481865afa8015610205576000906105b2575b68056bc75e2d631000009150106105a1573360005260026020524260406000205560015468056bc75e2d63100000810180911161021157602091600091600155604051828482019163a9059cbb60e01b835233602482015268056bc75e2d6310000060448201526044815261052e606482610620565b51925af115610205576000513d6105985750803b155b6105845760405168056bc75e2d6310000081527f5d4f415c63cd8a5874d9d291cdd64cec37e5dc236d90d659c958d109d78074b360203392a26001600055005b635274afe760e01b60005260045260246000fd5b60011415610544565b63786e0a9960e01b60005260046000fd5b506020813d6020116105e5575b816105cc60209383610620565b810103126100b65768056bc75e2d6310000090516104b8565b3d91506105bf565b631bac1bb160e11b60005260046000fd5b6321767de360e21b60005260046000fd5b633ee5aeb560e01b60005260046000fd5b90601f8019910116810190811067ffffffffffffffff82111761064257604052565b634e487b7160e01b600052604160045260246000fdfea2646970667358221220e4954be0d0855dd7d6099be2956128c51ec3d52ee1db906458c7568c056ec4c764736f6c634300081c0033",
  "linkReferences": {},
  "deployedLinkReferences": {}
}