{
  "_format": "hh-sol-artifact-1",
  "contractName": "DeliveryService",
  "sourceName": "contracts/DeliveryService.sol",
  "abi": [
    {
      "inputs": [
        {
          "internalType": "contract IERC20",
          "name": "_stablecoin",
          "type": "address"
        },
        {
          "internalType": "contract DriverRegistry",
          "name": "_driverRegistry",
          "type": "address"
        }
      ],
      "stateMutability": "nonpayable",
      "type": "constructor"
    },
    {
      "inputs": [],
      "name": "AlreadyConfirmed",
      "type": "error"
    },
    {
      "inputs": [],
      "name": "DriverNotAvailable",
      "type": "error"
    },
    {
      "inputs": [],
      "name": "InsufficientAmount",
      "type": "error"
    },
    {
      "inputs": [],
      "name": "MaxActiveRequestsReached",
      "type": "error"
    },
    {
      "inputs": [],
      "name": "NotAssignedDriver",
      "type": "error"
    },
    {
      "inputs": [],
      "name": "NotRequestOwner",
      "type": "error"
    },
    {
      "inputs": [],
      "name": "ReentrancyGuardReentrantCall",
      "type": "error"
    },
    {
      "inputs": [],
      "name": "RequestAlreadyAccepted",
      "type": "error"
    },
    {
      "inputs": [],
      "name": "RequestAlreadyCancelled",
      "type": "error"
    },
    {
      "inputs": [],
      "name": "RequestAlreadyCompleted",
      "type": "error"
    },
    {
      "inputs": [],
      "name": "RequestNotAccepted",
      "type": "error"
    },
    {
      "inputs": [],
      "name": "RequestNotFound",
      "type": "error"
    },
    {
      "inputs": [
        {
          "internalType": "address",
          "name": "token",
          "type": "address"
        }
      ],
      "name": "SafeERC20FailedOperation",
      "type": "error"
    },
    {
      "anonymous": false,
      "inputs": [
        {
          "indexed": true,
          "internalType": "uint256",
          "name": "requestId",
          "type": "uint256"
        },
        {
          "indexed": true,
          "internalType": "address",
          "name": "driver",
          "type": "address"
        },
        {
          "indexed": false,
          "internalType": "uint256",
          "name": "amount",
          "type": "uint256"
        }
      ],
      "name": "DeliveryCompleted",
      "type": "event"
    },
    {
      "anonymous": false,
      "inputs": [
        {
          "indexed": true,
          "internalType": "uint256",
          "name": "requestId",
          "type": "uint256"
        },
        {
          "indexed": true,
          "internalType": "address",
          "name": "confirmer",
          "type": "address"
        },
        {
          "indexed": false,
          "internalType": "bool",
          "name": "isUser",
          "type": "bool"
        }
      ],
      "name": "DeliveryConfirmed",
      "type": "event"
    },
    {
      "anonymous": false,
      "inputs": [
        {
          "indexed": true,
          "internalType": "uint256",
          "name": "requestId",
          "type": "uint256"
        },
        {
          "indexed": true,
          "internalType": "address",
          "name": "driver",
          "type": "address"
        }
      ],
      "name": "RequestAccepted",
      "type": "event"
    },
    {
      "anonymous": false,
      "inputs": [
        {
          "indexed": true,
          "internalType": "uint256",
          "name": "requestId",
          "type": "uint256"
        }
      ],
      "name": "RequestCancelled",
      "type": "event"
    },
    {
      "anonymous": false,
      "inputs": [
        {
          "indexed": true,
          "internalType": "uint256",
          "name": "requestId",
          "type": "uint256"
        },
        {
          "indexed": true,
          "internalType": "address",
          "name": "user",
          "type": "address"
        },
        {
          "indexed": false,
          "internalType": "string",
          "name": "description",
          "type": "string"
        },
        {
          "indexed": false,
          "internalType": "uint256",
          "name": "amount",
          "type": "uint256"
        }
      ],
      "name": "RequestCreated",
      "type": "event"
    },
    {
      "anonymous": false,
      "inputs": [
        {
          "indexed": true,
          "internalType": "uint256",
          "name": "requestId",
          "type": "uint256"
        },
        {
          "indexed": false,
          "internalType": "string",
          "name": "description",
          "type": "string"
        },
        {
          "indexed": false,
          "internalType": "uint256",
          "name": "amount",
          "type": "uint256"
        }
      ],
      "name": "RequestUpdated",
      "type": "event"
    },
    {
      "inputs": [],
      "name": "BASE_FEE",
      "outputs": [
        {
          "internalType": "uint256",
          "name": "",
          "type": "uint256"
        }
      ],
      "stateMutability": "view",
      "type": "function"
    },
    {
      "inputs": [],
      "name": "MAX_ACTIVE_REQUESTS",
      "outputs": [
        {
          "internalType": "uint256",
          "name": "",
          "type": "uint256"
        }
      ],
      "stateMutability": "view",
      "type": "function"
    },
    {
      "inputs": [
        {
          "internalType": "uint256",
          "name": "_requestId",
          "type": "uint256"
        }
      ],
      "name": "acceptRequest",
      "outputs": [],
      "stateMutability": "nonpayable",
      "type": "function"
    },
    {
      "inputs": [
        {
          "internalType": "uint256",
          "name": "",
          "type": "uint256"
        }
      ],
      "name": "activeRequestIds",
      "outputs": [
        {
          "internalType": "uint256",
          "name": "",
          "type": "uint256"
        }
      ],
      "stateMutability": "view",
      "type": "function"
    },
    {
      "inputs": [
        {
          "internalType": "uint256",
          "name": "_requestId",
          "type": "uint256"
        }
      ],
      "name": "cancelRequest",
      "outputs": [],
      "stateMutability": "nonpayable",
      "type": "function"
    },
    {
      "inputs": [
        {
          "internalType": "uint256",
          "name": "_requestId",
          "type": "uint256"
        }
      ],
      "name": "confirmDeliveryAsDriver",
      "outputs": [],
      "stateMutability": "nonpayable",
      "type": "function"
    },
    {
      "inputs": [
        {
          "internalType": "uint256",
          "name": "_requestId",
          "type": "uint256"
        }
      ],
      "name": "confirmDeliveryAsUser",
      "outputs": [],
      "stateMutability": "nonpayable",
      "type": "function"
    },
    {
      "inputs": [
        {
          "internalType": "string",
          "name": "_description",
          "type": "string"
        },
        {
          "internalType": "string",
          "name": "_pickupLocation",
          "type": "string"
        },
        {
          "internalType": "string",
          "name": "_dropoffLocation",
          "type": "string"
        },
        {
          "internalType": "uint256",
          "name": "_amount",
          "type": "uint256"
        }
      ],
      "name": "createDeliveryRequest",
      "outputs": [],
      "stateMutability": "nonpayable",
      "type": "function"
    },
    {
      "inputs": [
        {
          "internalType": "uint256",
          "name": "",
          "type": "uint256"
        }
      ],
      "name": "driverConfirmed",
      "outputs": [
        {
          "internalType": "bool",
          "name": "",
          "type": "bool"
        }
      ],
      "stateMutability": "view",
      "type": "function"
    },
    {
      "inputs": [],
      "name": "driverRegistry",
      "outputs": [
        {
          "internalType": "contract DriverRegistry",
          "name": "",
          "type": "address"
        }
      ],
      "stateMutability": "view",
      "type": "function"
    },
    {
      "inputs": [],
      "name": "getActiveRequests",
      "outputs": [
        {
          "internalType": "uint256[]",
          "name": "",
          "type": "uint256[]"
        }
      ],
      "stateMutability": "view",
      "type": "function"
    },
    {
      "inputs": [
        {
          "internalType": "uint256",
          "name": "_requestId",
          "type": "uint256"
        }
      ],
      "name": "getAssignedDriver",
      "outputs": [
        {
          "internalType": "address",
          "name": "",
          "type": "address"
        }
      ],
      "stateMutability": "view",
      "type": "function"
    },
    {
      "inputs": [
        {
          "internalType": "uint256",
          "name": "_requestId",
          "type": "uint256"
        }
      ],
      "name": "getConfirmationStatus",
      "outputs": [
        {
          "internalType": "bool",
          "name": "userHasConfirmed",
          "type": "bool"
        },
        {
          "internalType": "bool",
          "name": "driverHasConfirmed",
          "type": "bool"
        }
      ],
      "stateMutability": "view",
      "type": "function"
    },
    {
      "inputs": [
        {
          "internalType": "uint256",
          "name": "_requestId",
          "type": "uint256"
        }
      ],
      "name": "getRequest",
      "outputs": [
        {
          "components": [
            {
              "internalType": "uint256",
              "name": "id",
              "type": "uint256"
            },
            {
              "internalType": "address",
              "name": "user",
              "type": "address"
            },
            {
              "internalType": "string",
              "name": "description",
              "type": "string"
            },
            {
              "internalType": "string",
              "name": "pickupLocation",
              "type": "string"
            },
            {
              "internalType": "string",
              "name": "dropoffLocation",
              "type": "string"
            },
            {
              "internalType": "uint256",
              "name": "amount",
              "type": "uint256"
            },
            {
              "internalType": "bool",
              "name": "completed",
              "type": "bool"
            },
            {
              "internalType": "bool",
              "name": "cancelled",
              "type": "bool"
            },
            {
              "internalType": "uint256",
              "name": "createdAt",
              "type": "uint256"
            }
          ],
          "internalType": "struct Data.DeliveryRequest",
          "name": "",
          "type": "tuple"
        }
      ],
      "stateMutability": "view",
      "type": "function"
    },
    {
      "inputs": [],
      "name": "requestCounter",
      "outputs": [
        {
          "internalType": "uint256",
          "name": "",
          "type": "uint256"
        }
      ],
      "stateMutability": "view",
      "type": "function"
    },
    {
      "inputs": [
        {
          "internalType": "uint256",
          "name": "",
          "type": "uint256"
        }
      ],
      "name": "requestToDriver",
      "outputs": [
        {
          "internalType": "address",
          "name": "",
          "type": "address"
        }
      ],
      "stateMutability": "view",
      "type": "function"
    },
    {
      "inputs": [
        {
          "internalType": "uint256",
          "name": "",
          "type": "uint256"
        }
      ],
      "name": "requests",
      "outputs": [
        {
          "internalType": "uint256",
          "name": "id",
          "type": "uint256"
        },
        {
          "internalType": "address",
          "name": "user",
          "type": "address"
        },
        {
          "internalType": "string",
          "name": "description",
          "type": "string"
        },
        {
          "internalType": "string",
          "name": "pickupLocation",
          "type": "string"
        },
        {
          "internalType": "string",
          "name": "dropoffLocation",
          "type": "string"
        },
        {
          "internalType": "uint256",
          "name": "amount",
          "type": "uint256"
        },
        {
          "internalType": "bool",
          "name": "completed",
          "type": "bool"
        },
        {
          "internalType": "bool",
          "name": "cancelled",
          "type": "bool"
        },
        {
          "internalType": "uint256",
          "name": "createdAt",
          "type": "uint256"
        }
      ],
      "stateMutability": "view",
      "type": "function"
    },
    {
      "inputs": [],
      "name": "stablecoin",
      "outputs": [
        {
          "internalType": "contract IERC20",
          "name": "",
          "type": "address"
        }
      ],
      "stateMutability": "view",
      "type": "function"
    },
    {
      "inputs": [
        {
          "internalType": "uint256",
          "name": "_requestId",
          "type": "uint256"
        },
        {
          "internalType": "string",
          "name": "_description",
          "type": "string"
        },
        {
          "internalType": "string",
          "name": "_pickupLocation",
          "type": "string"
        },
        {
          "internalType": "string",
          "name": "_dropoffLocation",
          "type": "string"
        },
        {
          "internalType": "uint256",
          "name": "_newAmount",
          "type": "uint256"
        }
      ],
      "name": "updateDeliveryRequest",
      "outputs": [],
      "stateMutability": "nonpayable",
      "type": "function"
    },
    {
      "inputs": [
        {
          "internalType": "uint256",
          "name": "",
          "type": "uint256"
        }
      ],
      "name": "userConfirmed",
      "outputs": [
        {
          "internalType": "bool",
          "name": "",
          "type": "bool"
        }
      ],
      "stateMutability": "view",
      "type": "function"
    }
  ],
  "bytecode": "0x60c0346100bb57601f611abb38819003918201601f19168301916001600160401b038311848410176100c05780849260409485528339810103126100bb578051906001600160a01b03821682036100bb5760200151906001600160a01b03821682036100bb57600160005560805260a0526040516119e490816100d78239608051818181610111015281816102ca01528181610e3501528181610fef015281816112f101526117c3015260a051818181610c050152610d130152f35b600080fd5b634e487b7160e01b600052604160045260246000fdfe608080604052600436101561001357600080fd5b60003560e01c9081630f979c281461146b5750806316155e241461134d578063295c72bb1461131c5780632ca488b714610e9f5780633015394c14610d5e5780633d18651e14610d425780633dc3861514610b3157806340c6092314610cfd5780634ba1f09814610b655780636748754114610b3157806381d12c5814610a5e5780638740ca8014610a41578063973a814e14610a23578063c13a5cfd146108df578063c58343ef1461075b578063e1c99d1b14610723578063e41e4c0714610230578063e4c12fdf146101ff578063e8c1e76f146101455763e9cbd822146100fb57600080fd5b34610140576000366003190112610140576040517f00000000000000000000000000000000000000000000000000000000000000006001600160a01b03168152602090f35b600080fd5b34610140576000366003190112610140576040518060206006549283815201809260066000527ff652222313e28459528d920b65115c16c04f3efc82aaedc97be59f3f377c0d3f9060005b8181106101e957505050816101a6910382611535565b6040519182916020830190602084525180915260408301919060005b8181106101d0575050500390f35b82518452859450602093840193909201916001016101c2565b8254845260209093019260019283019201610190565b34610140576020366003190112610140576004356000526004602052602060ff604060002054166040519015158152f35b34610140576080366003190112610140576004356001600160401b038111610140576102609036906004016114b2565b906024356001600160401b038111610140576102809036906004016114b2565b926044356001600160401b038111610140576102a09036906004016114b2565b9290606435916102ae611812565b600a8310610712576103e86006541015610701576102ee8330337f0000000000000000000000000000000000000000000000000000000000000000611874565b60015460001981146106eb5760010194856001556103496040519361031285611519565b87855261033a602086019433865261032b368a8d6116fa565b9b604088019c8d5236916116fa565b926060860193845236916116fa565b976080840198895260a0840185815260c08501926000845260e0860192600084526101008701954287528a600052600260205260406000209751885560018060a01b03905116600188019060018060a01b03166bffffffffffffffffffffffff60a01b8254161790556002870190518051906001600160401b03821161057f576103dd826103d785546114df565b85611679565b602090601f83116001146106845761040e929160009183610679575b50508160011b916000199060031b1c19161790565b90555b51805160038701916001600160401b03821161057f57610435826103d785546114df565b602090601f8311600114610612576104659291600091836105955750508160011b916000199060031b1c19161790565b90555b600485019951998a516001600160401b03811161057f576104938161048d84546114df565b84611679565b6020601f82116001146105a05790806104ca926007999a9b9c9d9e6000926105955750508160011b916000199060031b1c19161790565b90555b516005860155600685019151151560ff8019845416911617825551151561ff0082549160081b169061ff00191617905551910155600654916801000000000000000083101561057f576105648461054b8560017f5a0fbb51489332ea302756bf6f2f7aeb1907708caf26da6086fd68a676757c23970160065561163b565b90919082549060031b91821b91600019901b1916179055565b6105756040519283923397846116cb565b0390a36001600055005b634e487b7160e01b600052604160045260246000fd5b015190508e806103f9565b601f1982169c83600052816000209d60005b8181106105f55750916007999a9b9c9d9e918460019594106105dc575b505050811b0190556104cd565b015160001960f88460031b161c191690558d80806105cf565b919e8f60016020928684930151815501940192019e91929e6105b2565b90601f1983169184600052816000209260005b8181106106615750908460019594939210610648575b505050811b019055610468565b015160001960f88460031b161c191690558d808061063b565b92936020600181928786015181550195019301610625565b015190508f806103f9565b90601f1983169184600052816000209260005b8181106106d357509084600195949392106106ba575b505050811b019055610411565b015160001960f88460031b161c191690558e80806106ad565b92936020600181928786015181550195019301610697565b634e487b7160e01b600052601160045260246000fd5b6389797d9960e01b60005260046000fd5b632ca2f52b60e11b60005260046000fd5b34610140576020366003190112610140576004356006548110156101405761074c60209161163b565b90549060031b1c604051908152f35b3461014057602036600319011261014057600061010060405161077d81611519565b82815282602082015260606040820152606080820152606060808201528260a08201528260c08201528260e08201520152600435600052600260205260406000206040516107ca81611519565b8154815260018201546001600160a01b031660208201908152916107f060028201611556565b6040830190815261080360038301611556565b6060840190815261081660048401611556565b92608085019384526108bc60058201549460a087019586526108a9600684015494610896600760c08b019660ff89161515885260ff60e08d019960081c16151589520154976101008b019889526040519b8c9b60208d525160208d015260018060a01b0390511660408c01525161012060608c01526101408b01906115fa565b9051898203601f190160808b01526115fa565b9051878203601f190160a08901526115fa565b935160c086015251151560e0850152511515610100840152516101208301520390f35b34610140576020366003190112610140576004356000818152600260205260409020600101546001600160a01b031615610a12576000818152600360205260409020546001600160a01b03163303610a015780600052600260205260ff600660406000200154166109f05780600052600260205260ff60066040600020015460081c166109df5780600052600560205260ff604060002054166109ce57806109cc9160005260056020526040600020600160ff1982541617905560405160008152817f4e98168ee01f9ba12c4872c54973ff61e5fe06c7d7edf27903d41cf47830a64660203393a3611740565b005b635f8a9c0b60e01b60005260046000fd5b6318e1e8fb60e31b60005260046000fd5b63fb77637960e01b60005260046000fd5b6322d471a360e11b60005260046000fd5b632589d98f60e11b60005260046000fd5b34610140576000366003190112610140576020600154604051908152f35b346101405760003660031901126101405760206040516103e88152f35b346101405760203660031901126101405760043560005260026020526040600020805460018060a01b0360018301541691610a9b60028201611556565b60ff610aa960038401611556565b92610b0c610ab960048301611556565b610afe600584015496610af060076006870154960154976040519b8c9b8c5260208c015261012060408c01526101208b01906115fa565b9089820360608b01526115fa565b9087820360808901526115fa565b9360a0860152818116151560c086015260081c16151560e08401526101008301520390f35b34610140576020366003190112610140576004356000526003602052602060018060a01b0360406000205416604051908152f35b34610140576020366003190112610140576004356000818152600260205260409020600101546001600160a01b031615610a12576000818152600360205260409020546001600160a01b0316610cec5780600052600260205260ff600660406000200154166109f05780600052600260205260ff60066040600020015460081c166109df57604051632eac9c5b60e01b81523360048201526020816024817f00000000000000000000000000000000000000000000000000000000000000006001600160a01b03165afa908115610ce057600091610c9e575b5015610c8d57600081815260036020526040812080546001600160a01b0319163390811790915591907fa74a28866064b16e695ebbf53f8b0f9aa0bb93885dbbcc373004f1a052cc42489080a3005b63eb630b4b60e01b60005260046000fd5b6020813d602011610cd8575b81610cb760209383611535565b81010312610cd45751908115158203610cd1575082610c3e565b80fd5b5080fd5b3d9150610caa565b6040513d6000823e3d90fd5b639f80515760e01b60005260046000fd5b34610140576000366003190112610140576040517f00000000000000000000000000000000000000000000000000000000000000006001600160a01b03168152602090f35b34610140576000366003190112610140576020604051600a8152f35b34610140576020366003190112610140576004356000818152600260205260409020600101546001600160a01b031615610a12576000818152600260205260409020600101546001600160a01b03163303610e8e576000818152600360205260409020546001600160a01b0316610cec5780600052600260205260ff600660406000200154166109f05780600052600260205260ff60066040600020015460081c166109df57610e0c611812565b806000526002602052610e59600560406000206006810161010061ff00198254161790550154337f0000000000000000000000000000000000000000000000000000000000000000611834565b610e62816118b8565b7fee243f878b7fc2f54e934ca33783d4395d42bc07612e2bd4b8e0e178639f7a28600080a26001600055005b63517907dd60e01b60005260046000fd5b346101405760a0366003190112610140576004356024356001600160401b03811161014057610ed29036906004016114b2565b6044929192356001600160401b03811161014057610ef49036906004016114b2565b6064949194356001600160401b03811161014057610f169036906004016114b2565b60008681526002602052604090206001015460843597906001600160a01b031615610a12576000878152600260205260409020600101546001600160a01b03163303610e8e576000878152600360205260409020546001600160a01b0316610cec5786600052600260205260ff600660406000200154166109f05786600052600260205260ff60066040600020015460081c166109df57610fb5611812565b600a881061071257866000526002602052604060002090600582019485548a8181116000146112d15761101391610feb9161166c565b30337f0000000000000000000000000000000000000000000000000000000000000000611874565b600283016001600160401b03891161057f576110398961103383546114df565b83611679565b600089601f811160011461126d578061106892600091611262575b508160011b916000199060031b1c19161790565b90555b60038301916001600160401b03821161057f5761108c826103d785546114df565b600090601f83116001146111fa5791806110c19260049695946000926111ef5750508160011b916000199060031b1c19161790565b90555b01916001600160401b03821161057f576110e2826103d785546114df565b600090601f8311600114611162579261113d838a959461114d97947f4bc513a36511c06026107a2c2360774b141c59232fd0d761cc39e75ead2153679b9c966000926111575750508160011b916000199060031b1c19161790565b90555b55604051938493846116cb565b0390a26001600055005b013590508c806103f9565b8382526020822091601f198416815b8181106111d757509361114d96938b9693600193837f4bc513a36511c06026107a2c2360774b141c59232fd0d761cc39e75ead2153679d9e98106111bd575b505050811b019055611140565b0135600019600384901b60f8161c191690558b80806111b0565b91936020600181928787013581550195019201611171565b013590508d806103f9565b8382526020822091601f198416815b81811061124a575091600193918560049897969410611230575b505050811b0190556110c4565b0135600019600384901b60f8161c191690558c8080611223565b91936020600181928787013581550195019201611209565b90508a01358e611054565b5081815260208120908a601f198116825b8c8282106112b75750501061129d575b5050600189811b01905561106b565b89013560001960038c901b60f8161c191690558b8061128e565b84013585556001909401936020938401938e93500161127e565b908082106112e1575b5050611013565b611315916112ee9161166c565b337f0000000000000000000000000000000000000000000000000000000000000000611834565b898b6112da565b34610140576020366003190112610140576004356000526005602052602060ff604060002054166040519015158152f35b34610140576020366003190112610140576004356000818152600260205260409020600101546001600160a01b031615610a12576000818152600260205260409020600101546001600160a01b03163303610e8e576000818152600360205260409020546001600160a01b03161561145a5780600052600260205260ff600660406000200154166109f05780600052600260205260ff60066040600020015460081c166109df5780600052600460205260ff604060002054166109ce57806109cc9160005260046020526040600020600160ff1982541617905560405160018152817f4e98168ee01f9ba12c4872c54973ff61e5fe06c7d7edf27903d41cf47830a64660203393a3611740565b63f34ca27f60e01b60005260046000fd5b346101405760203660031901126101405760409060043580600052600460205260ff83600020541690600052600560205260ff836000205416901515825215156020820152f35b9181601f84011215610140578235916001600160401b038311610140576020838186019501011161014057565b90600182811c9216801561150f575b60208310146114f957565b634e487b7160e01b600052602260045260246000fd5b91607f16916114ee565b61012081019081106001600160401b0382111761057f57604052565b90601f801991011681019081106001600160401b0382111761057f57604052565b906040519182600082549261156a846114df565b80845293600181169081156115d85750600114611591575b5061158f92500383611535565b565b90506000929192526020600020906000915b8183106115bc57505090602061158f9282010138611582565b60209193508060019154838589010152019101909184926115a3565b90506020925061158f94915060ff191682840152151560051b82010138611582565b919082519283825260005b848110611626575050826000602080949584010152601f8019910116010190565b80602080928401015182828601015201611605565b60065481101561165657600660005260206000200190600090565b634e487b7160e01b600052603260045260246000fd5b919082039182116106eb57565b601f821161168657505050565b6000526020600020906020601f840160051c830193106116c1575b601f0160051c01905b8181106116b5575050565b600081556001016116aa565b90915081906116a1565b9392918060609160209360408852816040890152838801376000828288010152601f8019910116850101930152565b9291926001600160401b03821161057f5760405191611723601f8201601f191660200184611535565b829481845281830111610140578281602093846000960137010152565b80600052600460205260ff60406000205416806117fa575b61175f5750565b80600052600260205260406000209060068201600160ff198254161790558060005260036020527fb4cf9c343d4dcecc5cb7f5c9b99ed7ac1fe8a8aaa0405651bde60d6a03500c4b6020600560018060a01b036040600020541694016117e78154867f0000000000000000000000000000000000000000000000000000000000000000611834565b6117f0846118b8565b54604051908152a3565b5080600052600560205260ff60406000205416611758565b600260005414611823576002600055565b633ee5aeb560e01b60005260046000fd5b60405163a9059cbb60e01b60208201526001600160a01b03909216602483015260448083019390935291815261158f9161186f606483611535565b611953565b6040516323b872dd60e01b60208201526001600160a01b03928316602482015292909116604483015260648083019390935291815261158f9161186f608483611535565b60005b6006548082101561194e57826118d08361163b565b90549060031b1c146118e557506001016118bb565b6000198101925082116106eb5761054b61190161190e9361163b565b90549060031b1c9161163b565b600654801561193857600019016119248161163b565b8154906000199060031b1b19169055600655565b634e487b7160e01b600052603160045260246000fd5b505050565b906000602091828151910182855af115610ce0576000513d6119a557506001600160a01b0381163b155b6119845750565b635274afe760e01b60009081526001600160a01b0391909116600452602490fd5b6001141561197d56fea2646970667358221220844dc91fc1a2b4ee6d53e3ec1e5a67966c9fd278e50fa6a0daf96742b42484e464736f6c634300081c0033",
  "linkReferences": {},
  "deployedLinkReferences": {}
}