{
  "_format": "hh-sol-artifact-1",
  "contractName": "MockStablecoin",
  "sourceName": "contracts/MockStableCoin.sol",
  "abi": [
    {
      "inputs": [],
      "stateMutability": "nonpayable",
      "type": "constructor"
    },
    {
      "inputs": [
        {
          "internalType": "address",
          "name": "spender",
          "type": "address"
        },
        {
          "internalType": "uint256",
          "name": "allowance",
          "type": "uint256"
        },
        {
          "internalType": "uint256",
          "name": "needed",
          "type": "uint256"
        }
      ],
      "name": "ERC20InsufficientAllowance",
      "type": "error"
    },
    {
      "inputs": [
        {
          "internalType": "address",
          "name": "sender",
          "type": "address"
        },
        {
          "internalType": "uint256",
          "name": "balance",
          "type": "uint256"
        },
        {
          "internalType": "uint256",
          "name": "needed",
          "type": "uint256"
        }
      ],
      "name": "ERC20InsufficientBalance",
      "type": "error"
    },
    {
      "inputs": [
        {
          "internalType": "address",
          "name": "approver",
          "type": "address"
        }
      ],
      "name": "ERC20InvalidApprover",
      "type": "error"
    },
    {
      "inputs": [
        {
          "internalType": "address",
          "name": "receiver",
          "type": "address"
        }
      ],
      "name": "ERC20InvalidReceiver",
      "type": "error"
    },
    {
      "inputs": [
        {
          "internalType": "address",
          "name": "sender",
          "type": "address"
        }
      ],
      "name": "ERC20InvalidSender",
      "type": "error"
    },
    {
      "inputs": [
        {
          "internalType": "address",
          "name": "spender",
          "type": "address"
        }
      ],
      "name": "ERC20InvalidSpender",
      "type": "error"
    },
    {
      "inputs": [
        {
          "internalType": "address",
          "name": "owner",
          "type": "address"
        }
      ],
      "name": "OwnableInvalidOwner",
      "type": "error"
    },
    {
      "inputs": [
        {
          "internalType": "address",
          "name": "account",
          "type": "address"
        }
      ],
      "name": "OwnableUnauthorizedAccount",
      "type": "error"
    },
    {
      "anonymous": false,
      "inputs": [
        {
          "indexed": true,
          "internalType": "address",
          "name": "owner",
          "type": "address"
        },
        {
          "indexed": true,
          "internalType": "address",
          "name": "spender",
          "type": "address"
        },
        {
          "indexed": false,
          "internalType": "uint256",
          "name": "value",
          "type": "uint256"
        }
      ],
      "name": "Approval",
      "type": "event"
    },
    {
      "anonymous": false,
      "inputs": [
        {
          "indexed": true,
          "internalType": "address",
          "name": "previousOwner",
          "type": "address"
        },
        {
          "indexed": true,
          "internalType": "address",
          "name": "newOwner",
          "type": "address"
        }
      ],
      "name": "OwnershipTransferred",
      "type": "event"
    },
    {
      "anonymous": false,
      "inputs": [
        {
          "indexed": true,
          "internalType": "address",
          "name": "to",
          "type": "address"
        },
        {
          "indexed": false,
          "internalType": "uint256",
          "name": "amount",
          "type": "uint256"
        }
      ],
      "name": "TokensMinted",
      "type": "event"
    },
    {
      "anonymous": false,
      "inputs": [
        {
          "indexed": true,
          "internalType": "address",
          "name": "from",
          "type": "address"
        },
        {
          "indexed": true,
          "internalType": "address",
          "name": "to",
          "type": "address"
        },
        {
          "indexed": false,
          "internalType": "uint256",
          "name": "value",
          "type": "uint256"
        }
      ],
      "name": "Transfer",
      "type": "event"
    },
    {
      "inputs": [],
      "name": "MAX_SUPPLY",
      "outputs": [
        {
          "internalType": "uint256",
          "name": "",
          "type": "uint256"
        }
      ],
      "stateMutability": "view",
      "type": "function"
    },
    {
      "inputs": [
        {
          "internalType": "address",
          "name": "owner",
          "type": "address"
        },
        {
          "internalType": "address",
          "name": "spender",
          "type": "address"
        }
      ],
      "name": "allowance",
      "outputs": [
        {
          "internalType": "uint256",
          "name": "",
          "type": "uint256"
        }
      ],
      "stateMutability": "view",
      "type": "function"
    },
    {
      "inputs": [
        {
          "internalType": "address",
          "name": "spender",
          "type": "address"
        },
        {
          "internalType": "uint256",
          "name": "value",
          "type": "uint256"
        }
      ],
      "name": "approve",
      "outputs": [
        {
          "internalType": "bool",
          "name": "",
          "type": "bool"
        }
      ],
      "stateMutability": "nonpayable",
      "type": "function"
    },
    {
      "inputs": [
        {
          "internalType": "address",
          "name": "account",
          "type": "address"
        }
      ],
      "name": "balanceOf",
      "outputs": [
        {
          "internalType": "uint256",
          "name": "",
          "type": "uint256"
        }
      ],
      "stateMutability": "view",
      "type": "function"
    },
    {
      "inputs": [],
      "name": "decimals",
      "outputs": [
        {
          "internalType": "uint8",
          "name": "",
          "type": "uint8"
        }
      ],
      "stateMutability": "view",
      "type": "function"
    },
    {
      "inputs": [
        {
          "internalType": "address",
          "name": "to",
          "type": "address"
        },
        {
          "internalType": "uint256",
          "name": "amount",
          "type": "uint256"
        }
      ],
      "name": "mint",
      "outputs": [],
      "stateMutability": "nonpayable",
      "type": "function"
    },
    {
      "inputs": [],
      "name": "name",
      "outputs": [
        {
          "internalType": "string",
          "name": "",
          "type": "string"
        }
      ],
      "stateMutability": "view",
      "type": "function"
    },
    {
      "inputs": [],
      "name": "owner",
      "outputs": [
        {
          "internalType": "address",
          "name": "",
          "type": "address"
        }
      ],
      "stateMutability": "view",
      "type": "function"
    },
    {
      "inputs": [],
      "name": "remainingSupply",
      "outputs": [
        {
          "internalType": "uint256",
          "name": "",
          "type": "uint256"
        }
      ],
      "stateMutability": "view",
      "type": "function"
    },
    {
      "inputs": [],
      "name": "renounceOwnership",
      "outputs": [],
      "stateMutability": "nonpayable",
      "type": "function"
    },
    {
      "inputs": [],
      "name": "symbol",
      "outputs": [
        {
          "internalType": "string",
          "name": "",
          "type": "string"
        }
      ],
      "stateMutability": "view",
      "type": "function"
    },
    {
      "inputs": [],
      "name": "totalMinted",
      "outputs": [
        {
          "internalType": "uint256",
          "name": "",
          "type": "uint256"
        }
      ],
      "stateMutability": "view",
      "type": "function"
    },
    {
      "inputs": [],
      "name": "totalSupply",
      "outputs": [
        {
          "internalType": "uint256",
          "name": "",
          "type": "uint256"
        }
      ],
      "stateMutability": "view",
      "type": "function"
    },
    {
      "inputs": [
        {
          "internalType": "address",
          "name": "to",
          "type": "address"
        },
        {
          "internalType": "uint256",
          "name": "value",
          "type": "uint256"
        }
      ],
      "name": "transfer",
      "outputs": [
        {
          "internalType": "bool",
          "name": "",
          "type": "bool"
        }
      ],
      "stateMutability": "nonpayable",
      "type": "function"
    },
    {
      "inputs": [
        {
          "internalType": "address",
          "name": "from",
          "type": "address"
        },
        {
          "internalType": "address",
          "name": "to",
          "type": "address"
        },
        {
          "internalType": "uint256",
          "name": "value",
          "type": "uint256"
        }
      ],
      "name": "transferFrom",
      "outputs": [
        {
          "internalType": "bool",
          "name": "",
          "type": "bool"
        }
      ],
      "stateMutability": "nonpayable",
      "type": "function"
    },
    {
      "inputs": [
        {
          "internalType": "address",
          "name": "newOwner",
          "type": "address"
        }
      ],
      "name": "transferOwnership",
      "outputs": [],
      "stateMutability": "nonpayable",
      "type": "function"
    }
  ],
  "bytecode": "0x60806040523461041c57604080519081016001600160401b0381118282101761032757604090815260098252684d6f636b205553444360b81b602083015280519081016001600160401b038111828210176103275760405260058152646d5553444360d81b602082015281516001600160401b03811161032757600354600181811c91168015610412575b602082101461030757601f81116103ad575b50602092601f8211600114610348579281929360009261033d575b50508160011b916000199060031b1c1916176003555b80516001600160401b03811161032757600454600181811c9116801561031d575b602082101461030757601f81116102a2575b50602091601f821160011461023e57918192600092610233575b50508160011b916000199060031b1c1916176004555b331561021d5760058054336001600160a01b0319821681179092556001600160a01b03167f8be0079c531659141344cd1fd0a4f28419497f9722a3daafe3b4186f6b6457e0600080a3600060025469d3c21bcecceda100000081018091116102095760025550336000526000602052604060002069d3c21bcecceda1000000815401905560405169d3c21bcecceda1000000815260007fddf252ad1be2c89b69c2b068fc378daa952ba7f163c4a11628f55a4df523b3ef60203393a369d3c21bcecceda1000000600655604051610a6d90816104228239f35b634e487b7160e01b82526011600452602482fd5b631e4fbdf760e01b600052600060045260246000fd5b01519050388061011a565b601f198216926004600052806000209160005b85811061028a57508360019510610271575b505050811b01600455610130565b015160001960f88460031b161c19169055388080610263565b91926020600181928685015181550194019201610251565b60046000527f8a35acfbc15ff81a39ae7d344fd709f28e8600b4aa8c65c6b64bfe7fe36bd19b601f830160051c810191602084106102fd575b601f0160051c01905b8181106102f15750610100565b600081556001016102e4565b90915081906102db565b634e487b7160e01b600052602260045260246000fd5b90607f16906100ee565b634e487b7160e01b600052604160045260246000fd5b0151905038806100b7565b601f198216936003600052806000209160005b868110610395575083600195961061037c575b505050811b016003556100cd565b015160001960f88460031b161c1916905538808061036e565b9192602060018192868501518155019401920161035b565b60036000527fc2575a0e9e593c00f959f8c92f12db2869c3395a3b0502d05e2516446f71f85b601f830160051c81019160208410610408575b601f0160051c01905b8181106103fc575061009c565b600081556001016103ef565b90915081906103e6565b90607f169061008a565b600080fdfe608080604052600436101561001357600080fd5b60003560e01c90816306fdde03146107f457508063095ea7b31461076e57806318160ddd1461075057806323b872dd14610663578063313ce5671461064757806332cb6b0c1461062157806340c10f191461043357806370a08231146103f9578063715018a61461039c5780638da5cb5b1461037357806395d89b4114610252578063a2309ff814610234578063a9059cbb14610203578063da0239a6146101af578063dd62ed3e1461015e5763f2fde38b146100cf57600080fd5b34610159576020366003190112610159576100e8610910565b6100f0610a0e565b6001600160a01b0316801561014357600580546001600160a01b0319811683179091556001600160a01b03167f8be0079c531659141344cd1fd0a4f28419497f9722a3daafe3b4186f6b6457e0600080a3005b631e4fbdf760e01b600052600060045260246000fd5b600080fd5b3461015957604036600319011261015957610177610910565b61017f610926565b6001600160a01b039182166000908152600160209081526040808320949093168252928352819020549051908152f35b34610159576000366003190112610159576006546a52b7d2dcc80cd2e4000000036a52b7d2dcc80cd2e400000081116101ed57602090604051908152f35b634e487b7160e01b600052601160045260246000fd5b346101595760403660031901126101595761022961021f610910565b6024359033610949565b602060405160018152f35b34610159576000366003190112610159576020600654604051908152f35b346101595760003660031901126101595760405160006004548060011c90600181168015610369575b6020831081146103555782855290811561033957506001146102e2575b50819003601f01601f191681019067ffffffffffffffff8211818310176102cc576102c8829182604052826108c7565b0390f35b634e487b7160e01b600052604160045260246000fd5b905060046000527f8a35acfbc15ff81a39ae7d344fd709f28e8600b4aa8c65c6b64bfe7fe36bd19b6000905b82821061032357506020915082010182610298565b600181602092548385880101520191019061030e565b90506020925060ff191682840152151560051b82010182610298565b634e487b7160e01b84526022600452602484fd5b91607f169161027b565b34610159576000366003190112610159576005546040516001600160a01b039091168152602090f35b34610159576000366003190112610159576103b5610a0e565b600580546001600160a01b031981169091556000906001600160a01b03167f8be0079c531659141344cd1fd0a4f28419497f9722a3daafe3b4186f6b6457e08280a3005b34610159576020366003190112610159576001600160a01b0361041a610910565b1660005260006020526020604060002054604051908152f35b346101595760403660031901126101595761044c610910565b60243590610458610a0e565b6001600160a01b031680156105d0578115610576576a52b7d2dcc80cd2e40000006104858360065461093c565b11610526577f3f2c9d57c068687834f0de942a9babb9e5acab57d516d3480a3c16ee165a427360206000936104bc8160025461093c565b600255836105115780600254036002555b83857fddf252ad1be2c89b69c2b068fc378daa952ba7f163c4a11628f55a4df523b3ef84604051858152a36105048160065461093c565b600655604051908152a280f35b838552848252604085208181540190556104cd565b60405162461bcd60e51b815260206004820152602260248201527f4d6f636b537461626c65636f696e3a2065786365656473206d617820737570706044820152616c7960f01b6064820152608490fd5b60405162461bcd60e51b815260206004820152602c60248201527f4d6f636b537461626c65636f696e3a206d696e7420616d6f756e74206d75737460448201526b20626520706f73697469766560a01b6064820152608490fd5b60405162461bcd60e51b8152602060048201526024808201527f4d6f636b537461626c65636f696e3a206d696e7420746f207a65726f206164646044820152637265737360e01b6064820152608490fd5b346101595760003660031901126101595760206040516a52b7d2dcc80cd2e40000008152f35b3461015957600036600319011261015957602060405160128152f35b346101595760603660031901126101595761067c610910565b610684610926565b6001600160a01b03821660008181526001602090815260408083203384529091529020549092604435929160001981106106c4575b506102299350610949565b83811061073357841561071d57331561070757610229946000526001602052604060002060018060a01b03331660005260205283604060002091039055846106b9565b634a1406b160e11b600052600060045260246000fd5b63e602df0560e01b600052600060045260246000fd5b8390637dc7a0d960e11b6000523360045260245260445260646000fd5b34610159576000366003190112610159576020600254604051908152f35b3461015957604036600319011261015957610787610910565b60243590331561071d576001600160a01b031690811561070757336000526001602052604060002082600052602052806040600020556040519081527f8c5be1e5ebec7d5bd14f71427d1e84f3dd0314c0f7b2291e5b200ac8c7c3b92560203392a3602060405160018152f35b346101595760003660031901126101595760006003548060011c906001811680156108bd575b6020831081146103555782855290811561033957506001146108665750819003601f01601f191681019067ffffffffffffffff8211818310176102cc576102c8829182604052826108c7565b905060036000527fc2575a0e9e593c00f959f8c92f12db2869c3395a3b0502d05e2516446f71f85b6000905b8282106108a757506020915082010182610298565b6001816020925483858801015201910190610892565b91607f169161081a565b91909160208152825180602083015260005b8181106108fa575060409293506000838284010152601f8019910116010190565b80602080928701015160408286010152016108d9565b600435906001600160a01b038216820361015957565b602435906001600160a01b038216820361015957565b919082018092116101ed57565b6001600160a01b03169081156109f8576001600160a01b03169182156109e25760008281528060205260408120548281106109c85791604082827fddf252ad1be2c89b69c2b068fc378daa952ba7f163c4a11628f55a4df523b3ef958760209652828652038282205586815280845220818154019055604051908152a3565b916064928463391434e360e21b8452600452602452604452fd5b63ec442f0560e01b600052600060045260246000fd5b634b637e8f60e11b600052600060045260246000fd5b6005546001600160a01b03163303610a2257565b63118cdaa760e01b6000523360045260246000fdfea264697066735822122062276fb2ce473ab1ef656814506030399c7b05bf68b78f3fbc0763d49c89526c64736f6c634300081c0033",
  "linkReferences": {},
  "deployedLinkReferences": {}
}