{
  "_format": "hh-sol-artifact-1",
  "contractName": "DriverRegistry",
  "sourceName": "contracts/DriverRegistry.sol",
  "abi": [
    {
      "inputs": [],
      "name": "DriverAlreadyRegistered",
      "type": "error"
    },
    {
      "inputs": [],
      "name": "DriverNotRegistered",
      "type": "error"
    },
    {
      "anonymous": false,
      "inputs": [
        {
          "indexed": true,
          "internalType": "uint256",
          "name": "companyId",
          "type": "uint256"
        },
        {
          "indexed": false,
          "internalType": "uint256",
          "name": "totalDeliveries",
          "type": "uint256"
        },
        {
          "indexed": false,
          "internalType": "uint256",
          "name": "rating",
          "type": "uint256"
        }
      ],
      "name": "CompanyStatsUpdated",
      "type": "event"
    },
    {
      "anonymous": false,
      "inputs": [
        {
          "indexed": true,
          "internalType": "address",
          "name": "driver",
          "type": "address"
        }
      ],
      "name": "DriverRegistered",
      "type": "event"
    },
    {
      "anonymous": false,
      "inputs": [
        {
          "indexed": true,
          "internalType": "address",
          "name": "driver",
          "type": "address"
        },
        {
          "indexed": false,
          "internalType": "bool",
          "name": "available",
          "type": "bool"
        }
      ],
      "name": "DriverStatusChanged",
      "type": "event"
    },
    {
      "inputs": [
        {
          "internalType": "address",
          "name": "",
          "type": "address"
        }
      ],
      "name": "driverAvailable",
      "outputs": [
        {
          "internalType": "bool",
          "name": "",
          "type": "bool"
        }
      ],
      "stateMutability": "view",
      "type": "function"
    },
    {
      "inputs": [
        {
          "internalType": "uint256",
          "name": "",
          "type": "uint256"
        }
      ],
      "name": "driverList",
      "outputs": [
        {
          "internalType": "address",
          "name": "",
          "type": "address"
        }
      ],
      "stateMutability": "view",
      "type": "function"
    },
    {
      "inputs": [
        {
          "internalType": "address",
          "name": "",
          "type": "address"
        }
      ],
      "name": "driverRating",
      "outputs": [
        {
          "internalType": "uint256",
          "name": "",
          "type": "uint256"
        }
      ],
      "stateMutability": "view",
      "type": "function"
    },
    {
      "inputs": [],
      "name": "getAllDrivers",
      "outputs": [
        {
          "internalType": "address[]",
          "name": "",
          "type": "address[]"
        }
      ],
      "stateMutability": "view",
      "type": "function"
    },
    {
      "inputs": [],
      "name": "getAvailableDrivers",
      "outputs": [
        {
          "internalType": "address[]",
          "name": "",
          "type": "address[]"
        }
      ],
      "stateMutability": "view",
      "type": "function"
    },
    {
      "inputs": [],
      "name": "getDriverCount",
      "outputs": [
        {
          "internalType": "uint256",
          "name": "",
          "type": "uint256"
        }
      ],
      "stateMutability": "view",
      "type": "function"
    },
    {
      "inputs": [
        {
          "internalType": "address",
          "name": "_driver",
          "type": "address"
        }
      ],
      "name": "getDriverStats",
      "outputs": [
        {
          "internalType": "uint256",
          "name": "deliveries",
          "type": "uint256"
        },
        {
          "internalType": "uint256",
          "name": "rating",
          "type": "uint256"
        }
      ],
      "stateMutability": "view",
      "type": "function"
    },
    {
      "inputs": [
        {
          "internalType": "address",
          "name": "_driver",
          "type": "address"
        }
      ],
      "name": "isDriverAvailable",
      "outputs": [
        {
          "internalType": "bool",
          "name": "",
          "type": "bool"
        }
      ],
      "stateMutability": "view",
      "type": "function"
    },
    {
      "inputs": [
        {
          "internalType": "address",
          "name": "_driver",
          "type": "address"
        }
      ],
      "name": "isDriverRegistered",
      "outputs": [
        {
          "internalType": "bool",
          "name": "",
          "type": "bool"
        }
      ],
      "stateMutability": "view",
      "type": "function"
    },
    {
      "inputs": [],
      "name": "registerDrivers",
      "outputs": [],
      "stateMutability": "nonpayable",
      "type": "function"
    },
    {
      "inputs": [
        {
          "internalType": "address",
          "name": "",
          "type": "address"
        }
      ],
      "name": "registeredDrivers",
      "outputs": [
        {
          "internalType": "bool",
          "name": "",
          "type": "bool"
        }
      ],
      "stateMutability": "view",
      "type": "function"
    },
    {
      "inputs": [
        {
          "internalType": "bool",
          "name": "_available",
          "type": "bool"
        }
      ],
      "name": "setDriversAvailability",
      "outputs": [],
      "stateMutability": "nonpayable",
      "type": "function"
    },
    {
      "inputs": [
        {
          "internalType": "address",
          "name": "",
          "type": "address"
        }
      ],
      "name": "totalDeliveries",
      "outputs": [
        {
          "internalType": "uint256",
          "name": "",
          "type": "uint256"
        }
      ],
      "stateMutability": "view",
      "type": "function"
    },
    {
      "inputs": [
        {
          "internalType": "address",
          "name": "_driver",
          "type": "address"
        },
        {
          "internalType": "uint256",
          "name": "_rating",
          "type": "uint256"
        }
      ],
      "name": "updateDriverStats",
      "outputs": [],
      "stateMutability": "nonpayable",
      "type": "function"
    }
  ],
  "bytecode": "0x608080604052346015576108a0908161001b8239f35b600080fdfe608080604052600436101561001357600080fd5b60003560e01c90816309e7fa35146107725750806312282cb91461066b57806320356eb3146105ed5780632be17d26146105cf5780632eac9c5b1461056f5780634c1ff7091461053557806357b6e65c146104fb5780636cbac4a81461046f57806379806bfb14610423578063811d60ac146102c457806383c812861461017e57806389e880fe1461013f57806398a3f6c6146100fd57639bb57700146100b957600080fd5b346100f85760203660031901126100f8576001600160a01b036100da6107ad565b166000526000602052602060ff604060002054166040519015158152f35b600080fd5b346100f85760203660031901126100f8576004356004548110156100f857610126602091610806565b905460405160039290921b1c6001600160a01b03168152f35b346100f85760203660031901126100f8576001600160a01b036101606107ad565b166000526001602052602060ff604060002054166040519015158152f35b346100f85760003660031901126100f8576004546000805b82811061027a57506101a781610852565b906101b56040519283610821565b8082526101c4601f1991610852565b0136602083013760009160005b8181106101ea57604051806101e685826107c3565b0390f35b6101f381610806565b60018060a01b0391549060031b1c16600052600160205260ff60406000205416610220575b6001016101d1565b9261022a84610806565b9054845160039290921b1c6001600160a01b031690821015610264578161025c91602060019460051b87010152610843565b939050610218565b634e487b7160e01b600052603260045260246000fd5b61028381610806565b60018060a01b0391549060031b1c16600052600160205260ff604060002054166102b0575b600101610196565b906102bc600191610843565b9190506102a8565b346100f85760403660031901126100f8576102dd6107ad565b6001600160a01b03166000818152602081905260409020546024359060ff16156104125781600052600260205260406000206103198154610843565b905581600052600360205260406000205482600052600260205260406000205490600182146000146103a35750508160005260036020526040600020555b8060005260026020527f42ec06fd0536d2d7a0565cca15fda03072194f09208be1c5dc0047dac3dd8d0660408060002054836000526003602052816000205482519182526020820152a2005b90916000198301918383116103fc578281029281840414901517156103fc5781018091116103fc5781156103e65782600052600360205204604060002055610357565b634e487b7160e01b600052601260045260246000fd5b634e487b7160e01b600052601160045260246000fd5b63397c3aef60e01b60005260046000fd5b346100f85760203660031901126100f85760406001600160a01b036104466107ad565b168060005260026020528160002054906000526003602052816000205482519182526020820152f35b346100f85760003660031901126100f85760405180602060045491828152019060046000527f8a35acfbc15ff81a39ae7d344fd709f28e8600b4aa8c65c6b64bfe7fe36bd19b9060005b8181106104dc576101e6856104d081870382610821565b604051918291826107c3565b82546001600160a01b03168452602090930192600192830192016104b9565b346100f85760203660031901126100f8576001600160a01b0361051c6107ad565b1660005260026020526020604060002054604051908152f35b346100f85760203660031901126100f8576001600160a01b036105566107ad565b1660005260036020526020604060002054604051908152f35b346100f85760203660031901126100f8576001600160a01b036105906107ad565b1680600052600060205260ff60406000205416806105b6575b6020906040519015158152f35b506000526001602052602060ff604060002054166105a9565b346100f85760003660031901126100f8576020600454604051908152f35b346100f85760203660031901126100f8576004358015158091036100f85733600052600060205260ff604060002054161561041257336000526001602052604060002060ff1981541660ff83161790556040519081527f4ccdb448aea6732839eebc1bb856949cccd135deea79c030314a9641c91a311460203392a2005b346100f85760003660031901126100f85733600052600060205260ff60406000205416610761573360005260006020526040600020600160ff19825416179055336000526001602052604060002060ff1981541690553360005260036020526064604060002055600454336000526005602052806040600020556801000000000000000081101561074b578060016107069201600455610806565b81546001600160a01b0360039290921b91821b1916339182901b179091557fbe5e7a1c543800c6abb49749a131598b050660d403a09b2e31318c2048c00d74600080a2005b634e487b7160e01b600052604160045260246000fd5b63ce946ee160e01b60005260046000fd5b346100f85760203660031901126100f8576020906001600160a01b036107966107ad565b166000526000825260ff6040600020541615158152f35b600435906001600160a01b03821682036100f857565b602060408183019282815284518094520192019060005b8181106107e75750505090565b82516001600160a01b03168452602093840193909201916001016107da565b60045481101561026457600460005260206000200190600090565b90601f8019910116810190811067ffffffffffffffff82111761074b57604052565b60001981146103fc5760010190565b67ffffffffffffffff811161074b5760051b6020019056fea2646970667358221220a44737eb6d076305755bb5bac4d490872e0187c4549d538c79403aaedacd4cf964736f6c634300081c0033",
  "linkReferences": {},
  "deployedLinkReferences": {}
}