{
  "contracts/DeliveryService.sol": {
    "DeliveryService": {
      "abi": [
        {
          "inputs": [
            {
              "internalType": "contract IERC20",
              "name": "_stablecoin",
              "type": "address"
            },
            {
              "internalType": "contract DriverRegistry",
              "name": "_driverRegistry",
              "type": "address"
            }
          ],
          "stateMutability": "nonpayable",
          "type": "constructor"
        },
        {
          "inputs": [],
          "name": "AlreadyConfirmed",
          "type": "error"
        },
        {
          "inputs": [],
          "name": "DriverNotAvailable",
          "type": "error"
        },
        {
          "inputs": [],
          "name": "InsufficientAmount",
          "type": "error"
        },
        {
          "inputs": [],
          "name": "MaxActiveRequestsReached",
          "type": "error"
        },
        {
          "inputs": [],
          "name": "NotAssignedDriver",
          "type": "error"
        },
        {
          "inputs": [],
          "name": "NotRequestOwner",
          "type": "error"
        },
        {
          "inputs": [],
          "name": "ReentrancyGuardReentrantCall",
          "type": "error"
        },
        {
          "inputs": [],
          "name": "RequestAlreadyAccepted",
          "type": "error"
        },
        {
          "inputs": [],
          "name": "RequestAlreadyCancelled",
          "type": "error"
        },
        {
          "inputs": [],
          "name": "RequestAlreadyCompleted",
          "type": "error"
        },
        {
          "inputs": [],
          "name": "RequestNotAccepted",
          "type": "error"
        },
        {
          "inputs": [],
          "name": "RequestNotFound",
          "type": "error"
        },
        {
          "inputs": [
            {
              "internalType": "address",
              "name": "token",
              "type": "address"
            }
          ],
          "name": "SafeERC20FailedOperation",
          "type": "error"
        },
        {
          "anonymous": false,
          "inputs": [
            {
              "indexed": true,
              "internalType": "uint256",
              "name": "requestId",
              "type": "uint256"
            },
            {
              "indexed": true,
              "internalType": "address",
              "name": "driver",
              "type": "address"
            },
            {
              "indexed": false,
              "internalType": "uint256",
              "name": "amount",
              "type": "uint256"
            }
          ],
          "name": "DeliveryCompleted",
          "type": "event"
        },
        {
          "anonymous": false,
          "inputs": [
            {
              "indexed": true,
              "internalType": "uint256",
              "name": "requestId",
              "type": "uint256"
            },
            {
              "indexed": true,
              "internalType": "address",
              "name": "confirmer",
              "type": "address"
            },
            {
              "indexed": false,
              "internalType": "bool",
              "name": "isUser",
              "type": "bool"
            }
          ],
          "name": "DeliveryConfirmed",
          "type": "event"
        },
        {
          "anonymous": false,
          "inputs": [
            {
              "indexed": true,
              "internalType": "uint256",
              "name": "requestId",
              "type": "uint256"
            },
            {
              "indexed": true,
              "internalType": "address",
              "name": "driver",
              "type": "address"
            }
          ],
          "name": "RequestAccepted",
          "type": "event"
        },
        {
          "anonymous": false,
          "inputs": [
            {
              "indexed": true,
              "internalType": "uint256",
              "name": "requestId",
              "type": "uint256"
            }
          ],
          "name": "RequestCancelled",
          "type": "event"
        },
        {
          "anonymous": false,
          "inputs": [
            {
              "indexed": true,
              "internalType": "uint256",
              "name": "requestId",
              "type": "uint256"
            },
            {
              "indexed": true,
              "internalType": "address",
              "name": "user",
              "type": "address"
            },
            {
              "indexed": false,
              "internalType": "string",
              "name": "description",
              "type": "string"
            },
            {
              "indexed": false,
              "internalType": "uint256",
              "name": "amount",
              "type": "uint256"
            }
          ],
          "name": "RequestCreated",
          "type": "event"
        },
        {
          "anonymous": false,
          "inputs": [
            {
              "indexed": true,
              "internalType": "uint256",
              "name": "requestId",
              "type": "uint256"
            },
            {
              "indexed": false,
              "internalType": "string",
              "name": "description",
              "type": "string"
            },
            {
              "indexed": false,
              "internalType": "uint256",
              "name": "amount",
              "type": "uint256"
            }
          ],
          "name": "RequestUpdated",
          "type": "event"
        },
        {
          "inputs": [],
          "name": "BASE_FEE",
          "outputs": [
            {
              "internalType": "uint256",
              "name": "",
              "type": "uint256"
            }
          ],
          "stateMutability": "view",
          "type": "function"
        },
        {
          "inputs": [],
          "name": "MAX_ACTIVE_REQUESTS",
          "outputs": [
            {
              "internalType": "uint256",
              "name": "",
              "type": "uint256"
            }
          ],
          "stateMutability": "view",
          "type": "function"
        },
        {
          "inputs": [
            {
              "internalType": "uint256",
              "name": "_requestId",
              "type": "uint256"
            }
          ],
          "name": "acceptRequest",
          "outputs": [],
          "stateMutability": "nonpayable",
          "type": "function"
        },
        {
          "inputs": [
            {
              "internalType": "uint256",
              "name": "",
              "type": "uint256"
            }
          ],
          "name": "activeRequestIds",
          "outputs": [
            {
              "internalType": "uint256",
              "name": "",
              "type": "uint256"
            }
          ],
          "stateMutability": "view",
          "type": "function"
        },
        {
          "inputs": [
            {
              "internalType": "uint256",
              "name": "_requestId",
              "type": "uint256"
            }
          ],
          "name": "cancelRequest",
          "outputs": [],
          "stateMutability": "nonpayable",
          "type": "function"
        },
        {
          "inputs": [
            {
              "internalType": "uint256",
              "name": "_requestId",
              "type": "uint256"
            }
          ],
          "name": "confirmDeliveryAsDriver",
          "outputs": [],
          "stateMutability": "nonpayable",
          "type": "function"
        },
        {
          "inputs": [
            {
              "internalType": "uint256",
              "name": "_requestId",
              "type": "uint256"
            }
          ],
          "name": "confirmDeliveryAsUser",
          "outputs": [],
          "stateMutability": "nonpayable",
          "type": "function"
        },
        {
          "inputs": [
            {
              "internalType": "string",
              "name": "_description",
              "type": "string"
            },
            {
              "internalType": "string",
              "name": "_pickupLocation",
              "type": "string"
            },
            {
              "internalType": "string",
              "name": "_dropoffLocation",
              "type": "string"
            },
            {
              "internalType": "uint256",
              "name": "_amount",
              "type": "uint256"
            }
          ],
          "name": "createDeliveryRequest",
          "outputs": [],
          "stateMutability": "nonpayable",
          "type": "function"
        },
        {
          "inputs": [
            {
              "internalType": "uint256",
              "name": "",
              "type": "uint256"
            }
          ],
          "name": "driverConfirmed",
          "outputs": [
            {
              "internalType": "bool",
              "name": "",
              "type": "bool"
            }
          ],
          "stateMutability": "view",
          "type": "function"
        },
        {
          "inputs": [],
          "name": "driverRegistry",
          "outputs": [
            {
              "internalType": "contract DriverRegistry",
              "name": "",
              "type": "address"
            }
          ],
          "stateMutability": "view",
          "type": "function"
        },
        {
          "inputs": [],
          "name": "getActiveRequests",
          "outputs": [
            {
              "internalType": "uint256[]",
              "name": "",
              "type": "uint256[]"
            }
          ],
          "stateMutability": "view",
          "type": "function"
        },
        {
          "inputs": [
            {
              "internalType": "uint256",
              "name": "_requestId",
              "type": "uint256"
            }
          ],
          "name": "getAssignedDriver",
          "outputs": [
            {
              "internalType": "address",
              "name": "",
              "type": "address"
            }
          ],
          "stateMutability": "view",
          "type": "function"
        },
        {
          "inputs": [
            {
              "internalType": "uint256",
              "name": "_requestId",
              "type": "uint256"
            }
          ],
          "name": "getConfirmationStatus",
          "outputs": [
            {
              "internalType": "bool",
              "name": "userHasConfirmed",
              "type": "bool"
            },
            {
              "internalType": "bool",
              "name": "driverHasConfirmed",
              "type": "bool"
            }
          ],
          "stateMutability": "view",
          "type": "function"
        },
        {
          "inputs": [
            {
              "internalType": "uint256",
              "name": "_requestId",
              "type": "uint256"
            }
          ],
          "name": "getRequest",
          "outputs": [
            {
              "components": [
                {
                  "internalType": "uint256",
                  "name": "id",
                  "type": "uint256"
                },
                {
                  "internalType": "address",
                  "name": "user",
                  "type": "address"
                },
                {
                  "internalType": "string",
                  "name": "description",
                  "type": "string"
                },
                {
                  "internalType": "string",
                  "name": "pickupLocation",
                  "type": "string"
                },
                {
                  "internalType": "string",
                  "name": "dropoffLocation",
                  "type": "string"
                },
                {
                  "internalType": "uint256",
                  "name": "amount",
                  "type": "uint256"
                },
                {
                  "internalType": "bool",
                  "name": "completed",
                  "type": "bool"
                },
                {
                  "internalType": "bool",
                  "name": "cancelled",
                  "type": "bool"
                },
                {
                  "internalType": "uint256",
                  "name": "createdAt",
                  "type": "uint256"
                }
              ],
              "internalType": "struct Data.DeliveryRequest",
              "name": "",
              "type": "tuple"
            }
          ],
          "stateMutability": "view",
          "type": "function"
        },
        {
          "inputs": [],
          "name": "requestCounter",
          "outputs": [
            {
              "internalType": "uint256",
              "name": "",
              "type": "uint256"
            }
          ],
          "stateMutability": "view",
          "type": "function"
        },
        {
          "inputs": [
            {
              "internalType": "uint256",
              "name": "",
              "type": "uint256"
            }
          ],
          "name": "requestToDriver",
          "outputs": [
            {
              "internalType": "address",
              "name": "",
              "type": "address"
            }
          ],
          "stateMutability": "view",
          "type": "function"
        },
        {
          "inputs": [
            {
              "internalType": "uint256",
              "name": "",
              "type": "uint256"
            }
          ],
          "name": "requests",
          "outputs": [
            {
              "internalType": "uint256",
              "name": "id",
              "type": "uint256"
            },
            {
              "internalType": "address",
              "name": "user",
              "type": "address"
            },
            {
              "internalType": "string",
              "name": "description",
              "type": "string"
            },
            {
              "internalType": "string",
              "name": "pickupLocation",
              "type": "string"
            },
            {
              "internalType": "string",
              "name": "dropoffLocation",
              "type": "string"
            },
            {
              "internalType": "uint256",
              "name": "amount",
              "type": "uint256"
            },
            {
              "internalType": "bool",
              "name": "completed",
              "type": "bool"
            },
            {
              "internalType": "bool",
              "name": "cancelled",
              "type": "bool"
            },
            {
              "internalType": "uint256",
              "name": "createdAt",
              "type": "uint256"
            }
          ],
          "stateMutability": "view",
          "type": "function"
        },
        {
          "inputs": [],
          "name": "stablecoin",
          "outputs": [
            {
              "internalType": "contract IERC20",
              "name": "",
              "type": "address"
            }
          ],
          "stateMutability": "view",
          "type": "function"
        },
        {
          "inputs": [
            {
              "internalType": "uint256",
              "name": "_requestId",
              "type": "uint256"
            },
            {
              "internalType": "string",
              "name": "_description",
              "type": "string"
            },
            {
              "internalType": "string",
              "name": "_pickupLocation",
              "type": "string"
            },
            {
              "internalType": "string",
              "name": "_dropoffLocation",
              "type": "string"
            },
            {
              "internalType": "uint256",
              "name": "_newAmount",
              "type": "uint256"
            }
          ],
          "name": "updateDeliveryRequest",
          "outputs": [],
          "stateMutability": "nonpayable",
          "type": "function"
        },
        {
          "inputs": [
            {
              "internalType": "uint256",
              "name": "",
              "type": "uint256"
            }
          ],
          "name": "userConfirmed",
          "outputs": [
            {
              "internalType": "bool",
              "name": "",
              "type": "bool"
            }
          ],
          "stateMutability": "view",
          "type": "function"
        }
      ],
      "evm": {
        "bytecode": {
          "linkReferences": {},
          "object": "60c0346100bb57601f611abb38819003918201601f19168301916001600160401b038311848410176100c05780849260409485528339810103126100bb578051906001600160a01b03821682036100bb5760200151906001600160a01b03821682036100bb57600160005560805260a0526040516119e490816100d78239608051818181610111015281816102ca01528181610e3501528181610fef015281816112f101526117c3015260a051818181610c050152610d130152f35b600080fd5b634e487b7160e01b600052604160045260246000fdfe608080604052600436101561001357600080fd5b60003560e01c9081630f979c281461146b5750806316155e241461134d578063295c72bb1461131c5780632ca488b714610e9f5780633015394c14610d5e5780633d18651e14610d425780633dc3861514610b3157806340c6092314610cfd5780634ba1f09814610b655780636748754114610b3157806381d12c5814610a5e5780638740ca8014610a41578063973a814e14610a23578063c13a5cfd146108df578063c58343ef1461075b578063e1c99d1b14610723578063e41e4c0714610230578063e4c12fdf146101ff578063e8c1e76f146101455763e9cbd822146100fb57600080fd5b34610140576000366003190112610140576040517f00000000000000000000000000000000000000000000000000000000000000006001600160a01b03168152602090f35b600080fd5b34610140576000366003190112610140576040518060206006549283815201809260066000527ff652222313e28459528d920b65115c16c04f3efc82aaedc97be59f3f377c0d3f9060005b8181106101e957505050816101a6910382611535565b6040519182916020830190602084525180915260408301919060005b8181106101d0575050500390f35b82518452859450602093840193909201916001016101c2565b8254845260209093019260019283019201610190565b34610140576020366003190112610140576004356000526004602052602060ff604060002054166040519015158152f35b34610140576080366003190112610140576004356001600160401b038111610140576102609036906004016114b2565b906024356001600160401b038111610140576102809036906004016114b2565b926044356001600160401b038111610140576102a09036906004016114b2565b9290606435916102ae611812565b600a8310610712576103e86006541015610701576102ee8330337f0000000000000000000000000000000000000000000000000000000000000000611874565b60015460001981146106eb5760010194856001556103496040519361031285611519565b87855261033a602086019433865261032b368a8d6116fa565b9b604088019c8d5236916116fa565b926060860193845236916116fa565b976080840198895260a0840185815260c08501926000845260e0860192600084526101008701954287528a600052600260205260406000209751885560018060a01b03905116600188019060018060a01b03166bffffffffffffffffffffffff60a01b8254161790556002870190518051906001600160401b03821161057f576103dd826103d785546114df565b85611679565b602090601f83116001146106845761040e929160009183610679575b50508160011b916000199060031b1c19161790565b90555b51805160038701916001600160401b03821161057f57610435826103d785546114df565b602090601f8311600114610612576104659291600091836105955750508160011b916000199060031b1c19161790565b90555b600485019951998a516001600160401b03811161057f576104938161048d84546114df565b84611679565b6020601f82116001146105a05790806104ca926007999a9b9c9d9e6000926105955750508160011b916000199060031b1c19161790565b90555b516005860155600685019151151560ff8019845416911617825551151561ff0082549160081b169061ff00191617905551910155600654916801000000000000000083101561057f576105648461054b8560017f5a0fbb51489332ea302756bf6f2f7aeb1907708caf26da6086fd68a676757c23970160065561163b565b90919082549060031b91821b91600019901b1916179055565b6105756040519283923397846116cb565b0390a36001600055005b634e487b7160e01b600052604160045260246000fd5b015190508e806103f9565b601f1982169c83600052816000209d60005b8181106105f55750916007999a9b9c9d9e918460019594106105dc575b505050811b0190556104cd565b015160001960f88460031b161c191690558d80806105cf565b919e8f60016020928684930151815501940192019e91929e6105b2565b90601f1983169184600052816000209260005b8181106106615750908460019594939210610648575b505050811b019055610468565b015160001960f88460031b161c191690558d808061063b565b92936020600181928786015181550195019301610625565b015190508f806103f9565b90601f1983169184600052816000209260005b8181106106d357509084600195949392106106ba575b505050811b019055610411565b015160001960f88460031b161c191690558e80806106ad565b92936020600181928786015181550195019301610697565b634e487b7160e01b600052601160045260246000fd5b6389797d9960e01b60005260046000fd5b632ca2f52b60e11b60005260046000fd5b34610140576020366003190112610140576004356006548110156101405761074c60209161163b565b90549060031b1c604051908152f35b3461014057602036600319011261014057600061010060405161077d81611519565b82815282602082015260606040820152606080820152606060808201528260a08201528260c08201528260e08201520152600435600052600260205260406000206040516107ca81611519565b8154815260018201546001600160a01b031660208201908152916107f060028201611556565b6040830190815261080360038301611556565b6060840190815261081660048401611556565b92608085019384526108bc60058201549460a087019586526108a9600684015494610896600760c08b019660ff89161515885260ff60e08d019960081c16151589520154976101008b019889526040519b8c9b60208d525160208d015260018060a01b0390511660408c01525161012060608c01526101408b01906115fa565b9051898203601f190160808b01526115fa565b9051878203601f190160a08901526115fa565b935160c086015251151560e0850152511515610100840152516101208301520390f35b34610140576020366003190112610140576004356000818152600260205260409020600101546001600160a01b031615610a12576000818152600360205260409020546001600160a01b03163303610a015780600052600260205260ff600660406000200154166109f05780600052600260205260ff60066040600020015460081c166109df5780600052600560205260ff604060002054166109ce57806109cc9160005260056020526040600020600160ff1982541617905560405160008152817f4e98168ee01f9ba12c4872c54973ff61e5fe06c7d7edf27903d41cf47830a64660203393a3611740565b005b635f8a9c0b60e01b60005260046000fd5b6318e1e8fb60e31b60005260046000fd5b63fb77637960e01b60005260046000fd5b6322d471a360e11b60005260046000fd5b632589d98f60e11b60005260046000fd5b34610140576000366003190112610140576020600154604051908152f35b346101405760003660031901126101405760206040516103e88152f35b346101405760203660031901126101405760043560005260026020526040600020805460018060a01b0360018301541691610a9b60028201611556565b60ff610aa960038401611556565b92610b0c610ab960048301611556565b610afe600584015496610af060076006870154960154976040519b8c9b8c5260208c015261012060408c01526101208b01906115fa565b9089820360608b01526115fa565b9087820360808901526115fa565b9360a0860152818116151560c086015260081c16151560e08401526101008301520390f35b34610140576020366003190112610140576004356000526003602052602060018060a01b0360406000205416604051908152f35b34610140576020366003190112610140576004356000818152600260205260409020600101546001600160a01b031615610a12576000818152600360205260409020546001600160a01b0316610cec5780600052600260205260ff600660406000200154166109f05780600052600260205260ff60066040600020015460081c166109df57604051632eac9c5b60e01b81523360048201526020816024817f00000000000000000000000000000000000000000000000000000000000000006001600160a01b03165afa908115610ce057600091610c9e575b5015610c8d57600081815260036020526040812080546001600160a01b0319163390811790915591907fa74a28866064b16e695ebbf53f8b0f9aa0bb93885dbbcc373004f1a052cc42489080a3005b63eb630b4b60e01b60005260046000fd5b6020813d602011610cd8575b81610cb760209383611535565b81010312610cd45751908115158203610cd1575082610c3e565b80fd5b5080fd5b3d9150610caa565b6040513d6000823e3d90fd5b639f80515760e01b60005260046000fd5b34610140576000366003190112610140576040517f00000000000000000000000000000000000000000000000000000000000000006001600160a01b03168152602090f35b34610140576000366003190112610140576020604051600a8152f35b34610140576020366003190112610140576004356000818152600260205260409020600101546001600160a01b031615610a12576000818152600260205260409020600101546001600160a01b03163303610e8e576000818152600360205260409020546001600160a01b0316610cec5780600052600260205260ff600660406000200154166109f05780600052600260205260ff60066040600020015460081c166109df57610e0c611812565b806000526002602052610e59600560406000206006810161010061ff00198254161790550154337f0000000000000000000000000000000000000000000000000000000000000000611834565b610e62816118b8565b7fee243f878b7fc2f54e934ca33783d4395d42bc07612e2bd4b8e0e178639f7a28600080a26001600055005b63517907dd60e01b60005260046000fd5b346101405760a0366003190112610140576004356024356001600160401b03811161014057610ed29036906004016114b2565b6044929192356001600160401b03811161014057610ef49036906004016114b2565b6064949194356001600160401b03811161014057610f169036906004016114b2565b60008681526002602052604090206001015460843597906001600160a01b031615610a12576000878152600260205260409020600101546001600160a01b03163303610e8e576000878152600360205260409020546001600160a01b0316610cec5786600052600260205260ff600660406000200154166109f05786600052600260205260ff60066040600020015460081c166109df57610fb5611812565b600a881061071257866000526002602052604060002090600582019485548a8181116000146112d15761101391610feb9161166c565b30337f0000000000000000000000000000000000000000000000000000000000000000611874565b600283016001600160401b03891161057f576110398961103383546114df565b83611679565b600089601f811160011461126d578061106892600091611262575b508160011b916000199060031b1c19161790565b90555b60038301916001600160401b03821161057f5761108c826103d785546114df565b600090601f83116001146111fa5791806110c19260049695946000926111ef5750508160011b916000199060031b1c19161790565b90555b01916001600160401b03821161057f576110e2826103d785546114df565b600090601f8311600114611162579261113d838a959461114d97947f4bc513a36511c06026107a2c2360774b141c59232fd0d761cc39e75ead2153679b9c966000926111575750508160011b916000199060031b1c19161790565b90555b55604051938493846116cb565b0390a26001600055005b013590508c806103f9565b8382526020822091601f198416815b8181106111d757509361114d96938b9693600193837f4bc513a36511c06026107a2c2360774b141c59232fd0d761cc39e75ead2153679d9e98106111bd575b505050811b019055611140565b0135600019600384901b60f8161c191690558b80806111b0565b91936020600181928787013581550195019201611171565b013590508d806103f9565b8382526020822091601f198416815b81811061124a575091600193918560049897969410611230575b505050811b0190556110c4565b0135600019600384901b60f8161c191690558c8080611223565b91936020600181928787013581550195019201611209565b90508a01358e611054565b5081815260208120908a601f198116825b8c8282106112b75750501061129d575b5050600189811b01905561106b565b89013560001960038c901b60f8161c191690558b8061128e565b84013585556001909401936020938401938e93500161127e565b908082106112e1575b5050611013565b611315916112ee9161166c565b337f0000000000000000000000000000000000000000000000000000000000000000611834565b898b6112da565b34610140576020366003190112610140576004356000526005602052602060ff604060002054166040519015158152f35b34610140576020366003190112610140576004356000818152600260205260409020600101546001600160a01b031615610a12576000818152600260205260409020600101546001600160a01b03163303610e8e576000818152600360205260409020546001600160a01b03161561145a5780600052600260205260ff600660406000200154166109f05780600052600260205260ff60066040600020015460081c166109df5780600052600460205260ff604060002054166109ce57806109cc9160005260046020526040600020600160ff1982541617905560405160018152817f4e98168ee01f9ba12c4872c54973ff61e5fe06c7d7edf27903d41cf47830a64660203393a3611740565b63f34ca27f60e01b60005260046000fd5b346101405760203660031901126101405760409060043580600052600460205260ff83600020541690600052600560205260ff836000205416901515825215156020820152f35b9181601f84011215610140578235916001600160401b038311610140576020838186019501011161014057565b90600182811c9216801561150f575b60208310146114f957565b634e487b7160e01b600052602260045260246000fd5b91607f16916114ee565b61012081019081106001600160401b0382111761057f57604052565b90601f801991011681019081106001600160401b0382111761057f57604052565b906040519182600082549261156a846114df565b80845293600181169081156115d85750600114611591575b5061158f92500383611535565b565b90506000929192526020600020906000915b8183106115bc57505090602061158f9282010138611582565b60209193508060019154838589010152019101909184926115a3565b90506020925061158f94915060ff191682840152151560051b82010138611582565b919082519283825260005b848110611626575050826000602080949584010152601f8019910116010190565b80602080928401015182828601015201611605565b60065481101561165657600660005260206000200190600090565b634e487b7160e01b600052603260045260246000fd5b919082039182116106eb57565b601f821161168657505050565b6000526020600020906020601f840160051c830193106116c1575b601f0160051c01905b8181106116b5575050565b600081556001016116aa565b90915081906116a1565b9392918060609160209360408852816040890152838801376000828288010152601f8019910116850101930152565b9291926001600160401b03821161057f5760405191611723601f8201601f191660200184611535565b829481845281830111610140578281602093846000960137010152565b80600052600460205260ff60406000205416806117fa575b61175f5750565b80600052600260205260406000209060068201600160ff198254161790558060005260036020527fb4cf9c343d4dcecc5cb7f5c9b99ed7ac1fe8a8aaa0405651bde60d6a03500c4b6020600560018060a01b036040600020541694016117e78154867f0000000000000000000000000000000000000000000000000000000000000000611834565b6117f0846118b8565b54604051908152a3565b5080600052600560205260ff60406000205416611758565b600260005414611823576002600055565b633ee5aeb560e01b60005260046000fd5b60405163a9059cbb60e01b60208201526001600160a01b03909216602483015260448083019390935291815261158f9161186f606483611535565b611953565b6040516323b872dd60e01b60208201526001600160a01b03928316602482015292909116604483015260648083019390935291815261158f9161186f608483611535565b60005b6006548082101561194e57826118d08361163b565b90549060031b1c146118e557506001016118bb565b6000198101925082116106eb5761054b61190161190e9361163b565b90549060031b1c9161163b565b600654801561193857600019016119248161163b565b8154906000199060031b1b19169055600655565b634e487b7160e01b600052603160045260246000fd5b505050565b906000602091828151910182855af115610ce0576000513d6119a557506001600160a01b0381163b155b6119845750565b635274afe760e01b60009081526001600160a01b0391909116600452602490fd5b6001141561197d56fea2646970667358221220844dc91fc1a2b4ee6d53e3ec1e5a67966c9fd278e50fa6a0daf96742b42484e464736f6c634300081c0033",
          "opcodes": "PUSH1 0xC0 CALLVALUE PUSH2 0xBB JUMPI PUSH1 0x1F PUSH2 0x1ABB CODESIZE DUP2 SWAP1 SUB SWAP2 DUP3 ADD PUSH1 0x1F NOT AND DUP4 ADD SWAP2 PUSH1 0x1 PUSH1 0x1 PUSH1 0x40 SHL SUB DUP4 GT DUP5 DUP5 LT OR PUSH2 0xC0 JUMPI DUP1 DUP5 SWAP3 PUSH1 0x40 SWAP5 DUP6 MSTORE DUP4 CODECOPY DUP2 ADD SUB SLT PUSH2 0xBB JUMPI DUP1 MLOAD SWAP1 PUSH1 0x1 PUSH1 0x1 PUSH1 0xA0 SHL SUB DUP3 AND DUP3 SUB PUSH2 0xBB JUMPI PUSH1 0x20 ADD MLOAD SWAP1 PUSH1 0x1 PUSH1 0x1 PUSH1 0xA0 SHL SUB DUP3 AND DUP3 SUB PUSH2 0xBB JUMPI PUSH1 0x1 PUSH1 0x0 SSTORE PUSH1 0x80 MSTORE PUSH1 0xA0 MSTORE PUSH1 0x40 MLOAD PUSH2 0x19E4 SWAP1 DUP2 PUSH2 0xD7 DUP3 CODECOPY PUSH1 0x80 MLOAD DUP2 DUP2 DUP2 PUSH2 0x111 ADD MSTORE DUP2 DUP2 PUSH2 0x2CA ADD MSTORE DUP2 DUP2 PUSH2 0xE35 ADD MSTORE DUP2 DUP2 PUSH2 0xFEF ADD MSTORE DUP2 DUP2 PUSH2 0x12F1 ADD MSTORE PUSH2 0x17C3 ADD MSTORE PUSH1 0xA0 MLOAD DUP2 DUP2 DUP2 PUSH2 0xC05 ADD MSTORE PUSH2 0xD13 ADD MSTORE RETURN JUMPDEST PUSH1 0x0 DUP1 REVERT JUMPDEST PUSH4 0x4E487B71 PUSH1 0xE0 SHL PUSH1 0x0 MSTORE PUSH1 0x41 PUSH1 0x4 MSTORE PUSH1 0x24 PUSH1 0x0 REVERT INVALID PUSH1 0x80 DUP1 PUSH1 0x40 MSTORE PUSH1 0x4 CALLDATASIZE LT ISZERO PUSH2 0x13 JUMPI PUSH1 0x0 DUP1 REVERT JUMPDEST PUSH1 0x0 CALLDATALOAD PUSH1 0xE0 SHR SWAP1 DUP2 PUSH4 0xF979C28 EQ PUSH2 0x146B JUMPI POP DUP1 PUSH4 0x16155E24 EQ PUSH2 0x134D JUMPI DUP1 PUSH4 0x295C72BB EQ PUSH2 0x131C JUMPI DUP1 PUSH4 0x2CA488B7 EQ PUSH2 0xE9F JUMPI DUP1 PUSH4 0x3015394C EQ PUSH2 0xD5E JUMPI DUP1 PUSH4 0x3D18651E EQ PUSH2 0xD42 JUMPI DUP1 PUSH4 0x3DC38615 EQ PUSH2 0xB31 JUMPI DUP1 PUSH4 0x40C60923 EQ PUSH2 0xCFD JUMPI DUP1 PUSH4 0x4BA1F098 EQ PUSH2 0xB65 JUMPI DUP1 PUSH4 0x67487541 EQ PUSH2 0xB31 JUMPI DUP1 PUSH4 0x81D12C58 EQ PUSH2 0xA5E JUMPI DUP1 PUSH4 0x8740CA80 EQ PUSH2 0xA41 JUMPI DUP1 PUSH4 0x973A814E EQ PUSH2 0xA23 JUMPI DUP1 PUSH4 0xC13A5CFD EQ PUSH2 0x8DF JUMPI DUP1 PUSH4 0xC58343EF EQ PUSH2 0x75B JUMPI DUP1 PUSH4 0xE1C99D1B EQ PUSH2 0x723 JUMPI DUP1 PUSH4 0xE41E4C07 EQ PUSH2 0x230 JUMPI DUP1 PUSH4 0xE4C12FDF EQ PUSH2 0x1FF JUMPI DUP1 PUSH4 0xE8C1E76F EQ PUSH2 0x145 JUMPI PUSH4 0xE9CBD822 EQ PUSH2 0xFB JUMPI PUSH1 0x0 DUP1 REVERT JUMPDEST CALLVALUE PUSH2 0x140 JUMPI PUSH1 0x0 CALLDATASIZE PUSH1 0x3 NOT ADD SLT PUSH2 0x140 JUMPI PUSH1 0x40 MLOAD PUSH32 0x0 PUSH1 0x1 PUSH1 0x1 PUSH1 0xA0 SHL SUB AND DUP2 MSTORE PUSH1 0x20 SWAP1 RETURN JUMPDEST PUSH1 0x0 DUP1 REVERT JUMPDEST CALLVALUE PUSH2 0x140 JUMPI PUSH1 0x0 CALLDATASIZE PUSH1 0x3 NOT ADD SLT PUSH2 0x140 JUMPI PUSH1 0x40 MLOAD DUP1 PUSH1 0x20 PUSH1 0x6 SLOAD SWAP3 DUP4 DUP2 MSTORE ADD DUP1 SWAP3 PUSH1 0x6 PUSH1 0x0 MSTORE PUSH32 0xF652222313E28459528D920B65115C16C04F3EFC82AAEDC97BE59F3F377C0D3F SWAP1 PUSH1 0x0 JUMPDEST DUP2 DUP2 LT PUSH2 0x1E9 JUMPI POP POP POP DUP2 PUSH2 0x1A6 SWAP2 SUB DUP3 PUSH2 0x1535 JUMP JUMPDEST PUSH1 0x40 MLOAD SWAP2 DUP3 SWAP2 PUSH1 0x20 DUP4 ADD SWAP1 PUSH1 0x20 DUP5 MSTORE MLOAD DUP1 SWAP2 MSTORE PUSH1 0x40 DUP4 ADD SWAP2 SWAP1 PUSH1 0x0 JUMPDEST DUP2 DUP2 LT PUSH2 0x1D0 JUMPI POP POP POP SUB SWAP1 RETURN JUMPDEST DUP3 MLOAD DUP5 MSTORE DUP6 SWAP5 POP PUSH1 0x20 SWAP4 DUP5 ADD SWAP4 SWAP1 SWAP3 ADD SWAP2 PUSH1 0x1 ADD PUSH2 0x1C2 JUMP JUMPDEST DUP3 SLOAD DUP5 MSTORE PUSH1 0x20 SWAP1 SWAP4 ADD SWAP3 PUSH1 0x1 SWAP3 DUP4 ADD SWAP3 ADD PUSH2 0x190 JUMP JUMPDEST CALLVALUE PUSH2 0x140 JUMPI PUSH1 0x20 CALLDATASIZE PUSH1 0x3 NOT ADD SLT PUSH2 0x140 JUMPI PUSH1 0x4 CALLDATALOAD PUSH1 0x0 MSTORE PUSH1 0x4 PUSH1 0x20 MSTORE PUSH1 0x20 PUSH1 0xFF PUSH1 0x40 PUSH1 0x0 KECCAK256 SLOAD AND PUSH1 0x40 MLOAD SWAP1 ISZERO ISZERO DUP2 MSTORE RETURN JUMPDEST CALLVALUE PUSH2 0x140 JUMPI PUSH1 0x80 CALLDATASIZE PUSH1 0x3 NOT ADD SLT PUSH2 0x140 JUMPI PUSH1 0x4 CALLDATALOAD PUSH1 0x1 PUSH1 0x1 PUSH1 0x40 SHL SUB DUP2 GT PUSH2 0x140 JUMPI PUSH2 0x260 SWAP1 CALLDATASIZE SWAP1 PUSH1 0x4 ADD PUSH2 0x14B2 JUMP JUMPDEST SWAP1 PUSH1 0x24 CALLDATALOAD PUSH1 0x1 PUSH1 0x1 PUSH1 0x40 SHL SUB DUP2 GT PUSH2 0x140 JUMPI PUSH2 0x280 SWAP1 CALLDATASIZE SWAP1 PUSH1 0x4 ADD PUSH2 0x14B2 JUMP JUMPDEST SWAP3 PUSH1 0x44 CALLDATALOAD PUSH1 0x1 PUSH1 0x1 PUSH1 0x40 SHL SUB DUP2 GT PUSH2 0x140 JUMPI PUSH2 0x2A0 SWAP1 CALLDATASIZE SWAP1 PUSH1 0x4 ADD PUSH2 0x14B2 JUMP JUMPDEST SWAP3 SWAP1 PUSH1 0x64 CALLDATALOAD SWAP2 PUSH2 0x2AE PUSH2 0x1812 JUMP JUMPDEST PUSH1 0xA DUP4 LT PUSH2 0x712 JUMPI PUSH2 0x3E8 PUSH1 0x6 SLOAD LT ISZERO PUSH2 0x701 JUMPI PUSH2 0x2EE DUP4 ADDRESS CALLER PUSH32 0x0 PUSH2 0x1874 JUMP JUMPDEST PUSH1 0x1 SLOAD PUSH1 0x0 NOT DUP2 EQ PUSH2 0x6EB JUMPI PUSH1 0x1 ADD SWAP5 DUP6 PUSH1 0x1 SSTORE PUSH2 0x349 PUSH1 0x40 MLOAD SWAP4 PUSH2 0x312 DUP6 PUSH2 0x1519 JUMP JUMPDEST DUP8 DUP6 MSTORE PUSH2 0x33A PUSH1 0x20 DUP7 ADD SWAP5 CALLER DUP7 MSTORE PUSH2 0x32B CALLDATASIZE DUP11 DUP14 PUSH2 0x16FA JUMP JUMPDEST SWAP12 PUSH1 0x40 DUP9 ADD SWAP13 DUP14 MSTORE CALLDATASIZE SWAP2 PUSH2 0x16FA JUMP JUMPDEST SWAP3 PUSH1 0x60 DUP7 ADD SWAP4 DUP5 MSTORE CALLDATASIZE SWAP2 PUSH2 0x16FA JUMP JUMPDEST SWAP8 PUSH1 0x80 DUP5 ADD SWAP9 DUP10 MSTORE PUSH1 0xA0 DUP5 ADD DUP6 DUP2 MSTORE PUSH1 0xC0 DUP6 ADD SWAP3 PUSH1 0x0 DUP5 MSTORE PUSH1 0xE0 DUP7 ADD SWAP3 PUSH1 0x0 DUP5 MSTORE PUSH2 0x100 DUP8 ADD SWAP6 TIMESTAMP DUP8 MSTORE DUP11 PUSH1 0x0 MSTORE PUSH1 0x2 PUSH1 0x20 MSTORE PUSH1 0x40 PUSH1 0x0 KECCAK256 SWAP8 MLOAD DUP9 SSTORE PUSH1 0x1 DUP1 PUSH1 0xA0 SHL SUB SWAP1 MLOAD AND PUSH1 0x1 DUP9 ADD SWAP1 PUSH1 0x1 DUP1 PUSH1 0xA0 SHL SUB AND PUSH12 0xFFFFFFFFFFFFFFFFFFFFFFFF PUSH1 0xA0 SHL DUP3 SLOAD AND OR SWAP1 SSTORE PUSH1 0x2 DUP8 ADD SWAP1 MLOAD DUP1 MLOAD SWAP1 PUSH1 0x1 PUSH1 0x1 PUSH1 0x40 SHL SUB DUP3 GT PUSH2 0x57F JUMPI PUSH2 0x3DD DUP3 PUSH2 0x3D7 DUP6 SLOAD PUSH2 0x14DF JUMP JUMPDEST DUP6 PUSH2 0x1679 JUMP JUMPDEST PUSH1 0x20 SWAP1 PUSH1 0x1F DUP4 GT PUSH1 0x1 EQ PUSH2 0x684 JUMPI PUSH2 0x40E SWAP3 SWAP2 PUSH1 0x0 SWAP2 DUP4 PUSH2 0x679 JUMPI JUMPDEST POP POP DUP2 PUSH1 0x1 SHL SWAP2 PUSH1 0x0 NOT SWAP1 PUSH1 0x3 SHL SHR NOT AND OR SWAP1 JUMP JUMPDEST SWAP1 SSTORE JUMPDEST MLOAD DUP1 MLOAD PUSH1 0x3 DUP8 ADD SWAP2 PUSH1 0x1 PUSH1 0x1 PUSH1 0x40 SHL SUB DUP3 GT PUSH2 0x57F JUMPI PUSH2 0x435 DUP3 PUSH2 0x3D7 DUP6 SLOAD PUSH2 0x14DF JUMP JUMPDEST PUSH1 0x20 SWAP1 PUSH1 0x1F DUP4 GT PUSH1 0x1 EQ PUSH2 0x612 JUMPI PUSH2 0x465 SWAP3 SWAP2 PUSH1 0x0 SWAP2 DUP4 PUSH2 0x595 JUMPI POP POP DUP2 PUSH1 0x1 SHL SWAP2 PUSH1 0x0 NOT SWAP1 PUSH1 0x3 SHL SHR NOT AND OR SWAP1 JUMP JUMPDEST SWAP1 SSTORE JUMPDEST PUSH1 0x4 DUP6 ADD SWAP10 MLOAD SWAP10 DUP11 MLOAD PUSH1 0x1 PUSH1 0x1 PUSH1 0x40 SHL SUB DUP2 GT PUSH2 0x57F JUMPI PUSH2 0x493 DUP2 PUSH2 0x48D DUP5 SLOAD PUSH2 0x14DF JUMP JUMPDEST DUP5 PUSH2 0x1679 JUMP JUMPDEST PUSH1 0x20 PUSH1 0x1F DUP3 GT PUSH1 0x1 EQ PUSH2 0x5A0 JUMPI SWAP1 DUP1 PUSH2 0x4CA SWAP3 PUSH1 0x7 SWAP10 SWAP11 SWAP12 SWAP13 SWAP14 SWAP15 PUSH1 0x0 SWAP3 PUSH2 0x595 JUMPI POP POP DUP2 PUSH1 0x1 SHL SWAP2 PUSH1 0x0 NOT SWAP1 PUSH1 0x3 SHL SHR NOT AND OR SWAP1 JUMP JUMPDEST SWAP1 SSTORE JUMPDEST MLOAD PUSH1 0x5 DUP7 ADD SSTORE PUSH1 0x6 DUP6 ADD SWAP2 MLOAD ISZERO ISZERO PUSH1 0xFF DUP1 NOT DUP5 SLOAD AND SWAP2 AND OR DUP3 SSTORE MLOAD ISZERO ISZERO PUSH2 0xFF00 DUP3 SLOAD SWAP2 PUSH1 0x8 SHL AND SWAP1 PUSH2 0xFF00 NOT AND OR SWAP1 SSTORE MLOAD SWAP2 ADD SSTORE PUSH1 0x6 SLOAD SWAP2 PUSH9 0x10000000000000000 DUP4 LT ISZERO PUSH2 0x57F JUMPI PUSH2 0x564 DUP5 PUSH2 0x54B DUP6 PUSH1 0x1 PUSH32 0x5A0FBB51489332EA302756BF6F2F7AEB1907708CAF26DA6086FD68A676757C23 SWAP8 ADD PUSH1 0x6 SSTORE PUSH2 0x163B JUMP JUMPDEST SWAP1 SWAP2 SWAP1 DUP3 SLOAD SWAP1 PUSH1 0x3 SHL SWAP2 DUP3 SHL SWAP2 PUSH1 0x0 NOT SWAP1 SHL NOT AND OR SWAP1 SSTORE JUMP JUMPDEST PUSH2 0x575 PUSH1 0x40 MLOAD SWAP3 DUP4 SWAP3 CALLER SWAP8 DUP5 PUSH2 0x16CB JUMP JUMPDEST SUB SWAP1 LOG3 PUSH1 0x1 PUSH1 0x0 SSTORE STOP JUMPDEST PUSH4 0x4E487B71 PUSH1 0xE0 SHL PUSH1 0x0 MSTORE PUSH1 0x41 PUSH1 0x4 MSTORE PUSH1 0x24 PUSH1 0x0 REVERT JUMPDEST ADD MLOAD SWAP1 POP DUP15 DUP1 PUSH2 0x3F9 JUMP JUMPDEST PUSH1 0x1F NOT DUP3 AND SWAP13 DUP4 PUSH1 0x0 MSTORE DUP2 PUSH1 0x0 KECCAK256 SWAP14 PUSH1 0x0 JUMPDEST DUP2 DUP2 LT PUSH2 0x5F5 JUMPI POP SWAP2 PUSH1 0x7 SWAP10 SWAP11 SWAP12 SWAP13 SWAP14 SWAP15 SWAP2 DUP5 PUSH1 0x1 SWAP6 SWAP5 LT PUSH2 0x5DC JUMPI JUMPDEST POP POP POP DUP2 SHL ADD SWAP1 SSTORE PUSH2 0x4CD JUMP JUMPDEST ADD MLOAD PUSH1 0x0 NOT PUSH1 0xF8 DUP5 PUSH1 0x3 SHL AND SHR NOT AND SWAP1 SSTORE DUP14 DUP1 DUP1 PUSH2 0x5CF JUMP JUMPDEST SWAP2 SWAP15 DUP16 PUSH1 0x1 PUSH1 0x20 SWAP3 DUP7 DUP5 SWAP4 ADD MLOAD DUP2 SSTORE ADD SWAP5 ADD SWAP3 ADD SWAP15 SWAP2 SWAP3 SWAP15 PUSH2 0x5B2 JUMP JUMPDEST SWAP1 PUSH1 0x1F NOT DUP4 AND SWAP2 DUP5 PUSH1 0x0 MSTORE DUP2 PUSH1 0x0 KECCAK256 SWAP3 PUSH1 0x0 JUMPDEST DUP2 DUP2 LT PUSH2 0x661 JUMPI POP SWAP1 DUP5 PUSH1 0x1 SWAP6 SWAP5 SWAP4 SWAP3 LT PUSH2 0x648 JUMPI JUMPDEST POP POP POP DUP2 SHL ADD SWAP1 SSTORE PUSH2 0x468 JUMP JUMPDEST ADD MLOAD PUSH1 0x0 NOT PUSH1 0xF8 DUP5 PUSH1 0x3 SHL AND SHR NOT AND SWAP1 SSTORE DUP14 DUP1 DUP1 PUSH2 0x63B JUMP JUMPDEST SWAP3 SWAP4 PUSH1 0x20 PUSH1 0x1 DUP2 SWAP3 DUP8 DUP7 ADD MLOAD DUP2 SSTORE ADD SWAP6 ADD SWAP4 ADD PUSH2 0x625 JUMP JUMPDEST ADD MLOAD SWAP1 POP DUP16 DUP1 PUSH2 0x3F9 JUMP JUMPDEST SWAP1 PUSH1 0x1F NOT DUP4 AND SWAP2 DUP5 PUSH1 0x0 MSTORE DUP2 PUSH1 0x0 KECCAK256 SWAP3 PUSH1 0x0 JUMPDEST DUP2 DUP2 LT PUSH2 0x6D3 JUMPI POP SWAP1 DUP5 PUSH1 0x1 SWAP6 SWAP5 SWAP4 SWAP3 LT PUSH2 0x6BA JUMPI JUMPDEST POP POP POP DUP2 SHL ADD SWAP1 SSTORE PUSH2 0x411 JUMP JUMPDEST ADD MLOAD PUSH1 0x0 NOT PUSH1 0xF8 DUP5 PUSH1 0x3 SHL AND SHR NOT AND SWAP1 SSTORE DUP15 DUP1 DUP1 PUSH2 0x6AD JUMP JUMPDEST SWAP3 SWAP4 PUSH1 0x20 PUSH1 0x1 DUP2 SWAP3 DUP8 DUP7 ADD MLOAD DUP2 SSTORE ADD SWAP6 ADD SWAP4 ADD PUSH2 0x697 JUMP JUMPDEST PUSH4 0x4E487B71 PUSH1 0xE0 SHL PUSH1 0x0 MSTORE PUSH1 0x11 PUSH1 0x4 MSTORE PUSH1 0x24 PUSH1 0x0 REVERT JUMPDEST PUSH4 0x89797D99 PUSH1 0xE0 SHL PUSH1 0x0 MSTORE PUSH1 0x4 PUSH1 0x0 REVERT JUMPDEST PUSH4 0x2CA2F52B PUSH1 0xE1 SHL PUSH1 0x0 MSTORE PUSH1 0x4 PUSH1 0x0 REVERT JUMPDEST CALLVALUE PUSH2 0x140 JUMPI PUSH1 0x20 CALLDATASIZE PUSH1 0x3 NOT ADD SLT PUSH2 0x140 JUMPI PUSH1 0x4 CALLDATALOAD PUSH1 0x6 SLOAD DUP2 LT ISZERO PUSH2 0x140 JUMPI PUSH2 0x74C PUSH1 0x20 SWAP2 PUSH2 0x163B JUMP JUMPDEST SWAP1 SLOAD SWAP1 PUSH1 0x3 SHL SHR PUSH1 0x40 MLOAD SWAP1 DUP2 MSTORE RETURN JUMPDEST CALLVALUE PUSH2 0x140 JUMPI PUSH1 0x20 CALLDATASIZE PUSH1 0x3 NOT ADD SLT PUSH2 0x140 JUMPI PUSH1 0x0 PUSH2 0x100 PUSH1 0x40 MLOAD PUSH2 0x77D DUP2 PUSH2 0x1519 JUMP JUMPDEST DUP3 DUP2 MSTORE DUP3 PUSH1 0x20 DUP3 ADD MSTORE PUSH1 0x60 PUSH1 0x40 DUP3 ADD MSTORE PUSH1 0x60 DUP1 DUP3 ADD MSTORE PUSH1 0x60 PUSH1 0x80 DUP3 ADD MSTORE DUP3 PUSH1 0xA0 DUP3 ADD MSTORE DUP3 PUSH1 0xC0 DUP3 ADD MSTORE DUP3 PUSH1 0xE0 DUP3 ADD MSTORE ADD MSTORE PUSH1 0x4 CALLDATALOAD PUSH1 0x0 MSTORE PUSH1 0x2 PUSH1 0x20 MSTORE PUSH1 0x40 PUSH1 0x0 KECCAK256 PUSH1 0x40 MLOAD PUSH2 0x7CA DUP2 PUSH2 0x1519 JUMP JUMPDEST DUP2 SLOAD DUP2 MSTORE PUSH1 0x1 DUP3 ADD SLOAD PUSH1 0x1 PUSH1 0x1 PUSH1 0xA0 SHL SUB AND PUSH1 0x20 DUP3 ADD SWAP1 DUP2 MSTORE SWAP2 PUSH2 0x7F0 PUSH1 0x2 DUP3 ADD PUSH2 0x1556 JUMP JUMPDEST PUSH1 0x40 DUP4 ADD SWAP1 DUP2 MSTORE PUSH2 0x803 PUSH1 0x3 DUP4 ADD PUSH2 0x1556 JUMP JUMPDEST PUSH1 0x60 DUP5 ADD SWAP1 DUP2 MSTORE PUSH2 0x816 PUSH1 0x4 DUP5 ADD PUSH2 0x1556 JUMP JUMPDEST SWAP3 PUSH1 0x80 DUP6 ADD SWAP4 DUP5 MSTORE PUSH2 0x8BC PUSH1 0x5 DUP3 ADD SLOAD SWAP5 PUSH1 0xA0 DUP8 ADD SWAP6 DUP7 MSTORE PUSH2 0x8A9 PUSH1 0x6 DUP5 ADD SLOAD SWAP5 PUSH2 0x896 PUSH1 0x7 PUSH1 0xC0 DUP12 ADD SWAP7 PUSH1 0xFF DUP10 AND ISZERO ISZERO DUP9 MSTORE PUSH1 0xFF PUSH1 0xE0 DUP14 ADD SWAP10 PUSH1 0x8 SHR AND ISZERO ISZERO DUP10 MSTORE ADD SLOAD SWAP8 PUSH2 0x100 DUP12 ADD SWAP9 DUP10 MSTORE PUSH1 0x40 MLOAD SWAP12 DUP13 SWAP12 PUSH1 0x20 DUP14 MSTORE MLOAD PUSH1 0x20 DUP14 ADD MSTORE PUSH1 0x1 DUP1 PUSH1 0xA0 SHL SUB SWAP1 MLOAD AND PUSH1 0x40 DUP13 ADD MSTORE MLOAD PUSH2 0x120 PUSH1 0x60 DUP13 ADD MSTORE PUSH2 0x140 DUP12 ADD SWAP1 PUSH2 0x15FA JUMP JUMPDEST SWAP1 MLOAD DUP10 DUP3 SUB PUSH1 0x1F NOT ADD PUSH1 0x80 DUP12 ADD MSTORE PUSH2 0x15FA JUMP JUMPDEST SWAP1 MLOAD DUP8 DUP3 SUB PUSH1 0x1F NOT ADD PUSH1 0xA0 DUP10 ADD MSTORE PUSH2 0x15FA JUMP JUMPDEST SWAP4 MLOAD PUSH1 0xC0 DUP7 ADD MSTORE MLOAD ISZERO ISZERO PUSH1 0xE0 DUP6 ADD MSTORE MLOAD ISZERO ISZERO PUSH2 0x100 DUP5 ADD MSTORE MLOAD PUSH2 0x120 DUP4 ADD MSTORE SUB SWAP1 RETURN JUMPDEST CALLVALUE PUSH2 0x140 JUMPI PUSH1 0x20 CALLDATASIZE PUSH1 0x3 NOT ADD SLT PUSH2 0x140 JUMPI PUSH1 0x4 CALLDATALOAD PUSH1 0x0 DUP2 DUP2 MSTORE PUSH1 0x2 PUSH1 0x20 MSTORE PUSH1 0x40 SWAP1 KECCAK256 PUSH1 0x1 ADD SLOAD PUSH1 0x1 PUSH1 0x1 PUSH1 0xA0 SHL SUB AND ISZERO PUSH2 0xA12 JUMPI PUSH1 0x0 DUP2 DUP2 MSTORE PUSH1 0x3 PUSH1 0x20 MSTORE PUSH1 0x40 SWAP1 KECCAK256 SLOAD PUSH1 0x1 PUSH1 0x1 PUSH1 0xA0 SHL SUB AND CALLER SUB PUSH2 0xA01 JUMPI DUP1 PUSH1 0x0 MSTORE PUSH1 0x2 PUSH1 0x20 MSTORE PUSH1 0xFF PUSH1 0x6 PUSH1 0x40 PUSH1 0x0 KECCAK256 ADD SLOAD AND PUSH2 0x9F0 JUMPI DUP1 PUSH1 0x0 MSTORE PUSH1 0x2 PUSH1 0x20 MSTORE PUSH1 0xFF PUSH1 0x6 PUSH1 0x40 PUSH1 0x0 KECCAK256 ADD SLOAD PUSH1 0x8 SHR AND PUSH2 0x9DF JUMPI DUP1 PUSH1 0x0 MSTORE PUSH1 0x5 PUSH1 0x20 MSTORE PUSH1 0xFF PUSH1 0x40 PUSH1 0x0 KECCAK256 SLOAD AND PUSH2 0x9CE JUMPI DUP1 PUSH2 0x9CC SWAP2 PUSH1 0x0 MSTORE PUSH1 0x5 PUSH1 0x20 MSTORE PUSH1 0x40 PUSH1 0x0 KECCAK256 PUSH1 0x1 PUSH1 0xFF NOT DUP3 SLOAD AND OR SWAP1 SSTORE PUSH1 0x40 MLOAD PUSH1 0x0 DUP2 MSTORE DUP2 PUSH32 0x4E98168EE01F9BA12C4872C54973FF61E5FE06C7D7EDF27903D41CF47830A646 PUSH1 0x20 CALLER SWAP4 LOG3 PUSH2 0x1740 JUMP JUMPDEST STOP JUMPDEST PUSH4 0x5F8A9C0B PUSH1 0xE0 SHL PUSH1 0x0 MSTORE PUSH1 0x4 PUSH1 0x0 REVERT JUMPDEST PUSH4 0x18E1E8FB PUSH1 0xE3 SHL PUSH1 0x0 MSTORE PUSH1 0x4 PUSH1 0x0 REVERT JUMPDEST PUSH4 0xFB776379 PUSH1 0xE0 SHL PUSH1 0x0 MSTORE PUSH1 0x4 PUSH1 0x0 REVERT JUMPDEST PUSH4 0x22D471A3 PUSH1 0xE1 SHL PUSH1 0x0 MSTORE PUSH1 0x4 PUSH1 0x0 REVERT JUMPDEST PUSH4 0x2589D98F PUSH1 0xE1 SHL PUSH1 0x0 MSTORE PUSH1 0x4 PUSH1 0x0 REVERT JUMPDEST CALLVALUE PUSH2 0x140 JUMPI PUSH1 0x0 CALLDATASIZE PUSH1 0x3 NOT ADD SLT PUSH2 0x140 JUMPI PUSH1 0x20 PUSH1 0x1 SLOAD PUSH1 0x40 MLOAD SWAP1 DUP2 MSTORE RETURN JUMPDEST CALLVALUE PUSH2 0x140 JUMPI PUSH1 0x0 CALLDATASIZE PUSH1 0x3 NOT ADD SLT PUSH2 0x140 JUMPI PUSH1 0x20 PUSH1 0x40 MLOAD PUSH2 0x3E8 DUP2 MSTORE RETURN JUMPDEST CALLVALUE PUSH2 0x140 JUMPI PUSH1 0x20 CALLDATASIZE PUSH1 0x3 NOT ADD SLT PUSH2 0x140 JUMPI PUSH1 0x4 CALLDATALOAD PUSH1 0x0 MSTORE PUSH1 0x2 PUSH1 0x20 MSTORE PUSH1 0x40 PUSH1 0x0 KECCAK256 DUP1 SLOAD PUSH1 0x1 DUP1 PUSH1 0xA0 SHL SUB PUSH1 0x1 DUP4 ADD SLOAD AND SWAP2 PUSH2 0xA9B PUSH1 0x2 DUP3 ADD PUSH2 0x1556 JUMP JUMPDEST PUSH1 0xFF PUSH2 0xAA9 PUSH1 0x3 DUP5 ADD PUSH2 0x1556 JUMP JUMPDEST SWAP3 PUSH2 0xB0C PUSH2 0xAB9 PUSH1 0x4 DUP4 ADD PUSH2 0x1556 JUMP JUMPDEST PUSH2 0xAFE PUSH1 0x5 DUP5 ADD SLOAD SWAP7 PUSH2 0xAF0 PUSH1 0x7 PUSH1 0x6 DUP8 ADD SLOAD SWAP7 ADD SLOAD SWAP8 PUSH1 0x40 MLOAD SWAP12 DUP13 SWAP12 DUP13 MSTORE PUSH1 0x20 DUP13 ADD MSTORE PUSH2 0x120 PUSH1 0x40 DUP13 ADD MSTORE PUSH2 0x120 DUP12 ADD SWAP1 PUSH2 0x15FA JUMP JUMPDEST SWAP1 DUP10 DUP3 SUB PUSH1 0x60 DUP12 ADD MSTORE PUSH2 0x15FA JUMP JUMPDEST SWAP1 DUP8 DUP3 SUB PUSH1 0x80 DUP10 ADD MSTORE PUSH2 0x15FA JUMP JUMPDEST SWAP4 PUSH1 0xA0 DUP7 ADD MSTORE DUP2 DUP2 AND ISZERO ISZERO PUSH1 0xC0 DUP7 ADD MSTORE PUSH1 0x8 SHR AND ISZERO ISZERO PUSH1 0xE0 DUP5 ADD MSTORE PUSH2 0x100 DUP4 ADD MSTORE SUB SWAP1 RETURN JUMPDEST CALLVALUE PUSH2 0x140 JUMPI PUSH1 0x20 CALLDATASIZE PUSH1 0x3 NOT ADD SLT PUSH2 0x140 JUMPI PUSH1 0x4 CALLDATALOAD PUSH1 0x0 MSTORE PUSH1 0x3 PUSH1 0x20 MSTORE PUSH1 0x20 PUSH1 0x1 DUP1 PUSH1 0xA0 SHL SUB PUSH1 0x40 PUSH1 0x0 KECCAK256 SLOAD AND PUSH1 0x40 MLOAD SWAP1 DUP2 MSTORE RETURN JUMPDEST CALLVALUE PUSH2 0x140 JUMPI PUSH1 0x20 CALLDATASIZE PUSH1 0x3 NOT ADD SLT PUSH2 0x140 JUMPI PUSH1 0x4 CALLDATALOAD PUSH1 0x0 DUP2 DUP2 MSTORE PUSH1 0x2 PUSH1 0x20 MSTORE PUSH1 0x40 SWAP1 KECCAK256 PUSH1 0x1 ADD SLOAD PUSH1 0x1 PUSH1 0x1 PUSH1 0xA0 SHL SUB AND ISZERO PUSH2 0xA12 JUMPI PUSH1 0x0 DUP2 DUP2 MSTORE PUSH1 0x3 PUSH1 0x20 MSTORE PUSH1 0x40 SWAP1 KECCAK256 SLOAD PUSH1 0x1 PUSH1 0x1 PUSH1 0xA0 SHL SUB AND PUSH2 0xCEC JUMPI DUP1 PUSH1 0x0 MSTORE PUSH1 0x2 PUSH1 0x20 MSTORE PUSH1 0xFF PUSH1 0x6 PUSH1 0x40 PUSH1 0x0 KECCAK256 ADD SLOAD AND PUSH2 0x9F0 JUMPI DUP1 PUSH1 0x0 MSTORE PUSH1 0x2 PUSH1 0x20 MSTORE PUSH1 0xFF PUSH1 0x6 PUSH1 0x40 PUSH1 0x0 KECCAK256 ADD SLOAD PUSH1 0x8 SHR AND PUSH2 0x9DF JUMPI PUSH1 0x40 MLOAD PUSH4 0x2EAC9C5B PUSH1 0xE0 SHL DUP2 MSTORE CALLER PUSH1 0x4 DUP3 ADD MSTORE PUSH1 0x20 DUP2 PUSH1 0x24 DUP2 PUSH32 0x0 PUSH1 0x1 PUSH1 0x1 PUSH1 0xA0 SHL SUB AND GAS STATICCALL SWAP1 DUP2 ISZERO PUSH2 0xCE0 JUMPI PUSH1 0x0 SWAP2 PUSH2 0xC9E JUMPI JUMPDEST POP ISZERO PUSH2 0xC8D JUMPI PUSH1 0x0 DUP2 DUP2 MSTORE PUSH1 0x3 PUSH1 0x20 MSTORE PUSH1 0x40 DUP2 KECCAK256 DUP1 SLOAD PUSH1 0x1 PUSH1 0x1 PUSH1 0xA0 SHL SUB NOT AND CALLER SWAP1 DUP2 OR SWAP1 SWAP2 SSTORE SWAP2 SWAP1 PUSH32 0xA74A28866064B16E695EBBF53F8B0F9AA0BB93885DBBCC373004F1A052CC4248 SWAP1 DUP1 LOG3 STOP JUMPDEST PUSH4 0xEB630B4B PUSH1 0xE0 SHL PUSH1 0x0 MSTORE PUSH1 0x4 PUSH1 0x0 REVERT JUMPDEST PUSH1 0x20 DUP2 RETURNDATASIZE PUSH1 0x20 GT PUSH2 0xCD8 JUMPI JUMPDEST DUP2 PUSH2 0xCB7 PUSH1 0x20 SWAP4 DUP4 PUSH2 0x1535 JUMP JUMPDEST DUP2 ADD SUB SLT PUSH2 0xCD4 JUMPI MLOAD SWAP1 DUP2 ISZERO ISZERO DUP3 SUB PUSH2 0xCD1 JUMPI POP DUP3 PUSH2 0xC3E JUMP JUMPDEST DUP1 REVERT JUMPDEST POP DUP1 REVERT JUMPDEST RETURNDATASIZE SWAP2 POP PUSH2 0xCAA JUMP JUMPDEST PUSH1 0x40 MLOAD RETURNDATASIZE PUSH1 0x0 DUP3 RETURNDATACOPY RETURNDATASIZE SWAP1 REVERT JUMPDEST PUSH4 0x9F805157 PUSH1 0xE0 SHL PUSH1 0x0 MSTORE PUSH1 0x4 PUSH1 0x0 REVERT JUMPDEST CALLVALUE PUSH2 0x140 JUMPI PUSH1 0x0 CALLDATASIZE PUSH1 0x3 NOT ADD SLT PUSH2 0x140 JUMPI PUSH1 0x40 MLOAD PUSH32 0x0 PUSH1 0x1 PUSH1 0x1 PUSH1 0xA0 SHL SUB AND DUP2 MSTORE PUSH1 0x20 SWAP1 RETURN JUMPDEST CALLVALUE PUSH2 0x140 JUMPI PUSH1 0x0 CALLDATASIZE PUSH1 0x3 NOT ADD SLT PUSH2 0x140 JUMPI PUSH1 0x20 PUSH1 0x40 MLOAD PUSH1 0xA DUP2 MSTORE RETURN JUMPDEST CALLVALUE PUSH2 0x140 JUMPI PUSH1 0x20 CALLDATASIZE PUSH1 0x3 NOT ADD SLT PUSH2 0x140 JUMPI PUSH1 0x4 CALLDATALOAD PUSH1 0x0 DUP2 DUP2 MSTORE PUSH1 0x2 PUSH1 0x20 MSTORE PUSH1 0x40 SWAP1 KECCAK256 PUSH1 0x1 ADD SLOAD PUSH1 0x1 PUSH1 0x1 PUSH1 0xA0 SHL SUB AND ISZERO PUSH2 0xA12 JUMPI PUSH1 0x0 DUP2 DUP2 MSTORE PUSH1 0x2 PUSH1 0x20 MSTORE PUSH1 0x40 SWAP1 KECCAK256 PUSH1 0x1 ADD SLOAD PUSH1 0x1 PUSH1 0x1 PUSH1 0xA0 SHL SUB AND CALLER SUB PUSH2 0xE8E JUMPI PUSH1 0x0 DUP2 DUP2 MSTORE PUSH1 0x3 PUSH1 0x20 MSTORE PUSH1 0x40 SWAP1 KECCAK256 SLOAD PUSH1 0x1 PUSH1 0x1 PUSH1 0xA0 SHL SUB AND PUSH2 0xCEC JUMPI DUP1 PUSH1 0x0 MSTORE PUSH1 0x2 PUSH1 0x20 MSTORE PUSH1 0xFF PUSH1 0x6 PUSH1 0x40 PUSH1 0x0 KECCAK256 ADD SLOAD AND PUSH2 0x9F0 JUMPI DUP1 PUSH1 0x0 MSTORE PUSH1 0x2 PUSH1 0x20 MSTORE PUSH1 0xFF PUSH1 0x6 PUSH1 0x40 PUSH1 0x0 KECCAK256 ADD SLOAD PUSH1 0x8 SHR AND PUSH2 0x9DF JUMPI PUSH2 0xE0C PUSH2 0x1812 JUMP JUMPDEST DUP1 PUSH1 0x0 MSTORE PUSH1 0x2 PUSH1 0x20 MSTORE PUSH2 0xE59 PUSH1 0x5 PUSH1 0x40 PUSH1 0x0 KECCAK256 PUSH1 0x6 DUP2 ADD PUSH2 0x100 PUSH2 0xFF00 NOT DUP3 SLOAD AND OR SWAP1 SSTORE ADD SLOAD CALLER PUSH32 0x0 PUSH2 0x1834 JUMP JUMPDEST PUSH2 0xE62 DUP2 PUSH2 0x18B8 JUMP JUMPDEST PUSH32 0xEE243F878B7FC2F54E934CA33783D4395D42BC07612E2BD4B8E0E178639F7A28 PUSH1 0x0 DUP1 LOG2 PUSH1 0x1 PUSH1 0x0 SSTORE STOP JUMPDEST PUSH4 0x517907DD PUSH1 0xE0 SHL PUSH1 0x0 MSTORE PUSH1 0x4 PUSH1 0x0 REVERT JUMPDEST CALLVALUE PUSH2 0x140 JUMPI PUSH1 0xA0 CALLDATASIZE PUSH1 0x3 NOT ADD SLT PUSH2 0x140 JUMPI PUSH1 0x4 CALLDATALOAD PUSH1 0x24 CALLDATALOAD PUSH1 0x1 PUSH1 0x1 PUSH1 0x40 SHL SUB DUP2 GT PUSH2 0x140 JUMPI PUSH2 0xED2 SWAP1 CALLDATASIZE SWAP1 PUSH1 0x4 ADD PUSH2 0x14B2 JUMP JUMPDEST PUSH1 0x44 SWAP3 SWAP2 SWAP3 CALLDATALOAD PUSH1 0x1 PUSH1 0x1 PUSH1 0x40 SHL SUB DUP2 GT PUSH2 0x140 JUMPI PUSH2 0xEF4 SWAP1 CALLDATASIZE SWAP1 PUSH1 0x4 ADD PUSH2 0x14B2 JUMP JUMPDEST PUSH1 0x64 SWAP5 SWAP2 SWAP5 CALLDATALOAD PUSH1 0x1 PUSH1 0x1 PUSH1 0x40 SHL SUB DUP2 GT PUSH2 0x140 JUMPI PUSH2 0xF16 SWAP1 CALLDATASIZE SWAP1 PUSH1 0x4 ADD PUSH2 0x14B2 JUMP JUMPDEST PUSH1 0x0 DUP7 DUP2 MSTORE PUSH1 0x2 PUSH1 0x20 MSTORE PUSH1 0x40 SWAP1 KECCAK256 PUSH1 0x1 ADD SLOAD PUSH1 0x84 CALLDATALOAD SWAP8 SWAP1 PUSH1 0x1 PUSH1 0x1 PUSH1 0xA0 SHL SUB AND ISZERO PUSH2 0xA12 JUMPI PUSH1 0x0 DUP8 DUP2 MSTORE PUSH1 0x2 PUSH1 0x20 MSTORE PUSH1 0x40 SWAP1 KECCAK256 PUSH1 0x1 ADD SLOAD PUSH1 0x1 PUSH1 0x1 PUSH1 0xA0 SHL SUB AND CALLER SUB PUSH2 0xE8E JUMPI PUSH1 0x0 DUP8 DUP2 MSTORE PUSH1 0x3 PUSH1 0x20 MSTORE PUSH1 0x40 SWAP1 KECCAK256 SLOAD PUSH1 0x1 PUSH1 0x1 PUSH1 0xA0 SHL SUB AND PUSH2 0xCEC JUMPI DUP7 PUSH1 0x0 MSTORE PUSH1 0x2 PUSH1 0x20 MSTORE PUSH1 0xFF PUSH1 0x6 PUSH1 0x40 PUSH1 0x0 KECCAK256 ADD SLOAD AND PUSH2 0x9F0 JUMPI DUP7 PUSH1 0x0 MSTORE PUSH1 0x2 PUSH1 0x20 MSTORE PUSH1 0xFF PUSH1 0x6 PUSH1 0x40 PUSH1 0x0 KECCAK256 ADD SLOAD PUSH1 0x8 SHR AND PUSH2 0x9DF JUMPI PUSH2 0xFB5 PUSH2 0x1812 JUMP JUMPDEST PUSH1 0xA DUP9 LT PUSH2 0x712 JUMPI DUP7 PUSH1 0x0 MSTORE PUSH1 0x2 PUSH1 0x20 MSTORE PUSH1 0x40 PUSH1 0x0 KECCAK256 SWAP1 PUSH1 0x5 DUP3 ADD SWAP5 DUP6 SLOAD DUP11 DUP2 DUP2 GT PUSH1 0x0 EQ PUSH2 0x12D1 JUMPI PUSH2 0x1013 SWAP2 PUSH2 0xFEB SWAP2 PUSH2 0x166C JUMP JUMPDEST ADDRESS CALLER PUSH32 0x0 PUSH2 0x1874 JUMP JUMPDEST PUSH1 0x2 DUP4 ADD PUSH1 0x1 PUSH1 0x1 PUSH1 0x40 SHL SUB DUP10 GT PUSH2 0x57F JUMPI PUSH2 0x1039 DUP10 PUSH2 0x1033 DUP4 SLOAD PUSH2 0x14DF JUMP JUMPDEST DUP4 PUSH2 0x1679 JUMP JUMPDEST PUSH1 0x0 DUP10 PUSH1 0x1F DUP2 GT PUSH1 0x1 EQ PUSH2 0x126D JUMPI DUP1 PUSH2 0x1068 SWAP3 PUSH1 0x0 SWAP2 PUSH2 0x1262 JUMPI JUMPDEST POP DUP2 PUSH1 0x1 SHL SWAP2 PUSH1 0x0 NOT SWAP1 PUSH1 0x3 SHL SHR NOT AND OR SWAP1 JUMP JUMPDEST SWAP1 SSTORE JUMPDEST PUSH1 0x3 DUP4 ADD SWAP2 PUSH1 0x1 PUSH1 0x1 PUSH1 0x40 SHL SUB DUP3 GT PUSH2 0x57F JUMPI PUSH2 0x108C DUP3 PUSH2 0x3D7 DUP6 SLOAD PUSH2 0x14DF JUMP JUMPDEST PUSH1 0x0 SWAP1 PUSH1 0x1F DUP4 GT PUSH1 0x1 EQ PUSH2 0x11FA JUMPI SWAP2 DUP1 PUSH2 0x10C1 SWAP3 PUSH1 0x4 SWAP7 SWAP6 SWAP5 PUSH1 0x0 SWAP3 PUSH2 0x11EF JUMPI POP POP DUP2 PUSH1 0x1 SHL SWAP2 PUSH1 0x0 NOT SWAP1 PUSH1 0x3 SHL SHR NOT AND OR SWAP1 JUMP JUMPDEST SWAP1 SSTORE JUMPDEST ADD SWAP2 PUSH1 0x1 PUSH1 0x1 PUSH1 0x40 SHL SUB DUP3 GT PUSH2 0x57F JUMPI PUSH2 0x10E2 DUP3 PUSH2 0x3D7 DUP6 SLOAD PUSH2 0x14DF JUMP JUMPDEST PUSH1 0x0 SWAP1 PUSH1 0x1F DUP4 GT PUSH1 0x1 EQ PUSH2 0x1162 JUMPI SWAP3 PUSH2 0x113D DUP4 DUP11 SWAP6 SWAP5 PUSH2 0x114D SWAP8 SWAP5 PUSH32 0x4BC513A36511C06026107A2C2360774B141C59232FD0D761CC39E75EAD215367 SWAP12 SWAP13 SWAP7 PUSH1 0x0 SWAP3 PUSH2 0x1157 JUMPI POP POP DUP2 PUSH1 0x1 SHL SWAP2 PUSH1 0x0 NOT SWAP1 PUSH1 0x3 SHL SHR NOT AND OR SWAP1 JUMP JUMPDEST SWAP1 SSTORE JUMPDEST SSTORE PUSH1 0x40 MLOAD SWAP4 DUP5 SWAP4 DUP5 PUSH2 0x16CB JUMP JUMPDEST SUB SWAP1 LOG2 PUSH1 0x1 PUSH1 0x0 SSTORE STOP JUMPDEST ADD CALLDATALOAD SWAP1 POP DUP13 DUP1 PUSH2 0x3F9 JUMP JUMPDEST DUP4 DUP3 MSTORE PUSH1 0x20 DUP3 KECCAK256 SWAP2 PUSH1 0x1F NOT DUP5 AND DUP2 JUMPDEST DUP2 DUP2 LT PUSH2 0x11D7 JUMPI POP SWAP4 PUSH2 0x114D SWAP7 SWAP4 DUP12 SWAP7 SWAP4 PUSH1 0x1 SWAP4 DUP4 PUSH32 0x4BC513A36511C06026107A2C2360774B141C59232FD0D761CC39E75EAD215367 SWAP14 SWAP15 SWAP9 LT PUSH2 0x11BD JUMPI JUMPDEST POP POP POP DUP2 SHL ADD SWAP1 SSTORE PUSH2 0x1140 JUMP JUMPDEST ADD CALLDATALOAD PUSH1 0x0 NOT PUSH1 0x3 DUP5 SWAP1 SHL PUSH1 0xF8 AND SHR NOT AND SWAP1 SSTORE DUP12 DUP1 DUP1 PUSH2 0x11B0 JUMP JUMPDEST SWAP2 SWAP4 PUSH1 0x20 PUSH1 0x1 DUP2 SWAP3 DUP8 DUP8 ADD CALLDATALOAD DUP2 SSTORE ADD SWAP6 ADD SWAP3 ADD PUSH2 0x1171 JUMP JUMPDEST ADD CALLDATALOAD SWAP1 POP DUP14 DUP1 PUSH2 0x3F9 JUMP JUMPDEST DUP4 DUP3 MSTORE PUSH1 0x20 DUP3 KECCAK256 SWAP2 PUSH1 0x1F NOT DUP5 AND DUP2 JUMPDEST DUP2 DUP2 LT PUSH2 0x124A JUMPI POP SWAP2 PUSH1 0x1 SWAP4 SWAP2 DUP6 PUSH1 0x4 SWAP9 SWAP8 SWAP7 SWAP5 LT PUSH2 0x1230 JUMPI JUMPDEST POP POP POP DUP2 SHL ADD SWAP1 SSTORE PUSH2 0x10C4 JUMP JUMPDEST ADD CALLDATALOAD PUSH1 0x0 NOT PUSH1 0x3 DUP5 SWAP1 SHL PUSH1 0xF8 AND SHR NOT AND SWAP1 SSTORE DUP13 DUP1 DUP1 PUSH2 0x1223 JUMP JUMPDEST SWAP2 SWAP4 PUSH1 0x20 PUSH1 0x1 DUP2 SWAP3 DUP8 DUP8 ADD CALLDATALOAD DUP2 SSTORE ADD SWAP6 ADD SWAP3 ADD PUSH2 0x1209 JUMP JUMPDEST SWAP1 POP DUP11 ADD CALLDATALOAD DUP15 PUSH2 0x1054 JUMP JUMPDEST POP DUP2 DUP2 MSTORE PUSH1 0x20 DUP2 KECCAK256 SWAP1 DUP11 PUSH1 0x1F NOT DUP2 AND DUP3 JUMPDEST DUP13 DUP3 DUP3 LT PUSH2 0x12B7 JUMPI POP POP LT PUSH2 0x129D JUMPI JUMPDEST POP POP PUSH1 0x1 DUP10 DUP2 SHL ADD SWAP1 SSTORE PUSH2 0x106B JUMP JUMPDEST DUP10 ADD CALLDATALOAD PUSH1 0x0 NOT PUSH1 0x3 DUP13 SWAP1 SHL PUSH1 0xF8 AND SHR NOT AND SWAP1 SSTORE DUP12 DUP1 PUSH2 0x128E JUMP JUMPDEST DUP5 ADD CALLDATALOAD DUP6 SSTORE PUSH1 0x1 SWAP1 SWAP5 ADD SWAP4 PUSH1 0x20 SWAP4 DUP5 ADD SWAP4 DUP15 SWAP4 POP ADD PUSH2 0x127E JUMP JUMPDEST SWAP1 DUP1 DUP3 LT PUSH2 0x12E1 JUMPI JUMPDEST POP POP PUSH2 0x1013 JUMP JUMPDEST PUSH2 0x1315 SWAP2 PUSH2 0x12EE SWAP2 PUSH2 0x166C JUMP JUMPDEST CALLER PUSH32 0x0 PUSH2 0x1834 JUMP JUMPDEST DUP10 DUP12 PUSH2 0x12DA JUMP JUMPDEST CALLVALUE PUSH2 0x140 JUMPI PUSH1 0x20 CALLDATASIZE PUSH1 0x3 NOT ADD SLT PUSH2 0x140 JUMPI PUSH1 0x4 CALLDATALOAD PUSH1 0x0 MSTORE PUSH1 0x5 PUSH1 0x20 MSTORE PUSH1 0x20 PUSH1 0xFF PUSH1 0x40 PUSH1 0x0 KECCAK256 SLOAD AND PUSH1 0x40 MLOAD SWAP1 ISZERO ISZERO DUP2 MSTORE RETURN JUMPDEST CALLVALUE PUSH2 0x140 JUMPI PUSH1 0x20 CALLDATASIZE PUSH1 0x3 NOT ADD SLT PUSH2 0x140 JUMPI PUSH1 0x4 CALLDATALOAD PUSH1 0x0 DUP2 DUP2 MSTORE PUSH1 0x2 PUSH1 0x20 MSTORE PUSH1 0x40 SWAP1 KECCAK256 PUSH1 0x1 ADD SLOAD PUSH1 0x1 PUSH1 0x1 PUSH1 0xA0 SHL SUB AND ISZERO PUSH2 0xA12 JUMPI PUSH1 0x0 DUP2 DUP2 MSTORE PUSH1 0x2 PUSH1 0x20 MSTORE PUSH1 0x40 SWAP1 KECCAK256 PUSH1 0x1 ADD SLOAD PUSH1 0x1 PUSH1 0x1 PUSH1 0xA0 SHL SUB AND CALLER SUB PUSH2 0xE8E JUMPI PUSH1 0x0 DUP2 DUP2 MSTORE PUSH1 0x3 PUSH1 0x20 MSTORE PUSH1 0x40 SWAP1 KECCAK256 SLOAD PUSH1 0x1 PUSH1 0x1 PUSH1 0xA0 SHL SUB AND ISZERO PUSH2 0x145A JUMPI DUP1 PUSH1 0x0 MSTORE PUSH1 0x2 PUSH1 0x20 MSTORE PUSH1 0xFF PUSH1 0x6 PUSH1 0x40 PUSH1 0x0 KECCAK256 ADD SLOAD AND PUSH2 0x9F0 JUMPI DUP1 PUSH1 0x0 MSTORE PUSH1 0x2 PUSH1 0x20 MSTORE PUSH1 0xFF PUSH1 0x6 PUSH1 0x40 PUSH1 0x0 KECCAK256 ADD SLOAD PUSH1 0x8 SHR AND PUSH2 0x9DF JUMPI DUP1 PUSH1 0x0 MSTORE PUSH1 0x4 PUSH1 0x20 MSTORE PUSH1 0xFF PUSH1 0x40 PUSH1 0x0 KECCAK256 SLOAD AND PUSH2 0x9CE JUMPI DUP1 PUSH2 0x9CC SWAP2 PUSH1 0x0 MSTORE PUSH1 0x4 PUSH1 0x20 MSTORE PUSH1 0x40 PUSH1 0x0 KECCAK256 PUSH1 0x1 PUSH1 0xFF NOT DUP3 SLOAD AND OR SWAP1 SSTORE PUSH1 0x40 MLOAD PUSH1 0x1 DUP2 MSTORE DUP2 PUSH32 0x4E98168EE01F9BA12C4872C54973FF61E5FE06C7D7EDF27903D41CF47830A646 PUSH1 0x20 CALLER SWAP4 LOG3 PUSH2 0x1740 JUMP JUMPDEST PUSH4 0xF34CA27F PUSH1 0xE0 SHL PUSH1 0x0 MSTORE PUSH1 0x4 PUSH1 0x0 REVERT JUMPDEST CALLVALUE PUSH2 0x140 JUMPI PUSH1 0x20 CALLDATASIZE PUSH1 0x3 NOT ADD SLT PUSH2 0x140 JUMPI PUSH1 0x40 SWAP1 PUSH1 0x4 CALLDATALOAD DUP1 PUSH1 0x0 MSTORE PUSH1 0x4 PUSH1 0x20 MSTORE PUSH1 0xFF DUP4 PUSH1 0x0 KECCAK256 SLOAD AND SWAP1 PUSH1 0x0 MSTORE PUSH1 0x5 PUSH1 0x20 MSTORE PUSH1 0xFF DUP4 PUSH1 0x0 KECCAK256 SLOAD AND SWAP1 ISZERO ISZERO DUP3 MSTORE ISZERO ISZERO PUSH1 0x20 DUP3 ADD MSTORE RETURN JUMPDEST SWAP2 DUP2 PUSH1 0x1F DUP5 ADD SLT ISZERO PUSH2 0x140 JUMPI DUP3 CALLDATALOAD SWAP2 PUSH1 0x1 PUSH1 0x1 PUSH1 0x40 SHL SUB DUP4 GT PUSH2 0x140 JUMPI PUSH1 0x20 DUP4 DUP2 DUP7 ADD SWAP6 ADD ADD GT PUSH2 0x140 JUMPI JUMP JUMPDEST SWAP1 PUSH1 0x1 DUP3 DUP2 SHR SWAP3 AND DUP1 ISZERO PUSH2 0x150F JUMPI JUMPDEST PUSH1 0x20 DUP4 LT EQ PUSH2 0x14F9 JUMPI JUMP JUMPDEST PUSH4 0x4E487B71 PUSH1 0xE0 SHL PUSH1 0x0 MSTORE PUSH1 0x22 PUSH1 0x4 MSTORE PUSH1 0x24 PUSH1 0x0 REVERT JUMPDEST SWAP2 PUSH1 0x7F AND SWAP2 PUSH2 0x14EE JUMP JUMPDEST PUSH2 0x120 DUP2 ADD SWAP1 DUP2 LT PUSH1 0x1 PUSH1 0x1 PUSH1 0x40 SHL SUB DUP3 GT OR PUSH2 0x57F JUMPI PUSH1 0x40 MSTORE JUMP JUMPDEST SWAP1 PUSH1 0x1F DUP1 NOT SWAP2 ADD AND DUP2 ADD SWAP1 DUP2 LT PUSH1 0x1 PUSH1 0x1 PUSH1 0x40 SHL SUB DUP3 GT OR PUSH2 0x57F JUMPI PUSH1 0x40 MSTORE JUMP JUMPDEST SWAP1 PUSH1 0x40 MLOAD SWAP2 DUP3 PUSH1 0x0 DUP3 SLOAD SWAP3 PUSH2 0x156A DUP5 PUSH2 0x14DF JUMP JUMPDEST DUP1 DUP5 MSTORE SWAP4 PUSH1 0x1 DUP2 AND SWAP1 DUP2 ISZERO PUSH2 0x15D8 JUMPI POP PUSH1 0x1 EQ PUSH2 0x1591 JUMPI JUMPDEST POP PUSH2 0x158F SWAP3 POP SUB DUP4 PUSH2 0x1535 JUMP JUMPDEST JUMP JUMPDEST SWAP1 POP PUSH1 0x0 SWAP3 SWAP2 SWAP3 MSTORE PUSH1 0x20 PUSH1 0x0 KECCAK256 SWAP1 PUSH1 0x0 SWAP2 JUMPDEST DUP2 DUP4 LT PUSH2 0x15BC JUMPI POP POP SWAP1 PUSH1 0x20 PUSH2 0x158F SWAP3 DUP3 ADD ADD CODESIZE PUSH2 0x1582 JUMP JUMPDEST PUSH1 0x20 SWAP2 SWAP4 POP DUP1 PUSH1 0x1 SWAP2 SLOAD DUP4 DUP6 DUP10 ADD ADD MSTORE ADD SWAP2 ADD SWAP1 SWAP2 DUP5 SWAP3 PUSH2 0x15A3 JUMP JUMPDEST SWAP1 POP PUSH1 0x20 SWAP3 POP PUSH2 0x158F SWAP5 SWAP2 POP PUSH1 0xFF NOT AND DUP3 DUP5 ADD MSTORE ISZERO ISZERO PUSH1 0x5 SHL DUP3 ADD ADD CODESIZE PUSH2 0x1582 JUMP JUMPDEST SWAP2 SWAP1 DUP3 MLOAD SWAP3 DUP4 DUP3 MSTORE PUSH1 0x0 JUMPDEST DUP5 DUP2 LT PUSH2 0x1626 JUMPI POP POP DUP3 PUSH1 0x0 PUSH1 0x20 DUP1 SWAP5 SWAP6 DUP5 ADD ADD MSTORE PUSH1 0x1F DUP1 NOT SWAP2 ADD AND ADD ADD SWAP1 JUMP JUMPDEST DUP1 PUSH1 0x20 DUP1 SWAP3 DUP5 ADD ADD MLOAD DUP3 DUP3 DUP7 ADD ADD MSTORE ADD PUSH2 0x1605 JUMP JUMPDEST PUSH1 0x6 SLOAD DUP2 LT ISZERO PUSH2 0x1656 JUMPI PUSH1 0x6 PUSH1 0x0 MSTORE PUSH1 0x20 PUSH1 0x0 KECCAK256 ADD SWAP1 PUSH1 0x0 SWAP1 JUMP JUMPDEST PUSH4 0x4E487B71 PUSH1 0xE0 SHL PUSH1 0x0 MSTORE PUSH1 0x32 PUSH1 0x4 MSTORE PUSH1 0x24 PUSH1 0x0 REVERT JUMPDEST SWAP2 SWAP1 DUP3 SUB SWAP2 DUP3 GT PUSH2 0x6EB JUMPI JUMP JUMPDEST PUSH1 0x1F DUP3 GT PUSH2 0x1686 JUMPI POP POP POP JUMP JUMPDEST PUSH1 0x0 MSTORE PUSH1 0x20 PUSH1 0x0 KECCAK256 SWAP1 PUSH1 0x20 PUSH1 0x1F DUP5 ADD PUSH1 0x5 SHR DUP4 ADD SWAP4 LT PUSH2 0x16C1 JUMPI JUMPDEST PUSH1 0x1F ADD PUSH1 0x5 SHR ADD SWAP1 JUMPDEST DUP2 DUP2 LT PUSH2 0x16B5 JUMPI POP POP JUMP JUMPDEST PUSH1 0x0 DUP2 SSTORE PUSH1 0x1 ADD PUSH2 0x16AA JUMP JUMPDEST SWAP1 SWAP2 POP DUP2 SWAP1 PUSH2 0x16A1 JUMP JUMPDEST SWAP4 SWAP3 SWAP2 DUP1 PUSH1 0x60 SWAP2 PUSH1 0x20 SWAP4 PUSH1 0x40 DUP9 MSTORE DUP2 PUSH1 0x40 DUP10 ADD MSTORE DUP4 DUP9 ADD CALLDATACOPY PUSH1 0x0 DUP3 DUP3 DUP9 ADD ADD MSTORE PUSH1 0x1F DUP1 NOT SWAP2 ADD AND DUP6 ADD ADD SWAP4 ADD MSTORE JUMP JUMPDEST SWAP3 SWAP2 SWAP3 PUSH1 0x1 PUSH1 0x1 PUSH1 0x40 SHL SUB DUP3 GT PUSH2 0x57F JUMPI PUSH1 0x40 MLOAD SWAP2 PUSH2 0x1723 PUSH1 0x1F DUP3 ADD PUSH1 0x1F NOT AND PUSH1 0x20 ADD DUP5 PUSH2 0x1535 JUMP JUMPDEST DUP3 SWAP5 DUP2 DUP5 MSTORE DUP2 DUP4 ADD GT PUSH2 0x140 JUMPI DUP3 DUP2 PUSH1 0x20 SWAP4 DUP5 PUSH1 0x0 SWAP7 ADD CALLDATACOPY ADD ADD MSTORE JUMP JUMPDEST DUP1 PUSH1 0x0 MSTORE PUSH1 0x4 PUSH1 0x20 MSTORE PUSH1 0xFF PUSH1 0x40 PUSH1 0x0 KECCAK256 SLOAD AND DUP1 PUSH2 0x17FA JUMPI JUMPDEST PUSH2 0x175F JUMPI POP JUMP JUMPDEST DUP1 PUSH1 0x0 MSTORE PUSH1 0x2 PUSH1 0x20 MSTORE PUSH1 0x40 PUSH1 0x0 KECCAK256 SWAP1 PUSH1 0x6 DUP3 ADD PUSH1 0x1 PUSH1 0xFF NOT DUP3 SLOAD AND OR SWAP1 SSTORE DUP1 PUSH1 0x0 MSTORE PUSH1 0x3 PUSH1 0x20 MSTORE PUSH32 0xB4CF9C343D4DCECC5CB7F5C9B99ED7AC1FE8A8AAA0405651BDE60D6A03500C4B PUSH1 0x20 PUSH1 0x5 PUSH1 0x1 DUP1 PUSH1 0xA0 SHL SUB PUSH1 0x40 PUSH1 0x0 KECCAK256 SLOAD AND SWAP5 ADD PUSH2 0x17E7 DUP2 SLOAD DUP7 PUSH32 0x0 PUSH2 0x1834 JUMP JUMPDEST PUSH2 0x17F0 DUP5 PUSH2 0x18B8 JUMP JUMPDEST SLOAD PUSH1 0x40 MLOAD SWAP1 DUP2 MSTORE LOG3 JUMP JUMPDEST POP DUP1 PUSH1 0x0 MSTORE PUSH1 0x5 PUSH1 0x20 MSTORE PUSH1 0xFF PUSH1 0x40 PUSH1 0x0 KECCAK256 SLOAD AND PUSH2 0x1758 JUMP JUMPDEST PUSH1 0x2 PUSH1 0x0 SLOAD EQ PUSH2 0x1823 JUMPI PUSH1 0x2 PUSH1 0x0 SSTORE JUMP JUMPDEST PUSH4 0x3EE5AEB5 PUSH1 0xE0 SHL PUSH1 0x0 MSTORE PUSH1 0x4 PUSH1 0x0 REVERT JUMPDEST PUSH1 0x40 MLOAD PUSH4 0xA9059CBB PUSH1 0xE0 SHL PUSH1 0x20 DUP3 ADD MSTORE PUSH1 0x1 PUSH1 0x1 PUSH1 0xA0 SHL SUB SWAP1 SWAP3 AND PUSH1 0x24 DUP4 ADD MSTORE PUSH1 0x44 DUP1 DUP4 ADD SWAP4 SWAP1 SWAP4 MSTORE SWAP2 DUP2 MSTORE PUSH2 0x158F SWAP2 PUSH2 0x186F PUSH1 0x64 DUP4 PUSH2 0x1535 JUMP JUMPDEST PUSH2 0x1953 JUMP JUMPDEST PUSH1 0x40 MLOAD PUSH4 0x23B872DD PUSH1 0xE0 SHL PUSH1 0x20 DUP3 ADD MSTORE PUSH1 0x1 PUSH1 0x1 PUSH1 0xA0 SHL SUB SWAP3 DUP4 AND PUSH1 0x24 DUP3 ADD MSTORE SWAP3 SWAP1 SWAP2 AND PUSH1 0x44 DUP4 ADD MSTORE PUSH1 0x64 DUP1 DUP4 ADD SWAP4 SWAP1 SWAP4 MSTORE SWAP2 DUP2 MSTORE PUSH2 0x158F SWAP2 PUSH2 0x186F PUSH1 0x84 DUP4 PUSH2 0x1535 JUMP JUMPDEST PUSH1 0x0 JUMPDEST PUSH1 0x6 SLOAD DUP1 DUP3 LT ISZERO PUSH2 0x194E JUMPI DUP3 PUSH2 0x18D0 DUP4 PUSH2 0x163B JUMP JUMPDEST SWAP1 SLOAD SWAP1 PUSH1 0x3 SHL SHR EQ PUSH2 0x18E5 JUMPI POP PUSH1 0x1 ADD PUSH2 0x18BB JUMP JUMPDEST PUSH1 0x0 NOT DUP2 ADD SWAP3 POP DUP3 GT PUSH2 0x6EB JUMPI PUSH2 0x54B PUSH2 0x1901 PUSH2 0x190E SWAP4 PUSH2 0x163B JUMP JUMPDEST SWAP1 SLOAD SWAP1 PUSH1 0x3 SHL SHR SWAP2 PUSH2 0x163B JUMP JUMPDEST PUSH1 0x6 SLOAD DUP1 ISZERO PUSH2 0x1938 JUMPI PUSH1 0x0 NOT ADD PUSH2 0x1924 DUP2 PUSH2 0x163B JUMP JUMPDEST DUP2 SLOAD SWAP1 PUSH1 0x0 NOT SWAP1 PUSH1 0x3 SHL SHL NOT AND SWAP1 SSTORE PUSH1 0x6 SSTORE JUMP JUMPDEST PUSH4 0x4E487B71 PUSH1 0xE0 SHL PUSH1 0x0 MSTORE PUSH1 0x31 PUSH1 0x4 MSTORE PUSH1 0x24 PUSH1 0x0 REVERT JUMPDEST POP POP POP JUMP JUMPDEST SWAP1 PUSH1 0x0 PUSH1 0x20 SWAP2 DUP3 DUP2 MLOAD SWAP2 ADD DUP3 DUP6 GAS CALL ISZERO PUSH2 0xCE0 JUMPI PUSH1 0x0 MLOAD RETURNDATASIZE PUSH2 0x19A5 JUMPI POP PUSH1 0x1 PUSH1 0x1 PUSH1 0xA0 SHL SUB DUP2 AND EXTCODESIZE ISZERO JUMPDEST PUSH2 0x1984 JUMPI POP JUMP JUMPDEST PUSH4 0x5274AFE7 PUSH1 0xE0 SHL PUSH1 0x0 SWAP1 DUP2 MSTORE PUSH1 0x1 PUSH1 0x1 PUSH1 0xA0 SHL SUB SWAP2 SWAP1 SWAP2 AND PUSH1 0x4 MSTORE PUSH1 0x24 SWAP1 REVERT JUMPDEST PUSH1 0x1 EQ ISZERO PUSH2 0x197D JUMP INVALID LOG2 PUSH5 0x6970667358 0x22 SLT KECCAK256 DUP5 0x4D 0xC9 0x1F 0xC1 LOG2 0xB4 0xEE PUSH14 0x53E3EC1E5A67966C9FD278E50FA6 LOG0 0xDA 0xF9 PUSH8 0x42B42484E464736F PUSH13 0x634300081C0033000000000000 "
        },
        "methodIdentifiers": {
          "BASE_FEE()": "3d18651e",
          "MAX_ACTIVE_REQUESTS()": "8740ca80",
          "acceptRequest(uint256)": "4ba1f098",
          "activeRequestIds(uint256)": "e1c99d1b",
          "cancelRequest(uint256)": "3015394c",
          "confirmDeliveryAsDriver(uint256)": "c13a5cfd",
          "confirmDeliveryAsUser(uint256)": "16155e24",
          "createDeliveryRequest(string,string,string,uint256)": "e41e4c07",
          "driverConfirmed(uint256)": "295c72bb",
          "driverRegistry()": "40c60923",
          "getActiveRequests()": "e8c1e76f",
          "getAssignedDriver(uint256)": "3dc38615",
          "getConfirmationStatus(uint256)": "0f979c28",
          "getRequest(uint256)": "c58343ef",
          "requestCounter()": "973a814e",
          "requestToDriver(uint256)": "67487541",
          "requests(uint256)": "81d12c58",
          "stablecoin()": "e9cbd822",
          "updateDeliveryRequest(uint256,string,string,string,uint256)": "2ca488b7",
          "userConfirmed(uint256)": "e4c12fdf"
        }
      }
    }
  }
}