{
  "contracts/DriverRegistry.sol": {
    "DriverRegistry": {
      "abi": [
        {
          "inputs": [],
          "name": "DriverAlreadyRegistered",
          "type": "error"
        },
        {
          "inputs": [],
          "name": "DriverNotRegistered",
          "type": "error"
        },
        {
          "anonymous": false,
          "inputs": [
            {
              "indexed": true,
              "internalType": "uint256",
              "name": "companyId",
              "type": "uint256"
            },
            {
              "indexed": false,
              "internalType": "uint256",
              "name": "totalDeliveries",
              "type": "uint256"
            },
            {
              "indexed": false,
              "internalType": "uint256",
              "name": "rating",
              "type": "uint256"
            }
          ],
          "name": "CompanyStatsUpdated",
          "type": "event"
        },
        {
          "anonymous": false,
          "inputs": [
            {
              "indexed": true,
              "internalType": "address",
              "name": "driver",
              "type": "address"
            }
          ],
          "name": "DriverRegistered",
          "type": "event"
        },
        {
          "anonymous": false,
          "inputs": [
            {
              "indexed": true,
              "internalType": "address",
              "name": "driver",
              "type": "address"
            },
            {
              "indexed": false,
              "internalType": "bool",
              "name": "available",
              "type": "bool"
            }
          ],
          "name": "DriverStatusChanged",
          "type": "event"
        },
        {
          "inputs": [
            {
              "internalType": "address",
              "name": "",
              "type": "address"
            }
          ],
          "name": "driverAvailable",
          "outputs": [
            {
              "internalType": "bool",
              "name": "",
              "type": "bool"
            }
          ],
          "stateMutability": "view",
          "type": "function"
        },
        {
          "inputs": [
            {
              "internalType": "uint256",
              "name": "",
              "type": "uint256"
            }
          ],
          "name": "driverList",
          "outputs": [
            {
              "internalType": "address",
              "name": "",
              "type": "address"
            }
          ],
          "stateMutability": "view",
          "type": "function"
        },
        {
          "inputs": [
            {
              "internalType": "address",
              "name": "",
              "type": "address"
            }
          ],
          "name": "driverRating",
          "outputs": [
            {
              "internalType": "uint256",
              "name": "",
              "type": "uint256"
            }
          ],
          "stateMutability": "view",
          "type": "function"
        },
        {
          "inputs": [],
          "name": "getAllDrivers",
          "outputs": [
            {
              "internalType": "address[]",
              "name": "",
              "type": "address[]"
            }
          ],
          "stateMutability": "view",
          "type": "function"
        },
        {
          "inputs": [],
          "name": "getAvailableDrivers",
          "outputs": [
            {
              "internalType": "address[]",
              "name": "",
              "type": "address[]"
            }
          ],
          "stateMutability": "view",
          "type": "function"
        },
        {
          "inputs": [],
          "name": "getDriverCount",
          "outputs": [
            {
              "internalType": "uint256",
              "name": "",
              "type": "uint256"
            }
          ],
          "stateMutability": "view",
          "type": "function"
        },
        {
          "inputs": [
            {
              "internalType": "address",
              "name": "_driver",
              "type": "address"
            }
          ],
          "name": "getDriverStats",
          "outputs": [
            {
              "internalType": "uint256",
              "name": "deliveries",
              "type": "uint256"
            },
            {
              "internalType": "uint256",
              "name": "rating",
              "type": "uint256"
            }
          ],
          "stateMutability": "view",
          "type": "function"
        },
        {
          "inputs": [
            {
              "internalType": "address",
              "name": "_driver",
              "type": "address"
            }
          ],
          "name": "isDriverAvailable",
          "outputs": [
            {
              "internalType": "bool",
              "name": "",
              "type": "bool"
            }
          ],
          "stateMutability": "view",
          "type": "function"
        },
        {
          "inputs": [
            {
              "internalType": "address",
              "name": "_driver",
              "type": "address"
            }
          ],
          "name": "isDriverRegistered",
          "outputs": [
            {
              "internalType": "bool",
              "name": "",
              "type": "bool"
            }
          ],
          "stateMutability": "view",
          "type": "function"
        },
        {
          "inputs": [],
          "name": "registerDrivers",
          "outputs": [],
          "stateMutability": "nonpayable",
          "type": "function"
        },
        {
          "inputs": [
            {
              "internalType": "address",
              "name": "",
              "type": "address"
            }
          ],
          "name": "registeredDrivers",
          "outputs": [
            {
              "internalType": "bool",
              "name": "",
              "type": "bool"
            }
          ],
          "stateMutability": "view",
          "type": "function"
        },
        {
          "inputs": [
            {
              "internalType": "bool",
              "name": "_available",
              "type": "bool"
            }
          ],
          "name": "setDriversAvailability",
          "outputs": [],
          "stateMutability": "nonpayable",
          "type": "function"
        },
        {
          "inputs": [
            {
              "internalType": "address",
              "name": "",
              "type": "address"
            }
          ],
          "name": "totalDeliveries",
          "outputs": [
            {
              "internalType": "uint256",
              "name": "",
              "type": "uint256"
            }
          ],
          "stateMutability": "view",
          "type": "function"
        },
        {
          "inputs": [
            {
              "internalType": "address",
              "name": "_driver",
              "type": "address"
            },
            {
              "internalType": "uint256",
              "name": "_rating",
              "type": "uint256"
            }
          ],
          "name": "updateDriverStats",
          "outputs": [],
          "stateMutability": "nonpayable",
          "type": "function"
        }
      ],
      "evm": {
        "bytecode": {
          "linkReferences": {},
          "object": "608080604052346015576108a0908161001b8239f35b600080fdfe608080604052600436101561001357600080fd5b60003560e01c90816309e7fa35146107725750806312282cb91461066b57806320356eb3146105ed5780632be17d26146105cf5780632eac9c5b1461056f5780634c1ff7091461053557806357b6e65c146104fb5780636cbac4a81461046f57806379806bfb14610423578063811d60ac146102c457806383c812861461017e57806389e880fe1461013f57806398a3f6c6146100fd57639bb57700146100b957600080fd5b346100f85760203660031901126100f8576001600160a01b036100da6107ad565b166000526000602052602060ff604060002054166040519015158152f35b600080fd5b346100f85760203660031901126100f8576004356004548110156100f857610126602091610806565b905460405160039290921b1c6001600160a01b03168152f35b346100f85760203660031901126100f8576001600160a01b036101606107ad565b166000526001602052602060ff604060002054166040519015158152f35b346100f85760003660031901126100f8576004546000805b82811061027a57506101a781610852565b906101b56040519283610821565b8082526101c4601f1991610852565b0136602083013760009160005b8181106101ea57604051806101e685826107c3565b0390f35b6101f381610806565b60018060a01b0391549060031b1c16600052600160205260ff60406000205416610220575b6001016101d1565b9261022a84610806565b9054845160039290921b1c6001600160a01b031690821015610264578161025c91602060019460051b87010152610843565b939050610218565b634e487b7160e01b600052603260045260246000fd5b61028381610806565b60018060a01b0391549060031b1c16600052600160205260ff604060002054166102b0575b600101610196565b906102bc600191610843565b9190506102a8565b346100f85760403660031901126100f8576102dd6107ad565b6001600160a01b03166000818152602081905260409020546024359060ff16156104125781600052600260205260406000206103198154610843565b905581600052600360205260406000205482600052600260205260406000205490600182146000146103a35750508160005260036020526040600020555b8060005260026020527f42ec06fd0536d2d7a0565cca15fda03072194f09208be1c5dc0047dac3dd8d0660408060002054836000526003602052816000205482519182526020820152a2005b90916000198301918383116103fc578281029281840414901517156103fc5781018091116103fc5781156103e65782600052600360205204604060002055610357565b634e487b7160e01b600052601260045260246000fd5b634e487b7160e01b600052601160045260246000fd5b63397c3aef60e01b60005260046000fd5b346100f85760203660031901126100f85760406001600160a01b036104466107ad565b168060005260026020528160002054906000526003602052816000205482519182526020820152f35b346100f85760003660031901126100f85760405180602060045491828152019060046000527f8a35acfbc15ff81a39ae7d344fd709f28e8600b4aa8c65c6b64bfe7fe36bd19b9060005b8181106104dc576101e6856104d081870382610821565b604051918291826107c3565b82546001600160a01b03168452602090930192600192830192016104b9565b346100f85760203660031901126100f8576001600160a01b0361051c6107ad565b1660005260026020526020604060002054604051908152f35b346100f85760203660031901126100f8576001600160a01b036105566107ad565b1660005260036020526020604060002054604051908152f35b346100f85760203660031901126100f8576001600160a01b036105906107ad565b1680600052600060205260ff60406000205416806105b6575b6020906040519015158152f35b506000526001602052602060ff604060002054166105a9565b346100f85760003660031901126100f8576020600454604051908152f35b346100f85760203660031901126100f8576004358015158091036100f85733600052600060205260ff604060002054161561041257336000526001602052604060002060ff1981541660ff83161790556040519081527f4ccdb448aea6732839eebc1bb856949cccd135deea79c030314a9641c91a311460203392a2005b346100f85760003660031901126100f85733600052600060205260ff60406000205416610761573360005260006020526040600020600160ff19825416179055336000526001602052604060002060ff1981541690553360005260036020526064604060002055600454336000526005602052806040600020556801000000000000000081101561074b578060016107069201600455610806565b81546001600160a01b0360039290921b91821b1916339182901b179091557fbe5e7a1c543800c6abb49749a131598b050660d403a09b2e31318c2048c00d74600080a2005b634e487b7160e01b600052604160045260246000fd5b63ce946ee160e01b60005260046000fd5b346100f85760203660031901126100f8576020906001600160a01b036107966107ad565b166000526000825260ff6040600020541615158152f35b600435906001600160a01b03821682036100f857565b602060408183019282815284518094520192019060005b8181106107e75750505090565b82516001600160a01b03168452602093840193909201916001016107da565b60045481101561026457600460005260206000200190600090565b90601f8019910116810190811067ffffffffffffffff82111761074b57604052565b60001981146103fc5760010190565b67ffffffffffffffff811161074b5760051b6020019056fea2646970667358221220a44737eb6d076305755bb5bac4d490872e0187c4549d538c79403aaedacd4cf964736f6c634300081c0033",
          "opcodes": "PUSH1 0x80 DUP1 PUSH1 0x40 MSTORE CALLVALUE PUSH1 0x15 JUMPI PUSH2 0x8A0 SWAP1 DUP2 PUSH2 0x1B DUP3 CODECOPY RETURN JUMPDEST PUSH1 0x0 DUP1 REVERT INVALID PUSH1 0x80 DUP1 PUSH1 0x40 MSTORE PUSH1 0x4 CALLDATASIZE LT ISZERO PUSH2 0x13 JUMPI PUSH1 0x0 DUP1 REVERT JUMPDEST PUSH1 0x0 CALLDATALOAD PUSH1 0xE0 SHR SWAP1 DUP2 PUSH4 0x9E7FA35 EQ PUSH2 0x772 JUMPI POP DUP1 PUSH4 0x12282CB9 EQ PUSH2 0x66B JUMPI DUP1 PUSH4 0x20356EB3 EQ PUSH2 0x5ED JUMPI DUP1 PUSH4 0x2BE17D26 EQ PUSH2 0x5CF JUMPI DUP1 PUSH4 0x2EAC9C5B EQ PUSH2 0x56F JUMPI DUP1 PUSH4 0x4C1FF709 EQ PUSH2 0x535 JUMPI DUP1 PUSH4 0x57B6E65C EQ PUSH2 0x4FB JUMPI DUP1 PUSH4 0x6CBAC4A8 EQ PUSH2 0x46F JUMPI DUP1 PUSH4 0x79806BFB EQ PUSH2 0x423 JUMPI DUP1 PUSH4 0x811D60AC EQ PUSH2 0x2C4 JUMPI DUP1 PUSH4 0x83C81286 EQ PUSH2 0x17E JUMPI DUP1 PUSH4 0x89E880FE EQ PUSH2 0x13F JUMPI DUP1 PUSH4 0x98A3F6C6 EQ PUSH2 0xFD JUMPI PUSH4 0x9BB57700 EQ PUSH2 0xB9 JUMPI PUSH1 0x0 DUP1 REVERT JUMPDEST CALLVALUE PUSH2 0xF8 JUMPI PUSH1 0x20 CALLDATASIZE PUSH1 0x3 NOT ADD SLT PUSH2 0xF8 JUMPI PUSH1 0x1 PUSH1 0x1 PUSH1 0xA0 SHL SUB PUSH2 0xDA PUSH2 0x7AD JUMP JUMPDEST AND PUSH1 0x0 MSTORE PUSH1 0x0 PUSH1 0x20 MSTORE PUSH1 0x20 PUSH1 0xFF PUSH1 0x40 PUSH1 0x0 KECCAK256 SLOAD AND PUSH1 0x40 MLOAD SWAP1 ISZERO ISZERO DUP2 MSTORE RETURN JUMPDEST PUSH1 0x0 DUP1 REVERT JUMPDEST CALLVALUE PUSH2 0xF8 JUMPI PUSH1 0x20 CALLDATASIZE PUSH1 0x3 NOT ADD SLT PUSH2 0xF8 JUMPI PUSH1 0x4 CALLDATALOAD PUSH1 0x4 SLOAD DUP2 LT ISZERO PUSH2 0xF8 JUMPI PUSH2 0x126 PUSH1 0x20 SWAP2 PUSH2 0x806 JUMP JUMPDEST SWAP1 SLOAD PUSH1 0x40 MLOAD PUSH1 0x3 SWAP3 SWAP1 SWAP3 SHL SHR PUSH1 0x1 PUSH1 0x1 PUSH1 0xA0 SHL SUB AND DUP2 MSTORE RETURN JUMPDEST CALLVALUE PUSH2 0xF8 JUMPI PUSH1 0x20 CALLDATASIZE PUSH1 0x3 NOT ADD SLT PUSH2 0xF8 JUMPI PUSH1 0x1 PUSH1 0x1 PUSH1 0xA0 SHL SUB PUSH2 0x160 PUSH2 0x7AD JUMP JUMPDEST AND PUSH1 0x0 MSTORE PUSH1 0x1 PUSH1 0x20 MSTORE PUSH1 0x20 PUSH1 0xFF PUSH1 0x40 PUSH1 0x0 KECCAK256 SLOAD AND PUSH1 0x40 MLOAD SWAP1 ISZERO ISZERO DUP2 MSTORE RETURN JUMPDEST CALLVALUE PUSH2 0xF8 JUMPI PUSH1 0x0 CALLDATASIZE PUSH1 0x3 NOT ADD SLT PUSH2 0xF8 JUMPI PUSH1 0x4 SLOAD PUSH1 0x0 DUP1 JUMPDEST DUP3 DUP2 LT PUSH2 0x27A JUMPI POP PUSH2 0x1A7 DUP2 PUSH2 0x852 JUMP JUMPDEST SWAP1 PUSH2 0x1B5 PUSH1 0x40 MLOAD SWAP3 DUP4 PUSH2 0x821 JUMP JUMPDEST DUP1 DUP3 MSTORE PUSH2 0x1C4 PUSH1 0x1F NOT SWAP2 PUSH2 0x852 JUMP JUMPDEST ADD CALLDATASIZE PUSH1 0x20 DUP4 ADD CALLDATACOPY PUSH1 0x0 SWAP2 PUSH1 0x0 JUMPDEST DUP2 DUP2 LT PUSH2 0x1EA JUMPI PUSH1 0x40 MLOAD DUP1 PUSH2 0x1E6 DUP6 DUP3 PUSH2 0x7C3 JUMP JUMPDEST SUB SWAP1 RETURN JUMPDEST PUSH2 0x1F3 DUP2 PUSH2 0x806 JUMP JUMPDEST PUSH1 0x1 DUP1 PUSH1 0xA0 SHL SUB SWAP2 SLOAD SWAP1 PUSH1 0x3 SHL SHR AND PUSH1 0x0 MSTORE PUSH1 0x1 PUSH1 0x20 MSTORE PUSH1 0xFF PUSH1 0x40 PUSH1 0x0 KECCAK256 SLOAD AND PUSH2 0x220 JUMPI JUMPDEST PUSH1 0x1 ADD PUSH2 0x1D1 JUMP JUMPDEST SWAP3 PUSH2 0x22A DUP5 PUSH2 0x806 JUMP JUMPDEST SWAP1 SLOAD DUP5 MLOAD PUSH1 0x3 SWAP3 SWAP1 SWAP3 SHL SHR PUSH1 0x1 PUSH1 0x1 PUSH1 0xA0 SHL SUB AND SWAP1 DUP3 LT ISZERO PUSH2 0x264 JUMPI DUP2 PUSH2 0x25C SWAP2 PUSH1 0x20 PUSH1 0x1 SWAP5 PUSH1 0x5 SHL DUP8 ADD ADD MSTORE PUSH2 0x843 JUMP JUMPDEST SWAP4 SWAP1 POP PUSH2 0x218 JUMP JUMPDEST PUSH4 0x4E487B71 PUSH1 0xE0 SHL PUSH1 0x0 MSTORE PUSH1 0x32 PUSH1 0x4 MSTORE PUSH1 0x24 PUSH1 0x0 REVERT JUMPDEST PUSH2 0x283 DUP2 PUSH2 0x806 JUMP JUMPDEST PUSH1 0x1 DUP1 PUSH1 0xA0 SHL SUB SWAP2 SLOAD SWAP1 PUSH1 0x3 SHL SHR AND PUSH1 0x0 MSTORE PUSH1 0x1 PUSH1 0x20 MSTORE PUSH1 0xFF PUSH1 0x40 PUSH1 0x0 KECCAK256 SLOAD AND PUSH2 0x2B0 JUMPI JUMPDEST PUSH1 0x1 ADD PUSH2 0x196 JUMP JUMPDEST SWAP1 PUSH2 0x2BC PUSH1 0x1 SWAP2 PUSH2 0x843 JUMP JUMPDEST SWAP2 SWAP1 POP PUSH2 0x2A8 JUMP JUMPDEST CALLVALUE PUSH2 0xF8 JUMPI PUSH1 0x40 CALLDATASIZE PUSH1 0x3 NOT ADD SLT PUSH2 0xF8 JUMPI PUSH2 0x2DD PUSH2 0x7AD JUMP JUMPDEST PUSH1 0x1 PUSH1 0x1 PUSH1 0xA0 SHL SUB AND PUSH1 0x0 DUP2 DUP2 MSTORE PUSH1 0x20 DUP2 SWAP1 MSTORE PUSH1 0x40 SWAP1 KECCAK256 SLOAD PUSH1 0x24 CALLDATALOAD SWAP1 PUSH1 0xFF AND ISZERO PUSH2 0x412 JUMPI DUP2 PUSH1 0x0 MSTORE PUSH1 0x2 PUSH1 0x20 MSTORE PUSH1 0x40 PUSH1 0x0 KECCAK256 PUSH2 0x319 DUP2 SLOAD PUSH2 0x843 JUMP JUMPDEST SWAP1 SSTORE DUP2 PUSH1 0x0 MSTORE PUSH1 0x3 PUSH1 0x20 MSTORE PUSH1 0x40 PUSH1 0x0 KECCAK256 SLOAD DUP3 PUSH1 0x0 MSTORE PUSH1 0x2 PUSH1 0x20 MSTORE PUSH1 0x40 PUSH1 0x0 KECCAK256 SLOAD SWAP1 PUSH1 0x1 DUP3 EQ PUSH1 0x0 EQ PUSH2 0x3A3 JUMPI POP POP DUP2 PUSH1 0x0 MSTORE PUSH1 0x3 PUSH1 0x20 MSTORE PUSH1 0x40 PUSH1 0x0 KECCAK256 SSTORE JUMPDEST DUP1 PUSH1 0x0 MSTORE PUSH1 0x2 PUSH1 0x20 MSTORE PUSH32 0x42EC06FD0536D2D7A0565CCA15FDA03072194F09208BE1C5DC0047DAC3DD8D06 PUSH1 0x40 DUP1 PUSH1 0x0 KECCAK256 SLOAD DUP4 PUSH1 0x0 MSTORE PUSH1 0x3 PUSH1 0x20 MSTORE DUP2 PUSH1 0x0 KECCAK256 SLOAD DUP3 MLOAD SWAP2 DUP3 MSTORE PUSH1 0x20 DUP3 ADD MSTORE LOG2 STOP JUMPDEST SWAP1 SWAP2 PUSH1 0x0 NOT DUP4 ADD SWAP2 DUP4 DUP4 GT PUSH2 0x3FC JUMPI DUP3 DUP2 MUL SWAP3 DUP2 DUP5 DIV EQ SWAP1 ISZERO OR ISZERO PUSH2 0x3FC JUMPI DUP2 ADD DUP1 SWAP2 GT PUSH2 0x3FC JUMPI DUP2 ISZERO PUSH2 0x3E6 JUMPI DUP3 PUSH1 0x0 MSTORE PUSH1 0x3 PUSH1 0x20 MSTORE DIV PUSH1 0x40 PUSH1 0x0 KECCAK256 SSTORE PUSH2 0x357 JUMP JUMPDEST PUSH4 0x4E487B71 PUSH1 0xE0 SHL PUSH1 0x0 MSTORE PUSH1 0x12 PUSH1 0x4 MSTORE PUSH1 0x24 PUSH1 0x0 REVERT JUMPDEST PUSH4 0x4E487B71 PUSH1 0xE0 SHL PUSH1 0x0 MSTORE PUSH1 0x11 PUSH1 0x4 MSTORE PUSH1 0x24 PUSH1 0x0 REVERT JUMPDEST PUSH4 0x397C3AEF PUSH1 0xE0 SHL PUSH1 0x0 MSTORE PUSH1 0x4 PUSH1 0x0 REVERT JUMPDEST CALLVALUE PUSH2 0xF8 JUMPI PUSH1 0x20 CALLDATASIZE PUSH1 0x3 NOT ADD SLT PUSH2 0xF8 JUMPI PUSH1 0x40 PUSH1 0x1 PUSH1 0x1 PUSH1 0xA0 SHL SUB PUSH2 0x446 PUSH2 0x7AD JUMP JUMPDEST AND DUP1 PUSH1 0x0 MSTORE PUSH1 0x2 PUSH1 0x20 MSTORE DUP2 PUSH1 0x0 KECCAK256 SLOAD SWAP1 PUSH1 0x0 MSTORE PUSH1 0x3 PUSH1 0x20 MSTORE DUP2 PUSH1 0x0 KECCAK256 SLOAD DUP3 MLOAD SWAP2 DUP3 MSTORE PUSH1 0x20 DUP3 ADD MSTORE RETURN JUMPDEST CALLVALUE PUSH2 0xF8 JUMPI PUSH1 0x0 CALLDATASIZE PUSH1 0x3 NOT ADD SLT PUSH2 0xF8 JUMPI PUSH1 0x40 MLOAD DUP1 PUSH1 0x20 PUSH1 0x4 SLOAD SWAP2 DUP3 DUP2 MSTORE ADD SWAP1 PUSH1 0x4 PUSH1 0x0 MSTORE PUSH32 0x8A35ACFBC15FF81A39AE7D344FD709F28E8600B4AA8C65C6B64BFE7FE36BD19B SWAP1 PUSH1 0x0 JUMPDEST DUP2 DUP2 LT PUSH2 0x4DC JUMPI PUSH2 0x1E6 DUP6 PUSH2 0x4D0 DUP2 DUP8 SUB DUP3 PUSH2 0x821 JUMP JUMPDEST PUSH1 0x40 MLOAD SWAP2 DUP3 SWAP2 DUP3 PUSH2 0x7C3 JUMP JUMPDEST DUP3 SLOAD PUSH1 0x1 PUSH1 0x1 PUSH1 0xA0 SHL SUB AND DUP5 MSTORE PUSH1 0x20 SWAP1 SWAP4 ADD SWAP3 PUSH1 0x1 SWAP3 DUP4 ADD SWAP3 ADD PUSH2 0x4B9 JUMP JUMPDEST CALLVALUE PUSH2 0xF8 JUMPI PUSH1 0x20 CALLDATASIZE PUSH1 0x3 NOT ADD SLT PUSH2 0xF8 JUMPI PUSH1 0x1 PUSH1 0x1 PUSH1 0xA0 SHL SUB PUSH2 0x51C PUSH2 0x7AD JUMP JUMPDEST AND PUSH1 0x0 MSTORE PUSH1 0x2 PUSH1 0x20 MSTORE PUSH1 0x20 PUSH1 0x40 PUSH1 0x0 KECCAK256 SLOAD PUSH1 0x40 MLOAD SWAP1 DUP2 MSTORE RETURN JUMPDEST CALLVALUE PUSH2 0xF8 JUMPI PUSH1 0x20 CALLDATASIZE PUSH1 0x3 NOT ADD SLT PUSH2 0xF8 JUMPI PUSH1 0x1 PUSH1 0x1 PUSH1 0xA0 SHL SUB PUSH2 0x556 PUSH2 0x7AD JUMP JUMPDEST AND PUSH1 0x0 MSTORE PUSH1 0x3 PUSH1 0x20 MSTORE PUSH1 0x20 PUSH1 0x40 PUSH1 0x0 KECCAK256 SLOAD PUSH1 0x40 MLOAD SWAP1 DUP2 MSTORE RETURN JUMPDEST CALLVALUE PUSH2 0xF8 JUMPI PUSH1 0x20 CALLDATASIZE PUSH1 0x3 NOT ADD SLT PUSH2 0xF8 JUMPI PUSH1 0x1 PUSH1 0x1 PUSH1 0xA0 SHL SUB PUSH2 0x590 PUSH2 0x7AD JUMP JUMPDEST AND DUP1 PUSH1 0x0 MSTORE PUSH1 0x0 PUSH1 0x20 MSTORE PUSH1 0xFF PUSH1 0x40 PUSH1 0x0 KECCAK256 SLOAD AND DUP1 PUSH2 0x5B6 JUMPI JUMPDEST PUSH1 0x20 SWAP1 PUSH1 0x40 MLOAD SWAP1 ISZERO ISZERO DUP2 MSTORE RETURN JUMPDEST POP PUSH1 0x0 MSTORE PUSH1 0x1 PUSH1 0x20 MSTORE PUSH1 0x20 PUSH1 0xFF PUSH1 0x40 PUSH1 0x0 KECCAK256 SLOAD AND PUSH2 0x5A9 JUMP JUMPDEST CALLVALUE PUSH2 0xF8 JUMPI PUSH1 0x0 CALLDATASIZE PUSH1 0x3 NOT ADD SLT PUSH2 0xF8 JUMPI PUSH1 0x20 PUSH1 0x4 SLOAD PUSH1 0x40 MLOAD SWAP1 DUP2 MSTORE RETURN JUMPDEST CALLVALUE PUSH2 0xF8 JUMPI PUSH1 0x20 CALLDATASIZE PUSH1 0x3 NOT ADD SLT PUSH2 0xF8 JUMPI PUSH1 0x4 CALLDATALOAD DUP1 ISZERO ISZERO DUP1 SWAP2 SUB PUSH2 0xF8 JUMPI CALLER PUSH1 0x0 MSTORE PUSH1 0x0 PUSH1 0x20 MSTORE PUSH1 0xFF PUSH1 0x40 PUSH1 0x0 KECCAK256 SLOAD AND ISZERO PUSH2 0x412 JUMPI CALLER PUSH1 0x0 MSTORE PUSH1 0x1 PUSH1 0x20 MSTORE PUSH1 0x40 PUSH1 0x0 KECCAK256 PUSH1 0xFF NOT DUP2 SLOAD AND PUSH1 0xFF DUP4 AND OR SWAP1 SSTORE PUSH1 0x40 MLOAD SWAP1 DUP2 MSTORE PUSH32 0x4CCDB448AEA6732839EEBC1BB856949CCCD135DEEA79C030314A9641C91A3114 PUSH1 0x20 CALLER SWAP3 LOG2 STOP JUMPDEST CALLVALUE PUSH2 0xF8 JUMPI PUSH1 0x0 CALLDATASIZE PUSH1 0x3 NOT ADD SLT PUSH2 0xF8 JUMPI CALLER PUSH1 0x0 MSTORE PUSH1 0x0 PUSH1 0x20 MSTORE PUSH1 0xFF PUSH1 0x40 PUSH1 0x0 KECCAK256 SLOAD AND PUSH2 0x761 JUMPI CALLER PUSH1 0x0 MSTORE PUSH1 0x0 PUSH1 0x20 MSTORE PUSH1 0x40 PUSH1 0x0 KECCAK256 PUSH1 0x1 PUSH1 0xFF NOT DUP3 SLOAD AND OR SWAP1 SSTORE CALLER PUSH1 0x0 MSTORE PUSH1 0x1 PUSH1 0x20 MSTORE PUSH1 0x40 PUSH1 0x0 KECCAK256 PUSH1 0xFF NOT DUP2 SLOAD AND SWAP1 SSTORE CALLER PUSH1 0x0 MSTORE PUSH1 0x3 PUSH1 0x20 MSTORE PUSH1 0x64 PUSH1 0x40 PUSH1 0x0 KECCAK256 SSTORE PUSH1 0x4 SLOAD CALLER PUSH1 0x0 MSTORE PUSH1 0x5 PUSH1 0x20 MSTORE DUP1 PUSH1 0x40 PUSH1 0x0 KECCAK256 SSTORE PUSH9 0x10000000000000000 DUP2 LT ISZERO PUSH2 0x74B JUMPI DUP1 PUSH1 0x1 PUSH2 0x706 SWAP3 ADD PUSH1 0x4 SSTORE PUSH2 0x806 JUMP JUMPDEST DUP2 SLOAD PUSH1 0x1 PUSH1 0x1 PUSH1 0xA0 SHL SUB PUSH1 0x3 SWAP3 SWAP1 SWAP3 SHL SWAP2 DUP3 SHL NOT AND CALLER SWAP2 DUP3 SWAP1 SHL OR SWAP1 SWAP2 SSTORE PUSH32 0xBE5E7A1C543800C6ABB49749A131598B050660D403A09B2E31318C2048C00D74 PUSH1 0x0 DUP1 LOG2 STOP JUMPDEST PUSH4 0x4E487B71 PUSH1 0xE0 SHL PUSH1 0x0 MSTORE PUSH1 0x41 PUSH1 0x4 MSTORE PUSH1 0x24 PUSH1 0x0 REVERT JUMPDEST PUSH4 0xCE946EE1 PUSH1 0xE0 SHL PUSH1 0x0 MSTORE PUSH1 0x4 PUSH1 0x0 REVERT JUMPDEST CALLVALUE PUSH2 0xF8 JUMPI PUSH1 0x20 CALLDATASIZE PUSH1 0x3 NOT ADD SLT PUSH2 0xF8 JUMPI PUSH1 0x20 SWAP1 PUSH1 0x1 PUSH1 0x1 PUSH1 0xA0 SHL SUB PUSH2 0x796 PUSH2 0x7AD JUMP JUMPDEST AND PUSH1 0x0 MSTORE PUSH1 0x0 DUP3 MSTORE PUSH1 0xFF PUSH1 0x40 PUSH1 0x0 KECCAK256 SLOAD AND ISZERO ISZERO DUP2 MSTORE RETURN JUMPDEST PUSH1 0x4 CALLDATALOAD SWAP1 PUSH1 0x1 PUSH1 0x1 PUSH1 0xA0 SHL SUB DUP3 AND DUP3 SUB PUSH2 0xF8 JUMPI JUMP JUMPDEST PUSH1 0x20 PUSH1 0x40 DUP2 DUP4 ADD SWAP3 DUP3 DUP2 MSTORE DUP5 MLOAD DUP1 SWAP5 MSTORE ADD SWAP3 ADD SWAP1 PUSH1 0x0 JUMPDEST DUP2 DUP2 LT PUSH2 0x7E7 JUMPI POP POP POP SWAP1 JUMP JUMPDEST DUP3 MLOAD PUSH1 0x1 PUSH1 0x1 PUSH1 0xA0 SHL SUB AND DUP5 MSTORE PUSH1 0x20 SWAP4 DUP5 ADD SWAP4 SWAP1 SWAP3 ADD SWAP2 PUSH1 0x1 ADD PUSH2 0x7DA JUMP JUMPDEST PUSH1 0x4 SLOAD DUP2 LT ISZERO PUSH2 0x264 JUMPI PUSH1 0x4 PUSH1 0x0 MSTORE PUSH1 0x20 PUSH1 0x0 KECCAK256 ADD SWAP1 PUSH1 0x0 SWAP1 JUMP JUMPDEST SWAP1 PUSH1 0x1F DUP1 NOT SWAP2 ADD AND DUP2 ADD SWAP1 DUP2 LT PUSH8 0xFFFFFFFFFFFFFFFF DUP3 GT OR PUSH2 0x74B JUMPI PUSH1 0x40 MSTORE JUMP JUMPDEST PUSH1 0x0 NOT DUP2 EQ PUSH2 0x3FC JUMPI PUSH1 0x1 ADD SWAP1 JUMP JUMPDEST PUSH8 0xFFFFFFFFFFFFFFFF DUP2 GT PUSH2 0x74B JUMPI PUSH1 0x5 SHL PUSH1 0x20 ADD SWAP1 JUMP INVALID LOG2 PUSH5 0x6970667358 0x22 SLT KECCAK256 LOG4 SELFBALANCE CALLDATACOPY 0xEB PUSH14 0x76305755BB5BAC4D490872E0187 0xC4 SLOAD SWAP14 MSTORE8 DUP13 PUSH26 0x403AAEDACD4CF964736F6C634300081C00330000000000000000 "
        },
        "methodIdentifiers": {
          "driverAvailable(address)": "89e880fe",
          "driverList(uint256)": "98a3f6c6",
          "driverRating(address)": "4c1ff709",
          "getAllDrivers()": "6cbac4a8",
          "getAvailableDrivers()": "83c81286",
          "getDriverCount()": "2be17d26",
          "getDriverStats(address)": "79806bfb",
          "isDriverAvailable(address)": "2eac9c5b",
          "isDriverRegistered(address)": "9bb57700",
          "registerDrivers()": "12282cb9",
          "registeredDrivers(address)": "09e7fa35",
          "setDriversAvailability(bool)": "20356eb3",
          "totalDeliveries(address)": "57b6e65c",
          "updateDriverStats(address,uint256)": "811d60ac"
        }
      }
    }
  }
}